:1005160000E010080810E000000F102020100F0067
:1005260000001010F8000000000020203F202000EE
:10053600007008080808F000003028242221300046
:1005460000300808088870000018202121221C00AD
:100556000000804030F8000000060524243F2424D3
:1005660000F88888880808000019202020110E004D
:1005760000E0108888900000000F112020201F0046
:1005860000180808886818000000003E01000000F6
:100596000070880808887000001C222121221C0097
:1005A60000F008080810E0000001122222110F00D6
:1005B600081868808068180820302C03032C302027
:1005C6000838C800C83808000000203F2000000096
:1005D60000000000000000000030300000000000B5
:1005E600000000C0C0000000000000303000000025
:1005F600000080808000000000192424123F2000A3
:1006060010F0008080000000003F112020110E0035
:1006160008F8888888887000203F2000030C302066
:100626000040404040404000000202020202020038
:10063600008060F80740300FF8888888880808002E
:10064600010000FF00000000FF080808080800007D
:10065600202024242424BF6424342824222020009B
:1006660010080402FF494949494949FF00000000B2
:100676000000000000000000000000000000000074
:1006860000003636000000000000000000000000F8
:100696000404E4041F0404F404041F04E404040032
:1006A600007841414141417F4141414143F80000C9
:1006B60000083080FF0040404040FF40404040007E
:1006C60004020100FF00004040407F40404000001F
:1006D6000000F8888888880808FF08090AC8080002
:1006E60080601F0010201F80402116182641F80048
:1006F60080808080FF8080A09088848280808000B7
:1007060000000000FF402112040810202040400095
:10071600000000E0000000FF000000204080000014
:10072600080403000040807F0000000000010E0066
:1007360000FE0222DA06000000FF000000000000B2
:1007460000FF08108847201807000718204080007F
:10075600404042CC00504EC8487FC8484840000040
:100766000040201F20504C4340404F50505C4000FA
:100776001010FF100082864A52A2524A86808000DC
:1007860042827F010010121212FF12121210000094
:100796001010FF1090E02F29E909E9292FE0000049
:1007A60042827F414425150D05FE0D152545440061
:1007B600008060F80740300FF888888888080800AD
:1007C600010000FF00000000FF08080808080000FC
:1007D600E0180402022111F9010102020418E000E6
:1007E600030C10202040404F40402020100C0300F6
:1007F600E018040202110909897102020418E000D6
:10080600030C1020204C4A4948482020100C0300B5
:10081600E0180402020989C9291902020418E00035
:10082600030C10202044484849462020100C0300A1
:10083600E018040202C13109C10102020418E000F5
:10084600030C1020234242424F422220100C030088
:1008560002F20202F29292F29292F20202F2020084
:10086600007F40404F48484F48484F4040FF0000F7
:10087600000404F49494949F949494F40404000063
:100886004040407F4A4A4A4A4A4A4A7F40404000DE
:100896002030AC632018809090FF90494A48400071
:1008A600226722121212404020130C142241F80033
:1008B6001090FF9010FE225A8648F84F48C808004C
:1008C6000601FF0001FF04080700FF0A8AFF000077
:1008D60000FE0282BAAAAAAAAAAABA8202FE000048
:1008E60000FF404F605048464850604F40FF0000B0
:1008F60000FE0282BAAAAAAAAAAABA8202FE000028
:1009060000FF404F605048464850604F40FF00008F
:1009160000002424242424FC222222232200000076
:10092600020202020242827F020202020202020066
:100936004044C4444444401010FF101010F000001E
:10094600103C131014B840300E014080403F0000A8
:1019AF004400480000000041004C2B41005B736075
:1019BF0020002800000000000000000000000000D0
:1019CF000000000000000000000000000000000008
:1019DF0000000042001000004200560000420000CC
:1019EF000000420002000042000E38804200260034
:1019FF0001420016000042001A000042001E0000C3
:101A0F00420018000042001C00004200200000426B
:041A1F0000140009A6
:051BB200EF900055F06A
:101BB700901DFFE020E7F9900055E0901CFFF02210
:101B3000F583E58229F582E43583F583E49390000B
:021B400058F05B
:101B4200901DFFE020E7F9900058E0901EFFF02280
:101BEC00901DFFE020E7F9901FFFE0900058F022D5
:101B740090005DE02B540344B8900055F0121BB75D
:101B8400903DFFE020E7F9900055E0903CFFF02203
:101B5200F583E58229F582E43583F583E4939000E9
:021B620058F039
:101B6400903DFFE020E7F9900058E0903EFFF0221E
:101BFC00903DFFE020E7F9903FFFE0900058F02285
:101B000090005574E2121B8090005574A4121B8043
:101B100090005574A9121B8090005574A0121B8070
:101B200090005574C0121B8074AF121BB3021B844B
:101A9800EEF0A3EFF0A3ECF0A3EDF0A3EAF0EBA3D4
:041AA800F0121B001D
:101AAC00E4FEEE24B8121B7DE4121B7D7F50E41281
:0F1ABC001B3E121B641FEF70F50EEE640470E307
:011ACB0022F8
:10167A0090005CF012169290005D7402F090006285
:08168A007410F00490005CF004
:10169200E4F9FBEBC39402748094805072121B74C1
:1016A200900062E0FF900062E02410FDE433FCEF62
:1016B200F582758300C39DEC6480F8748098504C69
:1016C200C3E582943D748094805018121BB290003E
:1016D2005CE075F020A42436F582E5F03406121B96
:1016E20030801DEF24C3900055F0121B8490005CE3
:1016F200E075F020A42436F582E5F03406121B5280
:0F170200090FEFC3947A7480948040990BC195BE
:0117110022B5
:1017120090005CF012172AE490005DF074089000CB
:0817220062F0741190005CF00C
:10172A00E4F9FBEBC39402748094805072121B7428
:10173A00900062E0FF900062E02408FDE433FCEFD1
:10174A00F582758300C39DEC6480F8748098504CD0
:10175A00C3E582943D748094805018121BB29000A5
:10176A005CE075F010A42416F582E5F03405121B2E
:10177A0030801DEF24C3900055F0121B8490005C4A
:10178A00E075F010A42416F582E5F03405121B5218
:0F179A00090FEFC3947A7480948040990BE12D6E
:0117A900221D
:1015C000121B00121AAC90005D7402F0E4900062ED
:1015D000F0740912168E90005D7402F0900062742F
:1015E00010F090005C740AF012169290005D740284
:1015F000F09000627420F090005C740BF012169270
:1016000090005D7402F09000627430F090005C74A1
:101610000CF012169290005D7402F090006274401B
:10162000F090005C7402F0121692E490005DF0906D
:1016300000627407F090005C740DF0121692E49052
:10164000005DF09000627425F090005C740EF01262
:101650001692E490005DF09000627443F090005C9C
:10166000740FF0121692E490005DF09000627461C5
:0A167000F090005C7410F002169276
:10180000900068EEF0EF121AA790005D7402F0E409
:10181000900062F090005C740DF012169290005DE2
:101820007402F090005C7417F09000627410F01273
:10183000169290005D7402F09000627420F09000A7
:101840005C7418F0121692E490005DF090006274DF
:1018500030F0900068E0FEA3E0FFC3746A9FFFE4ED
:101860009EFE7C007D0A12042FEF121726E49000E2
:101870005DF09000627438F0900068E0FEA3E0FF35
:10188000C3746A9FFFE49EFE7C007D0A12042F90C1
:07189000005CEDF002172AD5
:1013F50090009A121A9890005D7402F0E4900062D1
:10140500F0740E12167A90005D7402F0900062740A
:1014150020F090005C7412F012169290005D740238
:10142500F09000627430F090005C7413F012169224
:10143500E490005DF0900062F0740A121712E490D7
:10144500005DF09000627410F090009AA3E012170E
:1014550026E490005DF09000627418F090009CA363
:10146500E0121726E490005DF09000627420F09081
:10147500009EA3E0121726E490005DF090006274D0
:101485003CF090005C740BF012172AE490005DF0BC
:101495007444121720E490005DF0900062744CF0E3
:1014A5009000A0A3E0121726E490005DF090006282
:1014B5007454F09000A2A3E0121726E490005DF0AA
:1014C500900062745CF090005C7403F09000A4A33B
:0814D500E090005CF002172A10
:100D540090001AE0FCA3E0FD90001EE0FAA3E0FB83
:100D6400900018E0FFA3E090006DCFF0A3EFF090A7
:100D7400001CE0FFA3E090006FCFF0A3EFF0900021
:100D840020E0FFA3E0900071CFF0A3EFF0900016F5
:050D9400E0FEA3E0FFFA
:100D9900900067121A9890005D7402F0E490006266
:100DA900F0740F12167A90005D7402F0900062746C
:100DB90020F090005C7414F012169290005D740299
:100DC900F09000627430F090005C7415F012169285
:100DD900E490005DF0900062F0740E121712E49036
:100DE900005DF09000627410F0900067A3E01217A4
:100DF90026E490005DF09000627418F0900069A3F9
:100E0900E0121726E490005DF09000627420F090E3
:100E1900006BA3E0121726E490005DF09000627465
:100E29003CF090005C740FF012172AE490005DF01A
:100E39009000627444121723E490005DF090006200
:100E4900744CF090006DA3E0121726E490005DF059
:100E59009000627454F090006FA3E0121726E4909A
:100E6900005DF0900062745CF090005C7403F09097
:0B0E79000071A3E090005CF002172A5B
:101897009000B0121A9890005D7402F0E490006214
:1018A700F090005C741012167D90005D7402F09049
:1018B70000627420F090005C7416F0121692E490A7
:1018C700005DF09000627420F090005C7410F012DC
:1018D700172AE490005DF09000627428121723E441
:1018E70090005DF0900062744CF09000B0A3E0129D
:1018F7001726E490005DF09000627454F09000B2F7
:10190700A3E0121726E490005DF0900062745CF08B
:0C1917009000B4A3E090005CF002172ADE
:101ACC00900014E0FEA3E0FF1218007F647E001269
:101ADC001B94900026E07002A3E06005120E848037
:101AEC00F11215C07FE87E03121B94900026E4F0DF
:041AFC00A304F0222D
:10095600120D547F647E00121B94121C1CEF4E7005
:1009660002A10A120F9F7E00EF540FFF900012EEB5
:10097600F0A3EFF0C374809480400ED3E094099006
:100986000012E064809480400E900012E07004A390
:10099600E0640B6002A10A900000E0FEA3E0FFEE17
:1009A6006002A10AEFB407004002A10A9009B82527
:1009B600E07321C64121417B41D56134619681EEC8
:1009C600900012E0FEA3E0FF900016EEF0A3EFF019
:1009D600900000E4F0A304F0C00790001AE0FCA326
:1009E600E0FD90001EE0FAA3E0FB900018E0FFA3F4
:1009F600E090006DCFF0A3EFF090001CE0FFA3E0C5
:100A060090006FCFF0A3EFF0900020E0FFA3E090FE
:100A16000071CFF0A3EFF0D0076191900012E0FED5
:100A2600A3E0FF90001AEEF0FCA3EFF0FD900000AB
:100A3600E4F0A37402F090001EE0FAA3E0FB90003D
:100A460018E0FFA3E090006DCFF0A3EFF090001C3C
:100A5600E0FFA3E090006FCFF0A3EFF0900020E05E
:100A6600FFA3E0900071CFF0A3EFF0900016E0FE38
:100A7600A3E0FF6191900012E0FEA3E0FF90001E4C
:100A8600EEF0FAA3EFF0FB900000E4F0A37403F09D
:100A960090001AE0FCA3E0FD900018E0FFA3E090B0
:100AA600006DCFF0A3EFF090001CE0FFA3E09000F4
:100AB6006FCFF0A3EFF0900020E0FFA3E09000716D
:100AC600CFF0A3EFF0900016E0FEA3E0FF61919057
:100AD6000012E0FFA3E0900018CFF0A3EFF0900023
:100AE60000E4F0A37404F090001AE0FCA3E0FD908B
:100AF600001EE0FAA3E0FB900018E0FFA3E09000E0
:100B06006DCFF0A3EFF090001CE0FFA3E090006F24
:100B1600CFF0A3EFF0900020E0FFA3E0900071CFAC
:100B2600F0A3EFF0900016E0FEA3E0FF805D9000DA
:100B360012E0FFA3E090001CCFF0A3EFF0900000BE
:100B4600E4F0A37405F090001AE0FCA3E0FD900029
:100B56001EE0FAA3E0FB900018E0FFA3E090006D12
:100B6600CFF0A3EFF090001CE0FFA3E090006FCF62
:100B7600F0A3EFF0900020E0FFA3E0900071CFF02B
:100B8600A3EFF0900016E0FEA3E0FF120D99A10A74
:100B9600900012E0FFA3E0900020CFF0A3EFF01248
:100BA6000D54900000E4F0A37406F090001AE0FCE7
:100BB600A3E0FDEC12027F7BCD7ACC79CC783D1296
:100BC60000FBC004C005C006C007900016E0FCA3E9
:100BD600E0FDEC12027FD003D002D001D00012005B
:100BE6000AC004C005C006C00790001EE0FCA3E0D2
:100BF600FDEC12027F7B0A7AD77923783C1200FB40
:100C0600D003D002D001D00012000A900040120496
:100C16008490001CE0FCA3E0FDEC12027F7BCD7A01
:100C2600CC79CC783D1200FBC004C005C006C007D5
:100C3600900018E0FCA3E0FDEC12027FD003D00286
:100C4600D001D00012000AC004C005C006C007903B
:100C56000020E0FCA3E0FDEC12027F7B0A7AD77944
:100C660023783C1200FBD003D002D001D000120042
:100C76000A900044120484900040E0FCA3E0FDA327
:100C8600E0FEA3E0FF90002812048490002C1204DA
:100C96009000000000900040E0FCA3E0FDA3E0FE11
:100CA600A3E0FF90003012048490003412049000F8
:100CB6000000009000381204900000000090003CF4
:100CC6001204900000000078677C007D017B017AA9
:100CD6000079287E007F20120409900087E4F0A3A3
:100CE6007414F0121000801C900012E07004A3E04F
:100CF600640B7010900002F0A304F0900000E4F082
:100D0600A37407F0900002E07004A3E0640160029F
:100D16002160900002F0A3F01215C07FF47E01124C
:100D26001B94E4900016F0A3F090001AF0A3F09044
:100D3600001EF0A3F0900018F0A3F090001CF0A3A2
:0E0D4600F0900020F0A3F0900000F0A3F02247
:101A2900907C037481F01215C07FE87E03121B9429
:101A390090000FE024FFF090000EE034FFF0C3E0C7
:101A49006480948050117438F0A37480F01215C02A
:101A59007F0A7E00121B94121C1CEF4E700A900024
:101A690012F0A37464F080C8120F9F7E00EF540F28
:101A7900FF900012EEF0A3EFF0EE70B4EF24F360E4
:0F1A89000924FE70AB121ACC80A612095680A158
:101C0C000C0804000D0905010E0A06020F0B070350
:101BC700EF1FAA0670011E4A60087D64ED60F11DD3
:021BD70080FA92
:011BD90022E9
:0F1C1C00907C02740FF0906002E0F4540FFF22EE
:100F9F007C047F80EFF4907C02F0EFC313FF90602E
:100FAF0002E0F4540FFE1CEC6003EE60E7EE6030DD
:100FBF00EC25E025E0FCEE30E1030C800FEE30E293
:100FCF00040C0C8007EE30E3030C0C0C7F0A7E0040
:100FDF00121BC7121C1CEF70F3EC901C0C93FF221A
:020FEF007FFF82
:010FF10022DD
:0717AA007F0A7E00121BC73D
:1017B1007F047E80EEF4907C02F0EEC313FE906015
:1017C10002E0F4540FFD1FEF6003ED60E7ED6023CD
:1017D100EF25E025E0FFED30E1030F800FED30E272
:1017E100040F0F8007ED30E3030F0F0FEF901C0C78
:0517F10093FF227FFFC1
:0117F60022D0
:0C14DD007D2B900014E0FAA3E0FB7F7868
:1014E900900099EFF0A90564787061E9B42B2E900A
:1014F9007C0074FFF0E49000B6F0A3F0C39000B74D
:10150900E09B9000B6E09A500F00A3E004F070EC65
:101519009000B6E004F080E4907C008067907C0045
:10152900740FF0E49000B6F0A3F0C39000B7E09B0D
:101539009000B6E09A500F00A3E004F070EC900020
:10154900B6E004F080E4E4907C00F022900099E099
:1015590064797062E9B42B30907C0174FFF0E490F7
:1015690000B6F0A3F0C39000B7E09B9000B6E09AF4
:10157900500F00A3E004F070EC9000B6E004F08096
:10158900E4907C0174F0F022907C01740FF0E490F7
:1015990000B6F0A3F0C39000B7E09B9000B6E09AC4
:1015A900500F00A3E004F070EC9000B6E004F08066
:0715B900E4E4907C01F02244
:100E8400E4900067F0121C1CEF7002E19E900026B3
:100E9400E07002A3E07002E19E1217B1EF540FFF5D
:100EA400B40D0050E0900EAF25E073E18FC1FFC197
:100EB400F1E10FC189C1C9C189C1D5E16CE11FC18B
:100EC400E3E12DE14C900014E0FAA3E0FB7D2B80DC
:100ED4000A900014E0FAA3E0FB7D2D7F78E14790AF
:100EE4000014E0FAA3E0FB7D2B7F79805690001478
:100EF400E0FAA3E0FB7D2D7F7980481214DD900099
:100F040014E0FAA3E0FB7D2D0F80387D2D1214DF51
:100F1400900014E0FAA3E0FB0F80281214DD900087
:100F240014E0FAA3E0FB0F801A900014E0FAA3E0A7
:100F3400FB7D2D7F781214E9900014E0FAA3E0FB06
:100F44007D2B0F1214E9C189900015E024FFF09065
:100F54000014E034FFF0E0FEA3E0FF1218001217C3
:100F6400AAEF640C60F8C189900015E004F07006E3
:100F7400900014E004F0900014E0FEA3E0FF1218C7
:100F8400001217AAEF640860F8C189E4900026F003
:0A0F9400A3F01217AAEF60FAC1895A
:010F9E002230
:10100000900083E0FCA3E0FDA3E0FEA3E0FF9000DE
:101010007FE0F8A3E0F9A3E0FAA3E0FB12000A7B6B
:10102000007A40799C78461200FB1202B890008941
:10103000120484900077E0F8A3E0F9A3E0FAA3E0BB
:10104000FB900067E0FCA3E0FDA3E0FEA3E0FF123D
:1010500000069000A812048490007BE0F8A3E0F959
:10106000A3E0FAA3E0FB90006BE0FCA3E0FDA3E0AB
:10107000FEA3E0FF1200069000AC1204849000670B
:10108000E0FCA3E0FDA3E0FEA3E0FF9000911204CA
:101090008490006BE0FCA3E0FDA3E0FEA3E0FF90E2
:1010A0000095120484900087E0FAA3E0FB7D2B7F7B
:1010B000791214E99000ACE0FCA3E0FDA3E0FEA3EC
:1010C000E0FF7B177AB77951783912000A9000ACAB
:1010D00061EFE4FFFEFDFC900089E0F8A3E0F9A3D6
:1010E000E0FAA3E0FBD3120473500261F49000AC69
:1010F000E0FCA3E0FDA3E0FEA3E0FFA804A905AA8D
:1011000006FB1200FB90007FE0F8A3E0F9A3E0FAF1
:10111000A3E0FB1200FB90007FE0F8A3E0F9A3E05E
:10112000FAA3E0FB1200FBC004C005C006C0079094
:1011300000A8E0FCA3E0FDA3E0FEA3E0FFA804A953
:1011400005AA06FB1200FB900083E0F8A3E0F9A3D8
:10115000E0FAA3E0FB1200FB900083E0F8A3E0F9C3
:10116000A3E0FAA3E0FB1200FBD003D002D001D031
:101170000012000AC004C005C006C00790007FE04E
:10118000FCA3E0FDA3E0FEA3E0FF90007FE0F8A356
:10119000E0F9A3E0FAA3E0FB1200FB900083E0F883
:1011A000A3E0F9A3E0FAA3E0FB1200FB900083E0C8
:1011B000F8A3E0F9A3E0FAA3E0FB1200FBA804A95E
:1011C00005AA06AB07D007D006D005D0041200064A
:1011D00090008D120484E4FFFEFDFC9000A8E0F86E
:1011E000A3E0F9A3E0FAA3E0FB1202014042E4FF0E
:1011F000FEFDFC9000ACE0F8A3E0F9A3E0FAA3E068
:10120000FB120201602A4028E4FFFEFDFC90008DE5
:10121000E0F8A3E0F9A3E0FAA3E0FB1202019000DA
:1012200087E0FAA3E0FB40047D2D80587D2B618987
:10123000E4FFFEFDFC9000A8E0F8A3E0F9A3E0FACB
:10124000A3E0FB1202015059E4FFFEFDFC9000AC4C
:10125000E0F8A3E0F9A3E0FAA3E0FB1202014041A9
:10126000E4FFFEFDFC90008DE0F8A3E0F9A3E0FAB6
:10127000A3E0FB120201900087E0FAA3E0FB7D2DC2
:10128000400261147F781214E99000A8E0FCA3E00A
:10129000FDA3E0FEA3E0FF7B177AB7795178B9612F
:1012A000C7E4FFFEFDFC9000A8E0F8A3E0F9A3E08E
:1012B000FAA3E0FB12020160025076E4FFFEFDFC9F
:1012C0009000ACE0F8A3E0F9A3E0FAA3E0FB12027F
:1012D00001505EE4FFFEFDFC90008DE0F8A3E0F914
:1012E000A3E0FAA3E0FB120201900087E0FAA3E07A
:1012F000FB401F7D2B7F781214E99000A8E0FCA32F
:10130000E0FDA3E0FEA3E0FF7B177AB779517839BF
:1013100061C77D2D7F791214E99000ACE0FCA3E059
:10132000FDA3E0FEA3E0FF7B177AB7795178B9807F
:1013300073E4FFFEFDFC9000A8E0F8A3E0F9A3E051
:10134000FAA3E0FB1202016002500261D0E4FFFE4A
:10135000FDFC9000ACE0F8A3E0F9A3E0FAA3E0FB09
:1013600012020160025069E4FFFEFDFC90008DE076
:10137000F8A3E0F9A3E0FAA3E0FB120201900087D2
:10138000E0FAA3E0FB7D2B40237F791214E9900063
:10139000ACE0FCA3E0FDA3E0FEA3E0FF7B177AB77F
:1013A0007951783912000A9000AC80217F781214AC
:1013B000E99000A8E0FCA3E0FDA3E0FEA3E0FF7B32
:1013C000177AB77951783912000A9000A81204846C
:1013D000900089E0FCA3E0FDA3E0FEA3E024FFFF72
:1013E000EE34FFFEED34FFFDEC34FFFC900089127B
:0413F000048401D29E
:0113F40022D6
:051A23004200A60000D6
:101B9400D3EF9400EE940040147D6E7C00ED1D7034
:0D1BA400011CED4C70F7EF1F70E61E80E392
:011BB1002211
:101BDA00D3EF9400EE9400400800EF1F70F21E80CD
:011BEA00EF0B
:011BEB0022D7
:0F1C2B00438902E4F58CF58AD2A9D28CD2AF227C
:0D0FF200438920E4F58DF58BC2ABD28E2231
:0717F700D288D2A8D2AF2274
:10000300020324E86480F8E933E83360110460F004
:10001300ED33EC337009E8FCE9FDEAFEEBFF220463
:1000230060DED3EB9FEA9EE99DE8C2E78CF0C2F75E
:1000330095F0400CE8CCF8E9CDF9EACEFAEBCFFB2A
:100043001202EF85D0F05804700320D5B3E8047092
:10005300075002B2D502032E92D5EC0460F7E4CC2C
:10006300C0E0C398F8603B94186008400DD0E0FBF3
:10007300020306E4FBFAC9FC8028E830E406E4C97D
:10008300FBE4CAFCE830E305E4C9CACBFCE8540747
:100093006010F8C3E913F9EA13FAEB13FBEC13FC52
:1000A300D8F130F52FC3E49CFCEF9BFFEE9AFEEDF5
:1000B30099FDD0E0FBEF4E4D4C701222DB0302039F
:1000C3002BEC2CFCEF33FFEE33FEED33FDED30E78D
:1000D300EB020306EF2BFFEE3AFEED39FDD0E0FB1A
:1000E30050130BBB000302032EED13FDEE13FEEFC3
:0800F30013FFEC13FC020306ED
:1000FB00EC4D6011E8497017ED33EC3304600DE4FF
:10010B00FCFFFEFD22E933E8330470F802032412EE
:10011B0002EF58046009E4CC2481500628500902F0
:10012B00032E28400302032BC0E0EB4A7044B98036
:10013B0006D0E0FB02031AEF4E701CBD8008EBFFEC
:10014B00EAFEE9FD80EBE98DF0A4FEE5F00201E4A7
:10015B00E9CDF9EAFEEBFFEF89F0A4FCE5F0CE89DF
:10016B00F0A42EFFE435F0CD89F0A42DFEE435F09C
:10017B008067EF4E7005BD80D780C3EF8BF0A4ACCA
:10018B00F0EE8BF0A42CFCE435F0F8EF8AF0A42C05
:10019B00E5F038FCE433CB8DF0A42CFCE5F03BF818
:1001AB00EE8AF0A42CFCE5F038F8E433CF89F0A408
:1001BB002CFCE5F038CF3400CE89F0A42FFFE5F00E
:1001CB003EFEE433C98DF0A42EFEE5F039CD8AF066
:1001DB00A42FFFE5F03EFEE43DFD33D0E0FB5007DE
:1001EB000BBB000F02032EEC2CFCEF33FFEE33FEA8
:0601FB00ED33FD020306D6
:1002010074F8CC6480CCC86480C8F58204604FC3A4
:10021100EB9FF5F0EA9E42F0E99D42F0E89C45F043
:10022100603C501DE5825FFFE582D313CB5BCBF4CD
:100231002B5582FB50280ABA002409B900200880F6
:100241001DE5825BFBE582D313CF5FCFF4C3132F90
:100251005582FF50090EBE00050DBD00010CC3EB18
:100261009FF5F0EA9E42F0E99D42F0E89C45F0607E
:0902710007CC4820E701B3EC22A0
:10027A0075F020800E75F010800575F0087D007EFF
:10028A00007F003392D530D503120465EC33401059
:10029A00EF33FFEE33FEED33FDEC33FCD5F0ED2208
:0E02AA00E5F0247EA2D513CC92E7CDCEFF2244
:1002B800EDD2E7CD33EC3392D524814006E4FFFE3E
:1002C800FDFC22FCE4CFCECDCC24E0501174FF809D
:1002D800EDC3CC13CCCD13CDCE13CECF13CF04703A
:0702E800F030D5DE020465D1
:1002EF00E9D2E7C933E833F892D5EDD2E7CD33EC55
:0702FF0033FC5002B2D522CE
:10030600EC30E7100FBF000C0EBE00080DBD000458
:100316000BEB6014A2D5EB13FCED92E7FD2274FF04
:10032600FCFDFEFF22E480F8A2D574FF13FC7D805D
:03033600E480EF71
:03000000021923BF
:0C192300787FE4F6D8FD75810702196A90
:10033900E709F608DFFA8046E709F208DFFA803EA6
:1003490088828C83E709F0A3DFFA8032E309F60893
:10035900DFFA8078E309F208DFFA807088828C83FB
:10036900E309F0A3DFFA806489828A83E0A3F608AF
:10037900DFFA805889828A83E0A3F208DFFA804C89
:1003890080D280FA80C680D4806980F28033801060
:1003990080A680EA809A80A880DA80E280CA8033C9
:1003A90089828A83ECFAE493A3C8C582C8CCC58341
:1003B900CCF0A3C8C582C8CCC583CCDFE9DEE78011
:1003C9000D89828A83E493A3F608DFF9ECFAA9F090
:1003D900EDFB2289828A83ECFAE0A3C8C582C8CCE6
:1003E900C583CCF0A3C8C582C8CCC583CCDFEADEFF
:1003F900E880DB89828A83E493A3F208DFF980CC61
:1004090088F0EF60010E4E60C388F0ED2402B40459
:100419000050B9F582EB2402B4040050AF23234500
:0604290082239003897399
:10042F00C2D5EC30E709B2D5E4C39DFDE49CFCEEE8
:10043F0030E715B2D5E4C39FFFE49EFE1204C1C39B
:10044F00E49DFDE49CFC80031204C130D507C3E496
:06045F009FFFE49EFE2257
:0E046500C3E49FFFE49EFEE49DFDE49CFC22A8
:10047300EB9FF5F0EA9E42F0E99D42F0E89C45F0DF
:010483002256
:0C048400ECF0A3EDF0A3EEF0A3EFF022EB
:10049000A8828583F0D083D0821204A71204A71209
:1004A00004A71204A7E473E493A3C583C5F0C5832E
:1004B000C8C582C8F0A3C583C5F0C583C8C582C8B6
:0104C0002219
:10192F00021A29E493A3F8E493A34003F68001F28B
:10193F0008DFF48029E493A3F85407240CC8C333B9
:10194F00C4540F4420C8834004F456800146F6DF88
:10195F00E4800B01020408102040809019AFE47E50
:10196F00019360BCA3FF543F30E509541FFEE4937D
:10197F00A360010ECF54C025E060A840B8E493A344
:10198F00FAE493A3F8E493A3C8C582C8CAC583CA6F
:10199F00F0A3C8C582C8CAC583CADFE9DEE780BE27
:011A280000BD
:1004C100BC000BBE0029EF8DF084FFADF022E4CC1F
:1004D100F875F008EF2FFFEE33FEEC33FCEE9DECE8
:1004E100984005FCEE9DFE0FD5F0E9E4CEFD22ED2E
:1004F100F8F5F0EE8420D21CFEADF075F008EF2F78
:10050100FFED33FD4007985006D5F0F222C398FD68
:050511000FD5F0EA2205
:00000001FF
