:100FFE0000E010080810E000000F102020100F0075
:10100E0000001010F8000000000020203F202000FB
:10101E00007008080808F000003028242221300053
:10102E0000300808088870000018202121221C00BA
:10103E000000804030F8000000060524243F2424E0
:10104E0000F88888880808000019202020110E005A
:10105E0000E0108888900000000F112020201F0053
:10106E0000180808886818000000003E0100000003
:10107E000070880808887000001C222121221C00A4
:10108E0000F008080810E0000001122222110F00E3
:10109E00081868808068180820302C03032C302034
:1010AE000838C800C83808000000203F20000000A3
:1010BE0000000000000000000030300000000000C2
:1010CE00000000C0C0000000000000303000000032
:1010DE00000080808000000000192424123F2000B0
:1010EE0010F0008080000000003F112020110E0043
:1010FE0008F8888888887000203F2000030C302074
:10110E000040404040404000000202020202020045
:10111E00404042CC00504EC8487FC848484000006E
:10112E000040201F20504C4340404F50505C400028
:10113E001010FF100082864A52A2524A868080000A
:10114E0042827F010010121212FF121212100000C2
:10115E001010FF1090E02F29E909E9292FE0000077
:10116E0042827F414425150D05FE0D15254544008F
:10117E00008060F80740300FF888888888080800DB
:10118E00010000FF00000000FF080808080800002A
:10119E00E0180402022111F9010102020418E00014
:1011AE00030C10202040404F40402020100C030024
:1011BE00E018040202110909897102020418E00004
:1011CE00030C1020204C4A4948482020100C0300E4
:1011DE00E0180402020989C9291902020418E00064
:1011EE00030C10202044484849462020100C0300D0
:1011FE00E018040202C13109C10102020418E00024
:10120E00030C1020234242424F422220100C0300B6
:10121E0002F20202F29292F29292F20202F20200B2
:10122E00007F40404F48484F48484F4040FF000025
:10123E00000404F49494949F949494F40404000091
:10124E004040407F4A4A4A4A4A4A4A7F404040000C
:10125E002030AC632018809090FF90494A4840009F
:10126E00226722121212404020130C142241F80061
:10127E00908887FC848480FE2222222222E20200B1
:10128E00806018070830007F4444444444474000BF
:10129E00808282FE8282FE8282802010088660001A
:1012AE008040300F0000FF000080844221100C00AF
:1012BE0000FE0282BAAAAAAAAAAABA8202FE000056
:1012CE0000FF404F605048464850604F40FF0000BE
:1012DE0000002424242424FC2222222322000000A5
:1012EE00020202020242827F020202020202020095
:1012FE004044C4444444401010FF101010F000004D
:10130E00103C131014B840300E014080403F0000D6
:10131E0000000000F84442424244F8000000000081
:10132E000000000003040808080403000000000089
:10133E00000000000000000000000000000000009F
:10134E000000363600000000000000000000000023
:101B400084220000000081362B813D739026000026
:101B500000000000000000000000000000009E47A0
:101B60000000000000000000000000000000000075
:101B700000000000000000000000000000008208DB
:101B80000000823A0000820000008202000082060B
:101B90003880822000018212000082160000821A22
:101BA00000008214000082180000821C0000820CD9
:101BB0000000820E0000821000008240000082427D
:0E1BC000000082440000821E000982380014DA
:041FC4007837EEF28A
:0F1FC800901DFFE020E7F97837E2901CFFF02230
:1007DD00F583E58229F582E43583F583E493783C4E
:0107ED00F219
:0F07EE00901DFFE020E7F9783CE2901EFFF0221B
:0F200C00901DFFE020E7F9901FFFE0783CF222E3
:0E1FA700783FE22F540344B87837F2121FC877
:0F1FB500903DFFE020E7F97837E2903CFFF02203
:101F6900F583E58229F582E43583F583E493783CAA
:011F7900F275
:0F1F7A00903DFFE020E7F9783CE2903EFFF02237
:0F201B00903DFFE020E7F9903FFFE0783CF22294
:101F3B00783774E2121FB1783774A4121FB1783757
:101F4B0074A9121FB1783774A0121FB1783774C0FF
:0E1F5B00121FB1783774AFF2121FC8021FB503
:101F0400EEF208EFF208ECF208EDF208EAF2EB0860
:041F1400F2121F3B6B
:101F1800E4FFEF24B8121FAFE4121FAF7E50E4783D
:101F28003CF21207EE121F7A1EEE70F20FEF6404F5
:021F380070E057
:011F3A002284
:101BD300783EF2121BE8783F7402F278467410F2F2
:051BE300783E7408F2D9
:101BE800E4F9FFEFC3940274809480506A121FA72F
:101BF8007846E2FE7846E22410FDE433FCEEFB7AF8
:101C080000C39DEC6480F87480985048C3EB943D01
:101C1800748094805017121FC4783EE275F020A497
:101C2800241EF582E5F034111207DD801BEE24C373
:101C38007837F2121FB5783EE275F020A4241EF51D
:101C480082E5F03411121F69090EC3EE947A74808C
:071C5800948040A00F61EB36
:011C5F002262
:051D750008E2783EF2D7
:101D7A00E4F9FFEFC3940274809480506A121FA79B
:101D8A007846E2FE7846E22408FDE433FCEEFB7A6C
:101D9A0000C39DEC6480F87480985048C3EB943D6E
:101DAA00748094805017121FC4783EE275F010A414
:101DBA0024FEF582E5F0340F1207DD801BEE24C302
:101DCA007837F2121FB5783EE275F010A424FEF5BA
:101DDA0082E5F0340F121F69090EC3EE947A7480FB
:071DEA00948040A00FA17DD1
:011DF10022CF
:101A9F00121F3B121F18783F7402F2E47846F27857
:101AAF003EF2121BE8783F7402F278467410F27817
:101ABF003E7401F2121BE8783F7402F278467420EC
:101ACF00F2783E7402F2121BE8783F7402F2784605
:101ADF007430F2783E7403F2121BE8783F7402F20E
:101AEF0078467440F2783E7411F2121BE8E4783FA6
:101AFF00F278467407F2783E7404F2121BE8E47829
:101B0F003FF278467425F2783E7405F2121BE8E432
:101B1F00783FF278467443F2783E7406F2121BE86F
:101B2F00E4783FF278467461F2783E7407F2021B54
:011B3F00E8BD
:101CEC007876EEF2EF121F13783F7402F2E4784626
:101CFC00F2783E7404F2121BE8783F7402F27846D4
:101D0C007410F2783E740EF2121BE8783F7402F2F3
:101D1C0078467420F2783E740FF2121BE8E4783F98
:101D2C00F278467430F27876E2FE08E2FFC3746A09
:101D3C009FFFE49EFE7C007D0A1204E1783EEFF2E8
:101D4C00121D7AE4783FF278467438F27876E2FE27
:101D5C0008E2FFC3746A9FFFE49EFE7C007D0A12BA
:091D6C0004E1783EEDF2021D7A5B
:1005B5007812E2FE08E2FF7816E2FC08E2FD781AFE
:1005C500E2FA08E2FB7814E2F58308E2F582787B2B
:1005D500E583F208E582F27818E2F58308E2F58210
:1005E500787DE583F208E582F2781CE2F58308E27E
:0B05F500F582787FE583F208E582F2D2
:100600007875121F04783F7402F2E47846F274059C
:10061000121BD3783F7402F278467420F2783E744D
:1006200009F2121BE8783F7402F278467430F278CF
:100630003E740AF2121BE8E4783FF27846F2783E04
:10064000740AF2121D7AE4783FF278467408F27860
:100650003E7411F2121D7AE4783FF278467410F27B
:100660007875121D75E4783FF278467418F2787741
:10067000121D75E4783FF278467420F27879121DE5
:1006800075E4783FF27846743CF2783E740BF212CF
:100690001D7AE4783FF278467444F2783E7411F2A1
:1006A000121D7AE4783FF27846744CF2787B121D82
:1006B00075E4783FF278467454F2787D121D75E443
:1006C000783FF27846745CF2783E7403F2787F08E3
:0706D000E2783EF2021D7A00
:101612007840E2F58308E2F582787BE583F208E51B
:1016220082F27842E2F58308E2F582787DE583F280
:1016320008E582F27844E2F58308E2F582787FE5F4
:0616420083F208E582F2CC
:101648007875121F04783F7402F2E47846F2740742
:10165800121BD3783F7402F278467420F2783E74F5
:101668000DF2121BE8E4783FF27846F2783E7410E7
:10167800F2121D7AE4783FF278467410F2783E044C
:10168800F2121D7AE4783FF278467418F2787512EF
:101698001D75E4783FF278467420F27877121D754C
:1016A800E4783FF278467428F27879121D75E47868
:1016B8003FF27846743CF2783E7410F2121BE8E46C
:1016C800783FF27846744CF2783E7411F2121D7A23
:1016D800E4783FF278467454F2787B121D75E4780A
:1016E8003FF27846745CF2787D121D75E4783FF21B
:0F16F80078467464F2787F08E2783EF2021D7A39
:1017CF00781EE2FE08E2FF121CEC7F647E00121FFF
:1017DF00897821E2700218E260051206D780F212B2
:1017EF001A9F7FE87E03121F897820E4F20804F223
:0117FF0022C7
:10135E001205B57F647E00121F8912202AEF4E708F
:10136E0002A1D1121E647E00EF540FFF780AEEF236
:10137E0008EFF2C374809480400CD3E2940918E213
:10138E0064809480400D780BE2640B700218E2606A
:10139E0002A1D17800E2FE08E2FFEE6002A1D1EFD9
:1013AE00B407004002A1D19013BB25E07361C9615F
:1013BE00E981138144817881AFA1B8780AE2FE08F1
:1013CE00E2FF640B4E7002A1D17812EEF2FE08EF2E
:1013DE00F2FF7800E4F20804F2807F780AE2FE0859
:1013EE00E2FF640B4E7002A1D17816EEF208EFF216
:1013FE00AC06AD077800E4F2087402F27812E2FE51
:10140E0008E2FF805C780AE2FE08E2FF640B4E7091
:10141E0002A1D1781AEEF208EFF2AA06AB07780015
:10142E00E4F2087403F27812E2FE08E2FF7816E2A4
:10143E00FC08E2FD8066780AE2FE08E2FF640B4ECD
:10144E007002A1D17814EEF208EFF27800E4F208FF
:10145E007404F27812E2FE08E2FF7816E2FC08E26B
:10146E00FD781AE2FA08E2FB8032780AE2FE08E220
:10147E00FF640B4E7002A1D17818EEF208EFF278ED
:10148E0000E4F2087405F27812E2FE08E2FF781624
:10149E00E2FC08E2FD781AE2FA08E2FB1205CAA1A4
:1014AE00D1780AE2FE08E2FF640B4E7002A1D178F9
:1014BE001CEEF208EFF21205B57800E4F20874069D
:1014CE00F27816E2FC08E2FDEC12031F7BCD7ACC1B
:1014DE0079CC783D1200FBC004C005C006C0077869
:1014EE0012E2FC08E2FDEC12031FD003D002D00181
:1014FE00D00012000AC004C005C006C007781AE268
:10150E00FC08E2FDEC12031F7B0A7AD77923783CA4
:10151E001200FBD003D002D001D00012000A782EA8
:10152E0012053B7818E2FC08E2FDEC12031F7BCD9E
:10153E007ACC79CC783D1200FBC004C005C006C041
:10154E00077814E2FC08E2FDEC12031FD003D00270
:10155E00D001D00012000AC004C005C006C0077832
:10156E001CE2FC08E2FDEC12031F7B0A7AD77923FA
:10157E00783C1200FBD003D002D001D00012000A3A
:10158E00783212053B78757C007DFE7BFE7A007901
:10159E00267E007F101204A9781EE2FF08E27885ED
:1015AE00CFF208EFF21208008019780BE2640B708C
:1015BE000218E2700E7802F20804F27800E4F208E3
:1015CE007407F27803E26401700218E26002616847
:1015DE007802F208F2121A9F7FF47E01121F89E43C
:1015EE007812F208F27816F208F2781AF208F27807
:1015FE0014F208F27818F208F2781CF208F2780069
:04160E00F208F222CA
:10180000780CE2FE08E2FF08E2FC08E2FD08E2FADA
:1018100008E2FB1216127F647E00121F8912202A32
:10182000EF4E7002216B121E647E00EF540FFF78A2
:101830000AEEF208EFF2C374809480500221561829
:10184000E2FE08E2FFD39409EE6480948040022116
:10185000567800E2FC08E2FDEC60022156ED1460CF
:101860002814604A1460701470022101147002215F
:101870002B240560022156780CEEF208EFF2780076
:10188000E4F20804F2780E806B780AE2FE08E2FFC8
:10189000780EEEF208EFF2AC06AD077800E4F2083D
:1018A0007402F2780CE2FE08E2FF7810804C780AAD
:1018B000E2FE08E2FF7810EEF208EFF2AA06AB07AC
:1018C0007800E4F2087403F2780CE2FE08E2FF0804
:1018D000E2FC08E2FD807C780AE2FF08E27840CF73
:1018E000F208EFF27800E4F2087404F2780CE2FEF9
:1018F00008E2FF08E2FC08E2FD08E2FA08E2FB80E9
:1019000052780AE2FF08E27842CFF208EFF278005C
:10191000E4F2087405F2780CE2FE08E2FF08E2FC4B
:1019200008E2FD08E2FA08E2FB8028780AE2FF08F4
:10193000E27844CFF208EFF27800E4F2087406F29D
:10194000780CE2FE08E2FF08E2FC08E2FD08E2FA99
:1019500008E2FB121612121E64EF640B4E700C129A
:101960001A9F7FF47E01121F89417A7801E2640692
:10197000700218E26002011D7800F208F27842E27B
:10198000FE08E2FF7C007D0A1204CFAA06AB0778AE
:1019900040E2FE08E2FF7D641204CFEF2BFFEE3A37
:1019A000FE7845E22F7964F318E23E19F3780EE2EF
:1019B000FC08E2FDEC12031F7BCD7ACC79CC783D9C
:1019C0001200FBC004C005C006C007780CE2FC088A
:1019D000E2FDEC12031FD003D002D001D0001200B0
:1019E0000AC004C005C006C0077810E2FC08E2FD8A
:1019F000EC12031F7B0A7AD77923783C1200FBD0C4
:101A000003D002D001D00012000A785F12053B78A3
:101A10005FE2FC08E2FD08E2FE08E2FF78471205FB
:101A20003B784B12054700000000785FE2FC08E2BB
:101A3000FD08E2FE08E2FF784F12053B78531205DD
:101A40004700000000785712054700000000785B4F
:101A50001205470000000078757C007DFE7BFE7A51
:101A60000079477E007F1E1204A97838E2FF08E261
:101A70007893CFF208EFF2120C75E4780CF208F2CA
:101A800008F208F208F208F27840F208F208F208C8
:0F1A9000F208F208F27800F208F208F208F222E7
:101DF200907C037481F0121A9F7FE87E03121F8980
:101E02007807E224FFF218E234FFF2C3E26480941E
:101E12008050117438F2087480F2121A9F7F0A7E81
:101E220000121F8912202AEF4E7009780AF20874F4
:101E320064F280CC121E647E00EF540FFF780AEE2B
:101E4200F208EFF2EE70B9EF24F4601124FE60089C
:101E52001470AD1217CF80A812135E80A31218005F
:021E6200809E60
:101FFC000C0804000D0905010E0A06020F0B07035D
:101FD700EF1FAA0670011E4A60087D64ED60F11DBF
:021FE70080FA7E
:011FE90022D5
:0F202A00907C02740FF0906002E0F4540FFF22DC
:101E64007C047F80EFF4907C02F0EFC313FF90605A
:101E740002E0F4540FFE1CEC6003EE60E7EE603009
:101E8400EC25E025E0FCEE30E1030C800FEE30E2BF
:101E9400040C0C8007EE30E3030C0C0C7F0A7E006C
:101EA400121FD712202AEF70F3EC901FFC93FF222D
:021EB4007FFFAE
:011EB6002209
:071EB7007F0A7E00121FD715
:101EBE007F047E80EEF4907C02F0EEC313FE906001
:101ECE0002E0F4540FFD1FEF6003ED60E7ED6023B9
:101EDE00EF25E025E0FFED30E1030F800FED30E25E
:101EEE00040F0F8007ED30E3030F0F0FEF901FFC71
:051EFE0093FF227FFFAD
:011F030022BB
:0B1707007D2B781EE2FA08E2FB7F78E1
:10171200789DEFF2A90564787055E9B42B28907C86
:101722000074FFF0E47869F208F2C3786AE29B1869
:10173200E29A500D0008E22401F218E23400F2802D
:10174200E9907C00805A907C00740FF0E47869F292
:1017520008F2C3786AE29B18E29A500D0008E2246C
:1017620001F218E23400F280E9E4907C00F0227881
:101772009DE264797056E9B42B2A907C0174FFF0E3
:10178200E47869F208F2C3786AE29B18E29A500D93
:101792000008E22401F218E23400F280E9907C01B0
:1017A20074F0F022907C01740FF0E47869F208F290
:1017B200C3786AE29B18E29A500D0008E22401F213
:0D17C20018E23400F280E9E4907C01F0228E
:1006D700E47875F212202AEF7002E1DC7821E270EB
:1006E7000218E27002E1DC121EBEEF540FFFB40DD8
:1006F7000050E190070025E073E1CEE14CE13FE1D6
:100707005BC1DBE11AC1DBE125E1B1E16AE132E17D
:1007170077E194781EE2FA08E2FB7D2B8009781EC8
:10072700E2FA08E2FB7D2D7F78805D781EE2FA0809
:10073700E2FB7D2B7F798050781EE2FA08E2FB7D91
:100747002D7F798043121707781EE2FA08E2FB7DB6
:100757002D0F80347D2D121709781EE2FA08E2FB6F
:100767000F8025121707781EE2FA08E2FB0F8018A0
:10077700781EE2FA08E2FB7D2D7F78121712781EA9
:10078700E2FA08E2FB7D2B0F121712C1DB781FE29A
:1007970024FFF218E234FFF2E2FE08E2FF121CEC3B
:1007A700121EB7EF640C60F8C1DB781FE22401F278
:1007B70018E23400F2E2FE08E2FF121CEC121EB748
:1007C700EF640860F8C1DBE47820F208F2121EB784
:0507D700EF60FAC1DB38
:0107DC0022FA
:100800007875E2FC08E2FD08E2FE08E2FF786D126E
:10081000053B7879E2FC08E2FD08E2FE08E2FF7899
:100820007112053B7879E2FB08E2F908E2FA08E286
:10083000CBF8C0007881E2FC08E2FD08E2FE08E2A5
:10084000FFD000120006120358122055C006C00740
:100850007875E2FB08E2F908E2FA08E2CBF8C0009A
:10086000787DE2FC08E2FD08E2FE08E2FFD000121B
:100870000006120358122055D0E02FFFD0E03EFEB4
:100880007887F208EFF27C137D881204CF7887EE28
:10089000F208EFF27879E2FB08E2F908E2FA08E2FE
:1008A000CBF8C0007881E2FC08E2FD08E2FE08E235
:1008B000FFD000120006C004C005C006C00778754E
:1008C000E2FB08E2F908E2FA08E2CBF8C000786D32
:1008D000E2FC08E2FD08E2FE08E2FFD0001200069A
:1008E000D003D002D001D0001200FBC004C005C06C
:1008F00006C0077875E2FB08E2F908E2FA08E2CBE5
:10090000F8C000787DE2FC08E2FD08E2FE08E2FFA4
:10091000D000120006C004C005C006C0077879E206
:10092000FB08E2F908E2FA08E2CBF8C0007871E2CD
:10093000FC08E2FD08E2FE08E2FFD000120006A873
:1009400004A905AA06AB07D007D006D005D004122B
:1009500000FBD003D002D001D000120006788B1229
:10096000053B7875E2FB08E2F908E2FA08E2CBF809
:10097000C000787DE2FC08E2FD08E2FE08E2FFD05C
:1009800000120006E4FBFAF9F81202A1788950057A
:10099000742BF28003742DF27879E2FB08E2F908F7
:1009A000E2FA08E2CBF8C0007881E2FC08E2FD0838
:1009B000E2FE08E2FFD000120006E4FBFAF9F812AA
:1009C00002A1788A5005742BF28003742DF2788886
:1009D000E2700218E2700281747879E2FB08E2F9B1
:1009E00008E2FA08E2CBF8C0007881E2FC08E2FDF8
:1009F00008E2FE08E2FFD000120006C004C005C0F5
:100A000006C0077875E2FB08E2F908E2FA08E2CBD3
:100A1000F8C000786DE2FC08E2FD08E2FE08E2FFA3
:100A2000D000120006D003D002D001D0001200FB8B
:100A3000C004C005C006C0077875E2FB08E2F908EB
:100A4000E2FA08E2CBF8C000787DE2FC08E2FD089B
:100A5000E2FE08E2FFD000120006C004C005C00696
:100A6000C0077879E2FB08E2F908E2FA08E2CBF87D
:100A7000C0007871E2FC08E2FD08E2FE08E2FFD067
:100A800000120006A804A905AA06AB07D007D006E5
:100A9000D005D0041200FBD003D002D001D0001248
:100AA0000006788B12053B7889E2642B706808E2B7
:100AB000642B7062FFFEFDFC08E2FB08E2F908E22D
:100AC000FA08E2CBF81202A17885E2FA08E2FB7D8F
:100AD0002B40217F78121712786DE2FC08E2FD08A6
:100AE000E2FE08E2FF7B177AB779D1783812000A64
:100AF000786D801F7F791217127871E2FC08E2FD91
:100B000008E2FE08E2FF7B177AB779D17838120045
:100B10000A787112053B7889E2642D706A08E264F4
:100B20002B7064FFFEFDFC08E2FB08E2F908E2FA24
:100B300008E2CBF81202A17885E2FA08E2FB402332
:100B40007D2D7F78121712786DE2FC08E2FD08E235
:100B5000FE08E2FF7B177AB779D178B812000A78DD
:100B60006D80217D2B7F791217127871E2FC08E2EB
:100B7000FD08E2FE08E2FF7B177AB779D1783812D8
:100B8000000A787112053B7889E2642D706808E2EA
:100B9000642D7062FFFEFDFC08E2FB08E2F908E24A
:100BA000FA08E2CBF81202A17885E2FA08E2FB7DAE
:100BB0002D40217F78121712786DE2FC08E2FD08C3
:100BC000E2FE08E2FF7B177AB779D178B812000A03
:100BD000786D801F7F791217127871E2FC08E2FDB0
:100BE00008E2FE08E2FF7B177AB779D178B81200E5
:100BF0000A787112053B7889E2642B706A08E26416
:100C00002D7064FFFEFDFC08E2FB08E2F908E2FA41
:100C100008E2CBF81202A17885E2FA08E2FB402351
:100C20007D2B7F78121712786DE2FC08E2FD08E256
:100C3000FE08E2FF7B177AB779D1783812000A787C
:100C40006D80217D2D7F791217127871E2FC08E208
:100C5000FD08E2FE08E2FF7B177AB779D178B81277
:100C6000000A787112053B7888E224FFF218E2341A
:040C7000FFF221CEA0
:010C7400225D
:100C75007891E2FC08E2FDEC12031FE4FBFA79B47B
:100C85007843120204C004C005C006C0077F007E79
:100C9500407D1C7C47788DE2FB08E2F908E2FA0802
:100CA500E2CBF81200FBD003D002D001D000120035
:100CB500FB120358789512053B7885E2FB08E2F9AB
:100CC50008E2FA08E2CBF8C0007875E2FC08E2FD1C
:100CD50008E2FE08E2FFD000120006786D12053B1F
:100CE5007889E2FB08E2F908E2FA08E2CBF8C000ED
:100CF5007879E2FC08E2FD08E2FE08E2FFD0001286
:100D05000006787112053B7893E2FA08E2FB7D2B29
:100D15007F791217127871E2FC08E2FD08E2FE08FD
:100D2500E2FF7B177AB77951783912000A78711288
:100D3500053BE4FFFEFDFC7895E2FB08E2F908E2DD
:100D4500FA08E2CBF8D31205255002E1FD7871E2ED
:100D5500FC08E2FD08E2FE08E2FFA804A905AA06D0
:100D6500FB1200FBC004C005C006C007786DE2FC9D
:100D750008E2FD08E2FE08E2FFA804A905AA06FBB1
:100D85001200FBD003D002D001D00012000AC0042B
:100D9500C005C006C007788DE2FC08E2FD08E2FE4A
:100DA50008E2FFA804A905AA06FB1200FBA804A9EE
:100DB50005AA06AB07D007D006D005D00412000659
:100DC500789912053BE4FFFEFDFC786DE2FB08E235
:100DD500F908E2FA08E2CBF81202A14041E4FFFE6D
:100DE500FDFC7871E2FB08E2F908E2FA08E2CBF8CB
:100DF5001202A160294027E4FFFEFDFC7899E2FB81
:100E050008E2F908E2FA08E2CBF81202A17893E2C7
:100E1500FA08E2FB40047D2D80577D2BE176E4FF47
:100E2500FEFDFC786DE2FB08E2F908E2FA08E2CB88
:100E3500F81202A15057E4FFFEFDFC7871E2FB08B1
:100E4500E2F908E2FA08E2CBF81202A1403FE4FF1A
:100E5500FEFDFC7899E2FB08E2F908E2FA08E2CB2C
:100E6500F81202A17893E2FA08E2FB7D2D4002E137
:100E7500037F78121712786DE2FC08E2FD08E2FEA6
:100E850008E2FF7B177AB7795178B9E1B1E4FFFE43
:100E9500FDFC786DE2FB08E2F908E2FA08E2CBF81E
:100EA5001202A160025073E4FFFEFDFC7871E2FBC3
:100EB50008E2F908E2FA08E2CBF81202A1505BE475
:100EC500FFFEFDFC7899E2FB08E2F908E2FA08E288
:100ED500CBF81202A17893E2FA08E2FB401E7D2BC3
:100EE5007F78121712786DE2FC08E2FD08E2FE0831
:100EF500E2FF7B177AB779517839E1B17D2D7F799A
:100F05001217127871E2FC08E2FD08E2FE08E2FF22
:100F15007B177AB7795178B98071E4FFFEFDFC78CB
:100F25006DE2FB08E2F908E2FA08E2CBF81202A149
:100F350060025002E1B9E4FFFEFDFC7871E2FB08B6
:100F4500E2F908E2FA08E2CBF81202A16002506465
:100F5500E4FFFEFDFC7899E2FB08E2F908E2FA08F5
:100F6500E2CBF81202A17893E2FA08E2FB7D2B406E
:100F7500217F791217127871E2FC08E2FD08E2FE82
:100F850008E2FF7B177AB77951783912000A787130
:100F9500801F7F78121712786DE2FC08E2FD08E2E7
:100FA500FE08E2FF7B177AB77951783912000A7883
:100FB5006D12053B7895E2FC08E2FD08E2FE08E2C9
:100FC500FFEF24FFFFEE34FFFEED34FFFDEC34FFB1
:100FD500FC789512053B12202AEF7002A137121EEC
:100FE500647E00EF540FFF640B6002A13778951201
:080FF5000547FFFFFFFFA137D4
:010FFD0022D1
:041BCE00826B000026
:101F8900D3EF9400EE940040147D6E7C00ED1D703B
:0D1F9900011CED4C70F7EF1F70E61E80E399
:011FA6002218
:101FEA00D3EF9400EE9400400800EF1F70F21E80B9
:011FFA00EFF7
:011FFB0022C3
:0F203900438902E4F58CF58AD2A9D28CD2AF226A
:0D204800438920E4F58DF58BC2ABD28E22CA
:07206100D288D2A8D2AF2201
:100003000203C4E86480F8E933E83360110460F064
:10001300ED33EC337009E8FCE9FDEAFEEBFF220463
:1000230060DED3EB9FEA9EE99DE8C2E78CF0C2F75E
:1000330095F0400CE8CCF8E9CDF9EACEFAEBCFFB2A
:1000430012038F85D0F05804700320D5B3E80470F1
:10005300075002B2D50203CE92D5EC0460F7E4CC8C
:10006300C0E0C398F8603B94186008400DD0E0FBF3
:100073000203A6E4FBFAC9FC8028E830E406E4C9DD
:10008300FBE4CAFCE830E305E4C9CACBFCE8540747
:100093006010F8C3E913F9EA13FAEB13FBEC13FC52
:1000A300D8F130F52FC3E49CFCEF9BFFEE9AFEEDF5
:1000B30099FDD0E0FBEF4E4D4C701222DB0302039F
:1000C300CBEC2CFCEF33FFEE33FEED33FDED30E7ED
:1000D300EB0203A6EF2BFFEE3AFEED39FDD0E0FB7A
:1000E30050130BBB00030203CEED13FDEE13FEEF23
:0800F30013FFEC13FC0203A64D
:1000FB00EC4D6011E8497017ED33EC3304600DE4FF
:10010B00FCFFFEFD22E933E8330470F80203C4124E
:10011B00038F58046009E4CC24815006285009024F
:10012B0003CE2840030203CBC0E0EB4A7044B980F6
:10013B0006D0E0FB0203BAEF4E701CBD8008EBFF4C
:10014B00EAFEE9FD80EBE98DF0A4FEE5F00201E4A7
:10015B00E9CDF9EAFEEBFFEF89F0A4FCE5F0CE89DF
:10016B00F0A42EFFE435F0CD89F0A42DFEE435F09C
:10017B008067EF4E7005BD80D780C3EF8BF0A4ACCA
:10018B00F0EE8BF0A42CFCE435F0F8EF8AF0A42C05
:10019B00E5F038FCE433CB8DF0A42CFCE5F03BF818
:1001AB00EE8AF0A42CFCE5F038F8E433CF89F0A408
:1001BB002CFCE5F038CF3400CE89F0A42FFFE5F00E
:1001CB003EFEE433C98DF0A42EFEE5F039CD8AF066
:1001DB00A42FFFE5F03EFEE43DFD33D0E0FB5007DE
:1001EB000BBB000F0203CEEC2CFCEF33FFEE33FE08
:0601FB00ED33FD0203A636
:100201000203CEEC5D046005E8590470030203C4E7
:1002110012038F580460F6EC4860F2EC7004FDFEA6
:10022100FF22C860DB2481C85009C39860025006D0
:100231000203CB9850CAF582E9294B4A7005AB827B
:100241000203BA75F0007C1A7880C3EF9BEE9AED39
:1002510099400DC3EF9BFFEE9AFEED99FDE842F048
:10026100DC23ACF0D0E0FFD0E0FED0E0FDAB82209B
:10027100E7101BEB60BAEC2CFCEF33FFEE33FEED25
:1002810033FD0203A6E803F830E705C0F075F0007E
:10029100EF2FFFEE33FEED33FD40B830E7C280AA09
:1002A10074F8CC6480CCC86480C8F58204604FC304
:1002B100EB9FF5F0EA9E42F0E99D42F0E89C45F0A3
:1002C100603C501DE5825FFFE582D313CB5BCBF42D
:1002D1002B5582FB50280ABA002409B90020088056
:1002E1001DE5825BFBE582D313CF5FCFF4C3132FF0
:1002F1005582FF50090EBE00050DBD00010CC3EB78
:100301009FF5F0EA9E42F0E99D42F0E89C45F060DD
:0903110007CC4820E701B3EC22FF
:10031A0075F020800E75F010800575F0087D007E5E
:10032A00007F003392D530D503120517EC33401005
:10033A00EF33FFEE33FEED33FDEC33FCD5F0ED2267
:0E034A00E5F0247EA2D513CC92E7CDCEFF22A3
:10035800EDD2E7CD33EC3392D524814006E4FFFE9D
:10036800FDFC22FCE4CFCECDCC24E0501174FF80FC
:10037800EDC3CC13CCCD13CDCE13CECF13CF047099
:07038800F030D5DE0205177D
:10038F00E9D2E7C933E833F892D5EDD2E7CD33ECB4
:07039F0033FC5002B2D5222D
:1003A600EC30E7100FBF000C0EBE00080DBD0004B8
:1003B6000BEB6014A2D5EB13FCED92E7FD2274FF64
:1003C600FCFDFEFF22E480F8A2D574FF13FC7D80BD
:0303D600E480EFD1
:03000000021C607F
:0C1C6000787FE4F6D8FD758107021CA710
:1003D900E709F608DFFA8046E709F208DFFA803E06
:1003E90088828C83E709F0A3DFFA8032E309F608F3
:1003F900DFFA8078E309F208DFFA807088828C835B
:10040900E309F0A3DFFA806489828A83E0A3F6080E
:10041900DFFA805889828A83E0A3F208DFFA804CE8
:1004290080D280FA80C680D4806980F280338010BF
:1004390080A680EA809A80A880DA80E280CA803328
:1004490089828A83ECFAE493A3C8C582C8CCC583A0
:10045900CCF0A3C8C582C8CCC583CCDFE9DEE78070
:100469000D89828A83E493A3F608DFF9ECFAA9F0EF
:10047900EDFB2289828A83ECFAE0A3C8C582C8CC45
:10048900C583CCF0A3C8C582C8CCC583CCDFEADE5E
:10049900E880DB89828A83E493A3F208DFF980CCC0
:1004A90088F0EF60010E4E60C388F0ED2402B404B9
:1004B9000050B9F582EB2402B4040050AF23234560
:0604C90082239004297358
:1004CF00EF8DF0A4A8F0CF8CF0A428CE8DF0A42E41
:0204DF00FE22FB
:1004E100C2D5EC30E709B2D5E4C39DFDE49CFCEE36
:1004F10030E715B2D5E4C39FFFE49EFE120560C349
:10050100E49DFDE49CFC800312056030D507C3E443
:060511009FFFE49EFE22A4
:0E051700C3E49FFFE49EFEE49DFDE49CFC22F5
:10052500EB9FF5F0EA9E42F0E99D42F0EC6480C84D
:0605350064809845F022ED
:0C053B00ECF208EDF208EEF208EFF222FC
:10054700D083D082E493F208740193F20874029383
:09055700F208740393F2740473BA
:0C205500EE30E707C3E49FFFE49EFE228C
:101C6C00021DF2E493A3F8E493A34003F68001F27F
:101C7C0008DFF48029E493A3F85407240CC8C33379
:101C8C00C4540F4420C8834004F456800146F6DF48
:101C9C00E4800B0102040810204080901B40E47E7D
:101CAC00019360BCA3FF543F30E509541FFEE4933D
:101CBC00A360010ECF54C025E060A840B8E493A304
:101CCC00FAE493A3F8E493A3C8C582C8CAC583CA2F
:101CDC00F0A3C8C582C8CAC583CADFE9DEE780BEE7
:011BD2000012
:10056000BC000BBE0029EF8DF084FFADF022E4CC7F
:10057000F875F008EF2FFFEE33FEEC33FCEE9DEC48
:10058000984005FCEE9DFE0FD5F0E9E4CEFD22ED8E
:10059000F8F5F0EE8420D21CFEADF075F008EF2FD8
:1005A000FFED33FD4007985006D5F0F222C398FDC9
:0505B0000FD5F0EA2266
:00000001FF
