:1000030000E010080810E000000F102020100F007F
:1000130000001010F8000000000020203F20200006
:10002300007008080808F00000302824222130005E
:1000330000300808088870000018202121221C00C5
:100043000000804030F8000000060524243F2424EB
:1000530000F88888880808000019202020110E0065
:1000630000E0108888900000000F112020201F005E
:1000730000180808886818000000003E010000000E
:100083000070880808887000001C222121221C00AF
:1000930000F008080810E0000001122222110F00EE
:1000A300081868808068180820302C03032C30203F
:1000B3000838C800C83808000000203F20000000AE
:1000C30000000000000000000030300000000000CD
:1000D300000000C0C000000000000030300000003D
:1000E3000000C038E0000000203C23020227382033
:1000F3008080008080008080010E300C073806016C
:1001030008F8888888887000203F2000030C30207E
:100113000040404040404000000202020202020050
:100123000000808080808000003324242424190070
:1001330000809898000000000020203F202000004D
:100143008080008080800000203F210000203F202D
:10015300008060F80740300FF88888888808080016
:10016300010000FF00000000FF0808080808000065
:10017300202024242424BF64243428242220200083
:1001830010080402FF494949494949FF000000009A
:10019300000000000000000000000000000000005C
:1001A30000003636000000000000000000000000E0
:1001B3000404E4041F0404F404041F04E40404001A
:1001C300007841414141417F4141414143F80000B1
:1001D30000083080FF0040404040FF404040400066
:1001E30004020100FF00004040407F404040000007
:1001F3000000F8888888880808FF08090AC80800EA
:1002030080601F0010201F80402116182641F8002F
:1002130080808080FF8080A090888482808080009E
:1002230000000000FF40211204081020204040007D
:10023300000000E0000000FF0000002040800000FC
:10024300080403000040807F0000000000010E004E
:1002530000FE0222DA06000000FF0000000000009A
:1002630000FF081088472018070007182040800067
:10027300404042CC00504EC8487FC8484840000028
:100283000040201F20504C4340404F50505C4000E2
:100293001010FF100082864A52A2524A86808000C4
:1002A30042827F010010121212FF1212121000007C
:1002B3001010FF1090E02F29E909E9292FE0000031
:1002C30042827F414425150D05FE0D152545440049
:1002D300008060F80740300FF88888888808080095
:1002E300010000FF00000000FF08080808080000E4
:1002F300E0180402022111F9010102020418E000CE
:10030300030C10202040404F40402020100C0300DD
:10031300E018040202110909897102020418E000BD
:10032300030C1020204C4A4948482020100C03009D
:10033300E0180402020989C9291902020418E0001D
:10034300030C10202044484849462020100C030089
:10035300E018040202C13109C10102020418E000DD
:10036300030C1020234242424F422220100C030070
:1003730002F20202F29292F29292F20202F202006C
:10038300007F40404F48484F48484F4040FF0000DF
:10039300000404F49494949F949494F4040400004B
:1003A3004040407F4A4A4A4A4A4A4A7F40404000C6
:1003B3002030AC632018809090FF90494A48400059
:1003C300226722121212404020130C142241F8001B
:1003D300908887FC848480FE2222222222E202006B
:1003E300806018070830007F444444444447400079
:1003F300808282FE8282FE828280201008866000D4
:100403008040300F0000FF000080844221100C0068
:1004130000FE0282BAAAAAAAAAAABA8202FE00000F
:1004230000FF404F605048464850604F40FF000077
:1004330000002424242424FC22222223220000005E
:10044300020202020242827F02020202020202004E
:100453004044C4444444401010FF101010F0000006
:10046300103C131014B840300E014080403F000090
:1004730000000000000000000000406070787C7EF7
:100483007E7C7870604000000000000000000000E7
:100493000080C0E0F0F8FC00000000000000000055
:1004A300000000000000000000FCF8F0E0C0800045
:1004B300000103070F1F3F000000000000000000C1
:1004C3000000000000000000003F1F0F07030100B1
:1004D3000000000000000000000002060E1E3E7E29
:1004E3007E3E1E0E06020000000000000000000019
:1004F300000000000000000000FF416171797D7F72
:100503007F7D79716141FF00000000000000000061
:100513000080C0E0F0F8FC000001010101010101CD
:10052300010101010101010000FCF8F0E0C08000BD
:10053300000103070F1F3F00000000000000000040
:100543000000000000000000003F1F0F0703010030
:100553000000000000000000000002060E1E3E7EA8
:100563007E3E1E0E06020000000000000000000098
:1005730000000000000000000000406070787C7EF6
:100583007E7C7870604000000000000000000000E6
:100593000080C0E0F0F8FC00000000000000000054
:1005A30000000000000000FE02FEFAF2E2C282FE3A
:1005B300000103070F1F3F000000000000000000C0
:1005C300000000000000007F407F5F4F4743417FF2
:1005D3000000000000000000000002060E1E3E7E28
:1005E3007E3E1E0E06020000000000000000000018
:1005F30000000000000000000000406070787C7E76
:100603007E7C787060400000000000000000000065
:100613000080C0E0F0F8FC000000000000000000D3
:10062300000000000000000000FCF8F0E0C08000C3
:10063300000103070F1F3F000080808080808080BF
:100643008080808080808000003F1F0F07030100AF
:10065300000000000000000000FF82868E9EBEFEA8
:10066300FEBE9E8E8682FF00000000000000000098
:1006730000000000000000000000406070787C7EF5
:100683007E7C7870604000000000000000000000E5
:10069300FE82C2E2F2FAFE02FE0000000000000049
:1006A300000000000000000000FCF8F0E0C0800043
:1006B3007F4143474F5F7F407F0000000000000001
:1006C3000000000000000000003F1F0F07030100AF
:1006D3000000000000000000000002060E1E3E7E27
:1006E3007E3E1E0E06020000000000000000000017
:1006F30000000000000080FCFEFCC040E0C00000E1
:1007030000000000800000804060E010F058F8F81E
:100713003000000000000000008060C00000000006
:10072300C0E000000000000000000000000E0E1EEC
:100733001F71FFFFFF1F070303010000000000FC00
:10074300FFF81EE3F279314EF9C3FFFF000000000A
:1007530000001018F8FFCFC760F8983C3F1B1F0F2D
:1007630080800000000000000000000000001F3F28
:100773003F0000000000000000000001030302022C
:100783000203030101030F07000000000000000043
:100793000303030000000103030303030303030034
:1007A3000000000000000080000080404020309CDA
:1007B300DEEC60000000000000000000000000808C
:1007C300E0E0000000000000000000002060E0E026
:1007D300E0B0F0706030383C1C0000000000000006
:1007E30000000100C1FFFE78F8FE37FBC4BEFEFE29
:1007F300080000000000181818DCFC7F3F67E7C3FF
:10080300838000000000303C101A0804B4FEFABADA
:100813009DC7C78783830000000000000000000617
:1008230007071010191D0E0705071F1F383000009A
:1008330000000202030100000000000103030000A6
:1008430000000000000E1B111110180F070000011B
:0808530001000000000000009C
:1022FC00811E2B812373821000008220000082003B
:10230C00000082080000820C3880821C0001820EC2
:10231C000000820200008204000082060000821489
:0E232C0000008216000082180000821A0006CF
:04248F00781FEEF2D2
:0F249300901DFFE020E7F9781FE2901CFFF02278
:10241400F583E58229F582E43583F583E493782214
:01242400F2C5
:0F242500901DFFE020E7F97822E2901EFFF022E1
:0F24C500901DFFE020E7F9901FFFE07822F22240
:0E2472007825E22F540344B8781FF212249309
:0F248000903DFFE020E7F9781FE2903CFFF0224B
:10243400F583E58229F582E43583F583E4937822F4
:01244400F2A5
:0F244500903DFFE020E7F97822E2903EFFF02281
:0F24D400903DFFE020E7F9903FFFE07822F222F1
:10237700781F74E212247C781F74A412247C781FBF
:1023870074A912247C781F74A012247C781F74C04F
:0E23970012247C781F74AFF21224930224806B
:0523A50008F21223778D
:1023AA00E4FFEF24B812247AE412247A7E50E47807
:1023BA0022F21224251224451EEE70F20FEF640455
:0223CA0070E0C1
:0123CC0022EE
:10214B00E4F9FFEFC3940374809480506A122472F5
:10215B007826E2FE7826E2243CFDE433FCEEFB7AA3
:10216B0000C39DEC6480F87480985048C3EB943D99
:10217B0074809480501712248F7824E275F0B4A4E5
:10218B0024F3F582E5F03406122414801BEE24C3ED
:10219B00781FF21224807824E275F0B4A424F3F5AE
:1021AB0082E5F03406122434090EC3EE947A74805F
:0721BB00948040A00F214EAB
:0121C20022FA
:1021C300E4F9FFEFC3940474809480506A1224727C
:1021D3007826E2FE7826E22420FDE433FCEEFB7A47
:1021E30000C39DEC6480F87480985048C3EB943D21
:1021F30074809480501712248F7824E275F080A4A1
:102203002473F582E5F03404122414801BEE24C3F6
:10221300781FF21224807824E275F080A42473F5E9
:1022230082E5F03404122434090EC3EE947A7480E8
:07223300948040A00F21C6BA
:01223A002281
:0620CD00F27824740DF20C
:1020D300E4F9FFEFC3940274809480506A1224726F
:1020E3007826E2FE7826E22410FDE433FCEEFB7A48
:1020F30000C39DEC6480F87480985048C3EB943D12
:1021030074809480501712248F7824E275F020A4F1
:102113002453F582E5F03401122414801BEE24C30A
:10212300781FF21224807824E275F020A42453F55A
:1021330082E5F03401122434090EC3EE947A7480DC
:07214300948040A00F01D6BB
:01214A002272
:07204E0008F278247411F27E
:10205500E4F9FFEFC3940274809480506A122472ED
:102065007826E2FE7826E22408FDE433FCEEFB7ACE
:1020750000C39DEC6480F87480985048C3EB943D90
:1020850074809480501712248F7824E275F010A480
:102095002403F582E5F03400122414801BEE24C3DA
:1020A500781FF21224807824E275F010A42403F539
:1020B50082E5F03400122434090EC3EE947A74805C
:0720C500948040A00F0158B8
:0120CC0022F1
:1023CD001223771223AA78257402F2E408F27824F6
:1023DD00F212214B78257402F208743AF2782474C3
:0523ED0001F202214B8A
:101F2E001223771223AA78257402F2E408F2782499
:101F3E007409F21220D378257402F2087410F27824
:101F4E0024740AF21220D378257402F2087420F257
:101F5E007824740BF21220D378257402F2087430B0
:101F6E00F27824740CF21220D378257402F20874DD
:101F7E0040F278247402F21220D3E47825F2087429
:101F8E00071220CDE47825F2087425F27824740E19
:101F9E00F21220D3E47825F2087443F27824740FF9
:101FAE00F21220D3E47825F2087461F278247410CA
:041FBE00F20220D338
:101D9700786FEEF208EFF208ECF2ED1223A5782542
:101DA7007402F2E4081220CD78257402F218741731
:101DB700F278267410F21220D378257402F2087490
:101DC70020F278247418F21220D3E47825F20874EC
:101DD70028F2786FE2FE08E2FFC3746A9FFFE49E71
:101DE700FE7C007D0A120C7E7824EFF2122055E467
:101DF7007825F2087430F2786FE2FE08E2FFC374C8
:101E07006A9FFFE49EFE7C007D0A120C7E7824ED1B
:101E1700F212205578257402F2087450F27871E2B4
:101E2700FE08E2FFEE7013EF24FE601024FD60133E
:101E370024FE601624FD6019240A801C782474038C
:101E4700F2801978247402F2801278247404F280E4
:0F1E57000B78247401F28004E47824F20221C392
:1019E2007802E2FE08E2FF08E2FC08E2FD08E2FA01
:1019F20008E2FB7814E2F58308E2F5827871E58368
:101A0200F208E582F27816E2F58308E2F58278734D
:101A1200E583F208E582F27818E2F58308E2F582BE
:091A22007875E583F208E582F213
:101A2B00786BEEF208EFF208ECF208EDF208EAF24E
:101A3B00EB1223A578257402F2E408F27824740FD4
:101A4B00F21220D378257402F2087410F278240471
:101A5B00F21220D378257402F2087420F2782474E1
:101A6B0012F212205578257402F2087428F27824A9
:101A7B007413F212205578257402F2087430F27840
:101A8B00247414F2122055E47825F208F2782474A9
:101A9B000EF2122055E47825F2740812204EE478E9
:101AAB0025F2087410F2786B08E27824F2122055B4
:101ABB00E47825F2087418F2786D08E27824F212B3
:101ACB002055E47825F2087420F2786F08E2782428
:101ADB00F2122055E47825F208743CF27824740F46
:101AEB00F2122055E47825F2744412204EE4782546
:101AFB00F208744CF2787108E27824F2122055E463
:101B0B007825F2087454F2787308E27824F21220E4
:101B1B0055E47825F208745CF278247403F2787536
:081B2B0008E27824F2022055C3
:10233F00781AE2FE08E2FF780EE2FC08E2FD121DB9
:10234F00977F647E00122454781DE2700218E260B9
:10235F000512180080F2121F2E7FE87E03122454FC
:08236F00781CE4F20804F222DC
:100D7A001219E27F647E001224541224E3EF4E70AB
:100D8A0002E1BB12179B7E00EF540FFF7812EEF2BE
:100D9A0008EFF2C374809480400CD3E2940918E2FD
:100DAA0064809480400D7813E2640B700218E2604C
:100DBA0002E1BB7800E2FE08E2FFEE6002E1BBEF6F
:100DCA00B407004002E1BB900DD725E073A1E5C14D
:100DDA0000C124C14CC174C1A0E1A27812E2FE088C
:100DEA00E2FF7802EEF2FE08EFF2FF7800E4F20882
:100DFA0004F2780480677812E2FE08E2FF7804EED3
:100E0A00F208EFF2AC06AD077800E4F2087402F2D9
:100E1A0008E2FE08E2FF780680497812E2FE08E25C
:100E2A00FF7806EEF208EFF2AA06AB077800E4F2C2
:100E3A00087403F208E2FE08E2FF08E2FC08E2FD99
:100E4A00804F7812E2FF08E208CFF208EFF278004A
:100E5A00E4F2087404F208E2FE08E2FF08E2FC0881
:100E6A00E2FD08E2FA08E2FB80277812E2FF08E2D4
:100E7A007816CFF208EFF27800E4F2087405F20867
:100E8A00E2FE08E2FF08E2FC08E2FD08E2FA08E2F4
:100E9A00FB1219F5E1BB7812E2FF08E27818CFF2EB
:100EAA0008EFF21219E27800E4F2087406F2780404
:100EBA00E2FC08E2FDEC120B777BCD7ACC79CC7898
:100ECA003D120953C004C005C006C0077802E2FCFF
:100EDA0008E2FDEC120B77D003D002D001D0001249
:100EEA000862C004C005C006C0077806E2FC08E232
:100EFA00FDEC120B777B0A7AD77923783C120953D7
:100F0A00D003D002D001D000120862C004C005C0CC
:100F1A0006C0077816E2FC08E2FDEC120B777BCDDF
:100F2A007ACC79CC783D120953C004C005C006C0FA
:100F3A00077814E2FC08E2FDEC120B77D003D0022A
:100F4A00D001D000120862C004C005C006C00778EC
:100F5A0018E2FC08E2FDEC120B777B0A7AD77923B8
:100F6A00783C120953D003D002D001D00012086293
:100F7A00786F120D007873120D0C00000000781AB9
:100F8A00E2FF08E27877CFF208EFF2D007D006D076
:100F9A0005D00412100080197813E2640B7002184D
:100FAA00E2700E7808F20804F27800E4F208740796
:100FBA00F27809E26401700218E26002A1847808FA
:100FCA00F208F2121F2E7FF47E01122454E47802F2
:100FDA00F208F208F208F208F208F27814F208F2BB
:0E0FEA0008F208F208F208F27800F208F2228B
:10223B00907C037481F01223CD7FE87E031224542B
:10224B00121F2E7FE87E03122454780DE224FFF236
:10225B0018E234FFF2C3E26480948050117438F2B8
:10226B00087480F2121F2E7F0A7E0012245412244F
:10227B00E3EF4E70097812F2087464F280CC1217F7
:10228B009B7E00EF540FFF7812EEF208EFF2EE7028
:10229B00B9EF24F3600924FE70B012233F80AB1218
:0422AB000D7A80A682
:1024B5000C0804000D0905010E0A06020F0B07039F
:1024A200EF1FAA0670011E4A60087D64ED60F11DEF
:0224B20080FAAE
:0124B4002205
:0F24E300907C02740FF0906002E0F4540FFF221F
:10179B007C047F80EFF4907C02F0EFC313FF90602A
:1017AB0002E0F4540FFE1CEC6003EE60E7EE6030D9
:1017BB00EC25E025E0FCEE30E1030C800FEE30E28F
:1017CB00040C0C8007EE30E3030C0C0C7F0A7E003C
:1017DB001224A21224E3EF70F3EC9024B593FF22B2
:0217EB007FFF7E
:0117ED0022D9
:0722AF007F0A7E001224A249
:1022B6007F047E80EEF4907C02F0EEC313FE906005
:1022C60002E0F4540FFD1FEF6003ED60E7ED6023BD
:1022D600EF25E025E0FFED30E1030F800FED30E262
:1022E600040F0F8007ED30E3030F0F0FEF9024B5B7
:0522F60093FF227FFFB1
:0122FB0022C0
:0B1E66007D2B781AE2FA08E2FB7F787F
:101E71007881EFF2A90564787055E9B42B28907C3C
:101E81000074FFF0E4785FF208F2C37860E29B1817
:101E9100E29A500D0008E22401F218E23400F280C7
:101EA100E9907C00805A907C00740FF0E4785FF236
:101EB10008F2C37860E29B18E29A500D0008E22410
:101EC10001F218E23400F280E9E4907C00F022781B
:101ED10081E264797056E9B42B2A907C0174FFF099
:101EE100E4785FF208F2C37860E29B18E29A500D41
:101EF1000008E22401F218E23400F280E9907C014A
:101F010074F0F022907C01740FF0E4785FF208F233
:101F1100C37860E29B18E29A500D0008E22401F2B6
:0D1F210018E23400F280E9E4907C01F02227
:10180000E4786CF20804F20874F4F21224E3EF7046
:101810000221E1781DE2700218E2700221E1122239
:10182000B6EF540F786BF2B40D0050DF90183225EC
:10183000E07321D301C801A301EF010B014C010B9F
:10184000016421B0211F017E2144218D121E667882
:101850006EE224FFF218E234FFF2C3E26480948067
:1018600050A921747D2D121E68786EE224FFF218B3
:10187000E234FFF2C3E264809480508F2174781ABE
:10188000E2FA08E2FB7D2B7F79121E71786EE2246A
:10189000FFF218E234FFF2C3E26480948040020158
:1018A0000B2174781AE2FA08E2FB7D2D7F79121E73
:1018B00071786EE224FFF218E234FFF2C3E2648032
:1018C00094804002010B2174121E66781AE2FA0815
:1018D000E2FB7D2D0F121E71786EE224FFF218E2FA
:1018E00034FFF2C3E2648094804002010B217478DB
:1018F0001AE2FA08E2FB7D2D7F78121E71781AE257
:10190000FA08E2FB0F121E71786EE224FFF218E271
:1019100034FFF2C3E2648094804002010B805512D0
:101920001E66781AE2FA08E2FB0F121E71786EE268
:1019300024FFF218E234FFF2C3E264809480400294
:10194000010B8030781AE2FA08E2FB7D2D7F7812D5
:101950001E71781AE2FA08E2FB7D2B0F121E7178D5
:101960006EE224FFF218E234FFF2C3E26480948056
:101970004002010B7401F20874F4F2781AE2FE08D6
:10198000E2FF786BE2FD7C00121D97010B781BE2F1
:1019900024FFF218E234FFF2E2FE08E2FF786BE285
:1019A000FD7C00121D971222AFEF640C60F8010B52
:1019B000781BE22401F218E23400F2E2FE08E2FFB2
:1019C000786BE2FD7C00121D971222AFEF64086075
:1019D000F8010BE4781CF208F21222AFEF60FA0172
:0119E0000BFB
:0119E10022E3
:05100000786B120D00E9
:10100500786FE2FB08E2F908E2FA08E2CBF87FDA4A
:101015007E0F7D497C40120A5CC004C005C006C035
:1010250007E4FFFEFD7C40786BE2FB08E2F908E28D
:10103500FA08E2CBF8120953D003D002D001D00050
:101045001208627B007A40791C7846120953120B0C
:10105500B07879120D007863120D0C00000000784D
:1010650063E2FC08E2FD08E2FE08E2FF786FE2FBBE
:1010750008E2F908E2FA08E2CBF81209537873E2BC
:10108500FB08E2F908E2FA08E2CBF8120862121648
:1010950099786BE2FB08E2F908E2FA08E2CBF8126C
:1010A50009537867120D007877E2FA08E2FB7D2B89
:1010B5007F79121E717867E2FC08E2FD08E2FE08FE
:1010C500E2FF7B177AB77951783912086278676140
:1010D50076E4FFFEFDFC7879E2FB08E2F908E2FA26
:1010E50008E2CBF8D3120CC25002617B7863E2FCB4
:1010F50008E2FD08E2FE08E2FF786FE2FB08E2F98C
:1011050008E2FA08E2CBF81209537873E2FB08E229
:10111500F908E2FA08E2CBF8120862121699786B20
:10112500E2FB08E2F908E2FA08E2CBF8120953C03B
:1011350004A905AA06AB077867E2FC08E2FD08E208
:10114500FE08E2FFD00012085E787D120D00E4FF74
:10115500FEFD7C40786FE2FB08E2F908E2FA08E25E
:10116500CBF8120953A804A905AA06AB077FDA7EB6
:101175000F7D497C40120A5C7863E2FB08E2F908BE
:10118500E2FA08E2CBF8120AF960025025E4FFFE04
:10119500FDFC787DE2FB08E2F908E2FA08E2CBF80B
:1011A500120AF97877E2FA08E2FB7D2B4002611614
:1011B5006137E4FFFEFD7C40786FE2FB08E2F90849
:1011C500E2FA08E2CBF8120953A804A905AA06AB6E
:1011D500077FDA7E0F7D497C40120A5CE4FBFAF951
:1011E50078401209537863E2FB08E2F908E2FA084D
:1011F500E2CBF8120AF960025023E4FFFEFDFC7809
:101205007DE2FB08E2F908E2FA08E2CBF8120AF9F6
:101215007877E2FA08E2FB4002806A41A8E4FFFE23
:10122500FD7C40786FE2FB08E2F908E2FA08E2CBC0
:10123500F8120953A804A905AA06AB077FDA7E0FA1
:101245007D497C40120A5CE4FBFA7940784012093A
:10125500537863E2FB08E2F908E2FA08E2CBF812F8
:101265000AF960025041E4FFFEFDFC787DE2FB08CF
:10127500E2F908E2FA08E2CBF8120AF97877E2FA1D
:1012850008E2FB401E7D2D7F79121E717867E2FC16
:1012950008E2FD08E2FE08E2FF7B177AB77951788C
:1012A500B961517D2B806AE4FFFEFD7C40786FE2D9
:1012B500FB08E2F908E2FA08E2CBF8120953A804A0
:1012C500A905AA06AB077FDA7E0F7D497C40120A85
:1012D5005CE4FBFA798078401209537863E2FB08F5
:1012E500E2F908E2FA08E2CBF8120AF96002506462
:1012F500E4FFFEFDFC787DE2FB08E2F908E2FA086E
:10130500E2CBF8120AF97877E2FA08E2FB7D2B4086
:10131500217F78121E717863E2FC08E2FD08E2FE87
:1013250008E2FF7B177AB77951783912086278633A
:10133500801F7F79121E717867E2FC08E2FD08E2E2
:10134500FE08E2FF7B177AB779517839120862787F
:1013550067120D007879E2FC08E2FD08E2FE08E27A
:1013650024FFFFEE34FFFEED34FFFDEC34FFFC7887
:0613750079120D0001D603
:01137B00224F
:05137C007827120D00AE
:10138100782BE2FB08E2F908E2FA08E2CBF87FDA0F
:101391007E0F7D497C40120A5CC004C005C006C0B6
:1013A10007E4FFFEFD7C407827E2FB08E2F908E252
:1013B100FA08E2CBF8120953D003D002D001D000D1
:1013C1001208627B007A40791C7846120953120B8D
:1013D100B07835120D007863120D0C000000007812
:1013E10063E2FC08E2FD08E2FE08E2FF782BE2FB83
:1013F10008E2F908E2FA08E2CBF8120953782FE281
:10140100FB08E2F908E2FA08E2CBF81208621216C8
:10141100997827E2FB08E2F908E2FA08E2CBF81230
:1014210009537867120D007833E2FA08E2FB7D2B4D
:101431007F79121E717867E2FC08E2FD08E2FE087E
:10144100E2FF7B177AB7795178391208627867C160
:1014510035E4FFFEFDFC7835E2FB08E2F908E2FA2B
:1014610008E2CBF8D3120CC25002C13A7863E2FC15
:1014710008E2FD08E2FE08E2FF782BE2FB08E2F950
:1014810008E2FA08E2CBF8120953782FE2FB08E2EE
:10149100F908E2FA08E2CBF81208621216997827E5
:1014A100E2FB08E2F908E2FA08E2CBF8120953C0BC
:1014B10004A905AA06AB077867E2FC08E2FD08E289
:1014C100FE08E2FFD00012085E7839120D00786341
:1014D100E2FC08E2FD08E2FE08E2FF782BE2FB08ED
:1014E100E2F908E2FA08E2CBF8120953782FE2FB9D
:1014F10008E2F908E2FA08E2CBF812086212168350
:10150100E4FBFAF9F8120AF9503FE4FFFEFDFC781A
:1015110039E2FB08E2F908E2FA08E2CBF8120AF92B
:101521007833E2FA08E2FB7D2B4002A1CC7F7912ED
:101531001E717867E2FC08E2FD08E2FE08E2FF7B2B
:10154100177AB77951783980797863E2FC08E2FD3E
:1015510008E2FE08E2FF782BE2FB08E2F908E2FA72
:1015610008E2CBF8120953782FE2FB08E2F908E20E
:10157100FA08E2CBF8120862121683E4FBFAF9F8D2
:10158100120AF960674065E4FFFEFDFC7839E2FB71
:1015910008E2F908E2FA08E2CBF8120AF97833E234
:1015A100FA08E2FB40237D2D7F79121E717867E2F4
:1015B100FC08E2FD08E2FE08E2FF7B177AB77951E9
:1015C10078B91208627867804B7D2B7F78121E7183
:1015D1007863E2FC08E2FD08E2FE08E2FF7B177A8D
:1015E100B779517839120862786380287833E2FA42
:1015F10008E2FB7D2B7F78121E717863E2FC08E222
:10160100FD08E2FE08E2FF7B177AB77951783912BB
:1016110008627863120D007835E2FC08E2FD08E209
:10162100FE08E224FFFFEE34FFFEED34FFFDEC3453
:09163100FFFC7835120D00815216
:01163A00228D
:0D23F2007841E2FC08E2FD08E2FE08E2FF8F
:0523FF00783D120D0005
:10240400783DE2FC08E2FD08E2FE08E2FF021699CC
:0D1C78007863E2FC08E2FD08E2FE08E2FFEE
:051C85007841120D0082
:101C8A007845120D0C3C23D70A7845E2FC08E2FDA0
:101C9A0008E2FE08E2FF7841E2FB08E2F908E2FA0C
:101CAA0008E2CBF81208621223FFC004C005C0067E
:101CBA00C0071223F2D003D002D001D00012085E6E
:101CCA007845E2FB08E2F908E2FA08E2CBF8120AE0
:101CDA005C7849120D007845E2FC08E2FD08E2FE54
:101CEA0008E2FFE4FBFAF9783F1209537845120D2E
:101CFA00007845E2FC08E2FD08E2FE08E2FF7841CE
:101D0A00E2FB08E2F908E2FA08E2CBF812086212EA
:101D1A0023FFC004C005C006C0071223F2D003D0B7
:101D2A0002D001D00012085E7845E2FB08E2F90809
:101D3A00E2FA08E2CBF8120A5C784D120D00784DEF
:101D4A00E2FB08E2F908E2FA08E2CBF8C0007849B7
:101D5A00E2FC08E2FD08E2FE08E2FFD00012085E9B
:101D6A00120BB012250EAC06AD07EC120B777BBD39
:101D7A007A3779867835120AF960025002819378A7
:0C1D8A004DE2FC08E2FD08E2FE08E2FF6A
:011D9600222A
:101B33007863120D0078631223F481237855E2FC55
:101B430008E2FD08E2FE08E2FF7863E2FB08E2F93F
:101B530008E2FA08E2CBF8120AF96004400281773E
:101B630078631223F4C004A905AA06AB077867E2D9
:101B7300FC08E2FD08E2FE08E2FFD00012085E78EE
:101B83005B120D00121C78E4FBFAF9F8120AF95003
:101B930042E4FFFEFDFC785BE2FB08E2F908E2FAAF
:101BA30008E2CBF8120AF97859E2FA08E2FB7D2B36
:101BB300400280727F79121E717867E2FC08E2FDB1
:101BC30008E2FE08E2FF7B177AB7795178391208E9
:101BD30062804D121C78E4FBFAF9F8120AF9606787
:101BE3004065E4FFFEFDFC785BE2FB08E2F908E2F6
:101BF300FA08E2CBF8120AF97859E2FA08E2FB4054
:101C0300237D2D7F79121E717867E2FC08E2FD08BF
:101C1300E2FE08E2FF7B177AB7795178B9120862BE
:101C23007867804B7D2B7F78121E717863E2FC0806
:101C3300E2FD08E2FE08E2FF7B177AB779517839B3
:101C4300120862786380287859E2FA08E2FB7D2B58
:101C53007F78121E717863E2FC08E2FD08E2FE0859
:101C6300E2FF7B177AB779517839120862786312E9
:041C73000D00613FC0
:011C7700224A
:04233A0082610000BC
:10245400D3EF9400EE940040147D6E7C00ED1D706B
:0D246400011CED4C70F7EF1F70E61E80E3C9
:012471002248
:1017EE00D3EF9400EE9400400800EF1F70F21E80BD
:0117FE00EFFB
:0117FF0022C7
:0F24F200438902E4F58CF58AD2A9D28CD2AF22AD
:0D250100438920E4F58DF58BC2ABD28E220C
:070FF800D288D2A8D2AF227B
:10085B00020C1CE86480F8E933E83360110460F0A3
:10086B00ED33EC337009E8FCE9FDEAFEEBFF220403
:10087B0060DED3EB9FEA9EE99DE8C2E78CF0C2F7FE
:10088B0095F0400CE8CCF8E9CDF9EACEFAEBCFFBCA
:10089B00120BE785D0F05804700320D5B3E8047031
:1008AB00075002B2D5020C2692D5EC0460F7E4CCCB
:1008BB00C0E0C398F8603B94186008400DD0E0FB93
:1008CB00020BFEE4FBFAC9FC8028E830E406E4C91D
:1008DB00FBE4CAFCE830E305E4C9CACBFCE85407E7
:1008EB006010F8C3E913F9EA13FAEB13FBEC13FCF2
:1008FB00D8F130F52FC3E49CFCEF9BFFEE9AFEED95
:10090B0099FDD0E0FBEF4E4D4C701222DB03020C35
:10091B0023EC2CFCEF33FFEE33FEED33FDED30E734
:10092B00EB020BFEEF2BFFEE3AFEED39FDD0E0FBB9
:10093B0050130BBB0003020C26ED13FDEE13FEEF61
:08094B0013FFEC13FC020BFE8C
:10095300EC4D6011E8497017ED33EC3304600DE49E
:10096300FCFFFEFD22E933E8330470F8020C1C128D
:100973000BE758046009E4CC24815006285009028F
:100983000C26284003020C23C0E0EB4A7044B980D4
:1009930006D0E0FB020C12EF4E701CBD8008EBFF8B
:1009A300EAFEE9FD80EBE98DF0A4FEE5F0020A3CE6
:1009B300E9CDF9EAFEEBFFEF89F0A4FCE5F0CE897F
:1009C300F0A42EFFE435F0CD89F0A42DFEE435F03C
:1009D3008067EF4E7005BD80D780C3EF8BF0A4AC6A
:1009E300F0EE8BF0A42CFCE435F0F8EF8AF0A42CA5
:1009F300E5F038FCE433CB8DF0A42CFCE5F03BF8B8
:100A0300EE8AF0A42CFCE5F038F8E433CF89F0A4A7
:100A13002CFCE5F038CF3400CE89F0A42FFFE5F0AD
:100A23003EFEE433C98DF0A42EFEE5F039CD8AF005
:100A3300A42FFFE5F03EFEE43DFD33D0E0FB50077D
:100A43000BBB000F020C26EC2CFCEF33FFEE33FE46
:060A5300ED33FD020BFE75
:100A5900020C26EC5D046005E859047003020C1CC5
:100A6900120BE7580460F6EC4860F2EC7004FDFEE6
:100A7900FF22C860DB2481C85009C3986002500670
:100A8900020C239850CAF582E9294B4A7005AB82BA
:100A9900020C1275F0007C1A7880C3EF9BEE9AED78
:100AA90099400DC3EF9BFFEE9AFEED99FDE842F0E8
:100AB900DC23ACF0D0E0FFD0E0FED0E0FDAB82203B
:100AC900E7101BEB60BAEC2CFCEF33FFEE33FEEDC5
:100AD90033FD020BFEE803F830E705C0F075F000BE
:100AE900EF2FFFEE33FEED33FD40B830E7C280AAA9
:100AF90074F8CC6480CCC86480C8F58204604FC3A4
:100B0900EB9FF5F0EA9E42F0E99D42F0E89C45F042
:100B1900603C501DE5825FFFE582D313CB5BCBF4CC
:100B29002B5582FB50280ABA002409B900200880F5
:100B39001DE5825BFBE582D313CF5FCFF4C3132F8F
:100B49005582FF50090EBE00050DBD00010CC3EB17
:100B59009FF5F0EA9E42F0E99D42F0E89C45F0607D
:090B690007CC4820E701B3EC229F
:100B720075F020800E75F010800575F0087D007EFE
:100B8200007F003392D530D503120CB4EC33401001
:100B9200EF33FFEE33FEED33FDEC33FCD5F0ED2207
:0E0BA200E5F0247EA2D513CC92E7CDCEFF2243
:100BB000EDD2E7CD33EC3392D524814006E4FFFE3D
:100BC000FDFC22FCE4CFCECDCC24E0501174FF809C
:100BD000EDC3CC13CCCD13CDCE13CECF13CF047039
:070BE000F030D5DE020CB479
:10163B003A70FA83BCAAE9E43E81E0F8BF9DE9E683
:10164B003F80000039283C1ABB9969663DA335E3FE
:10165B00BF255DE73FC90FDB418DDBCCC44936EEBF
:10166B0045C9913FC5B0F83D3F800000C317F53425
:10167B00452FFA73C60AFDDD12171C04A2E1920076
:10168B001420E01590163B7404120C3180201217B5
:10169B001C30E102B20020E0EB7881120D009016B5
:1016AB004F7404120C317881120CE3120953ED4C78
:1016BB006007300004EC6480FC2212171CC0E07839
:1016CB0081120D009016737403120C317881120C79
:1016DB00E31209537881E2CCF208E2CDF208E2CEB4
:1016EB00F208E2CFF29016637403120C31D08278B9
:1016FB0081120CE3E58230E007120A5CB20080AE87
:10170B00EFCBFFEECAFEEDC9FDECC8FC120A5C8004
:10171B009DED33EC547FCC33920024605007D0E026
:10172B00D0E0020C1C7B837AF97922783E120953A4
:10173B00EDF933ECF83324815011EFFBEEFA120B79
:10174B00B0120B72ECB2E7FC120862ED33EC3360B3
:10175B002F2403F8C313FCED92E7FDE82481E4503A
:10176B001FECF8EDF9EEFAEFFB120BB0EF04C2E051
:10177B00FCF582120B7CECB2E7FC120862E58203EB
:10178B00FAED33EC3360071413FCED92E7FDEA221C
:100BE700E9D2E7C933E833F892D5EDD2E7CD33EC54
:070BF70033FC5002B2D522CD
:100BFE00EC30E7100FBF000C0EBE00080DBD000458
:100C0E000BEB6014A2D5EB13FCED92E7FD2274FF03
:100C1E00FCFDFEFF22E480F8A2D574FF13FC7D805C
:030C2E00E480EF70
:100C3100C0E0EFFBEEFAEDF9ECF8120953D0E0F564
:100C4100F0EFFBEEFAEDF9ECF8120CD3A3A3A3A39A
:100C5100E8C0E0E9C0E0EAC0E0EBC0E0C0F01209A2
:100C610053120CF0A3A3A3A3120862D0F0D0E0FBAF
:0D0C7100D0E0FAD0E0F9D0E0F8D5F0D422C0
:03000000021FC21A
:0C1FC200787FE4F6D8FD7581200220092C
:100C7E00C2D5EC30E709B2D5E4C39DFDE49CFCEE91
:100C8E0030E715B2D5E4C39FFFE49EFE120D25C3D7
:100C9E00E49DFDE49CFC8003120D2530D507C3E4D2
:060CAE009FFFE49EFE2200
:0E0CB400C3E49FFFE49EFEE49DFDE49CFC2251
:100CC200EB9FF5F0EA9E42F0E99D42F0E89C45F088
:010CD20022FF
:100CD300E493FC740193FD740293FE740393FF2267
:0D0CE300E2FB08E2F908E2FA08E2CBF82291
:100CF000E493F8740193F9740293FA740393FB225A
:0C0D0000ECF208EDF208EEF208EFF2222F
:100D0C00D083D082E493F208740193F208740293B6
:090D1C00F208740393F2740473ED
:0C250E00EE30E707C3E49FFFE49EFE22CE
:101FCE0002223BE493A3F8E493A34003F68001F2CC
:101FDE0008DFF48029E493A3F85407240CC8C33314
:101FEE00C4540F4420C8834004F456800146F6DFE3
:101FFE00E4800B01020408102040809022FCE47E55
:10200E00019360BCA3FF543F30E509541FFEE493D7
:10201E00A360010ECF54C025E060A840B8E493A39E
:10202E00FAE493A3F8E493A3C8C582C8CAC583CAC9
:10203E00F0A3C8C582C8CAC583CADFE9DEE780BE81
:01233E00009E
:100D2500BC000BBE0029EF8DF084FFADF022E4CCB2
:100D3500F875F008EF2FFFEE33FEEC33FCEE9DEC7B
:100D4500984005FCEE9DFE0FD5F0E9E4CEFD22EDC1
:100D5500F8F5F0EE8420D21CFEADF075F008EF2F0B
:100D6500FFED33FD4007985006D5F0F222C398FDFC
:050D75000FD5F0EA2299
:00000001FF
