:020000040800F2
:1000000008080020D5010008ED060008E5060008F4
:10001000E9060008C9050008E31100080000000017
:10002000000000000000000000000000F9080008C7
:10003000CD05000800000000750700080D0A000843
:10004000EF010008EF010008EF010008EF010008D0
:10005000EF010008EF010008EF010008EF010008C0
:10006000EF010008EF010008EF010008EF010008B0
:10007000EF010008EF010008EF010008EF010008A0
:10008000EF010008EF010008EF010008EF01000890
:10009000EF010008EF010008EF010008EF01000880
:1000A000EF010008EF010008EF010008EF01000870
:1000B000EF010008EF010008EF010008EF01000860
:1000C000EF010008EF010008EF010008EF01000850
:1000D000EF010008FD0B0008750E0008790E0008FE
:1000E000EF010008EF010008EF010008EF01000830
:1000F000EF010008EF010008EF010008EF01000820
:10010000EF010008EF010008EF010008EF0100080F
:10011000EF010008EF010008EF010008710A000874
:10012000EF010008EF010008EF010008EF010008EF
:1001300000F002F800F03FF80AA090E8000C8244BA
:100140008344AAF10107DA4501D100F034F8AFF297
:10015000090EBAE80F0013F0010F18BFFB1A43F0A5
:10016000010318478C220000AC220000103A24BF83
:1001700078C878C1FAD8520724BF30C830C144BF0C
:1001800004680C607047000000230024002500264E
:10019000103A28BF78C1FBD8520728BF30C148BFEA
:1001A0000B607047642900F04380002070471FB542
:1001B0001FBD10B510BD00F0D9F91146FFF7F7FFCC
:1001C00001F090F900F0F7F903B4FFF7F2FF03BC78
:1001D00001F010F80948804709480047FEE7FEE7AC
:1001E000FEE7FEE7FEE7FEE7FEE7FEE7FEE7FEE7E7
:1001F00004480549054A064B70470000110A0008EB
:10020000310100080802002008080020080400202E
:1002100008040020704700000FB4044910B503AA79
:10022000029800F085F910BC5DF814FB5000002026
:100230002DE9F0410646002410687529314616A5BF
:1002400010D0AFF30080002802DA404213A507E087
:1002500031688A0701D512A502E0490704D511A526
:10026000012401E0AFF3008000210A2206F12407F7
:1002700009E0B0FBF2FCB0FBF2F302FB1C003030F3
:1002800078541846491C0028F3D123462A463046A4
:10029000BDE8F04100F0DBB8000000002D000000D8
:1002A0002B000000200000002DE9F05F8946044685
:1002B0004FF0000ADFF874B1FB44C0F820A02046DC
:1002C000E1688847002874D0252806D0D4E90121A8
:1002D0009047206A401C2062F1E700265F462046D6
:1002E000E16888472028054607DB312D05D27819BB
:1002F00010F8200C08B10643F1E7B00701D526F04D
:100300000406C4F81CA00027C4F818A02A2D09D0A0
:10031000284600F068FF38B304EB8708303DC8F882
:10032000185019E059F8041B204604EB870291612C
:10033000E1688847012F054618D1E069002820DAD6
:1003400026F020061DE0D8F8180000EB800005EB31
:1003500040003038C8F818002046E1688847054654
:1003600000F041FF0028EED1012F0AD02E2D08D138
:100370002046E16888477F1C0546022F46F020068C
:10038000C4DBA069002803DA404246F00106A06100
:10039000F00701D026F010066C2D0BD0682D09D087
:1003A0004C2D39D06A2D35D0742D35D07A2D33D0DF
:1003B00016E038E0E1682F4620468847B8420546F7
:1003C00009D16C2F26D04FF48060E16806432046A7
:1003D0008847054604E06C2F1AD04FF4807006431E
:1003E0000DB3A5F14100192802D8203546F4006666
:1003F0004A462946204626604E46FFF7D3FE80B186
:1004000001280BD0F61D26F0070000F1080956E779
:100410004020E4E78020D8E70020D6E706F1040971
:100420004DE7284652E7206ABDE8F09F20210000F2
:10043000704770477047704710B500F08BF8006840
:1004400010BD10B5044600F085F8046010BD2DE91C
:10045000F0470D4699469246044600F1240801688B
:10046000880604D5E06921F01001216000E0012038
:10047000A84201DD471B00E00027A1697A1902EBC1
:100480000900081AA0612078C00602D42046AFF304
:100490000080002608E0D4E901211AF80600904700
:1004A000206A401C761C20624E45F4DB2078C00692
:1004B0000AD52046AFF3008006E0D4E901213020C0
:1004C0009047206A401C2062381EA7F10107F4DC27
:1004D00007E0D4E9012118F805009047206A401C84
:1004E0002062281EA5F10105F3DC2046AFF3008051
:1004F0002078000602D50220BDE8F0870120FBE746
:1005000001694A1C02610878704700B58FB0CDE9D7
:1005100001310021059105497944CDE903101146C7
:100520006846FFF7C1FE0FB000BD0000E5FFFFFF0A
:10053000074B70B50D467B44FFF7E7FF044628469E
:1005400000F00CF810B14FF0FF3070BD204670BDC8
:100550005B0F000000487047A8010020007B00F0FE
:100560008000704700487047A80100207546FFF7DB
:10057000F9FFAE4605006946534620F00700854660
:1005800018B020B5FFF734FEBDE820404FF000065C
:100590004FF000074FF000084FF0000B21F007016B
:1005A000AC46ACE8C009ACE8C009ACE8C009ACE8AE
:1005B000C0098D46704710B50446AFF30080204651
:1005C000BDE81040FFF700BE00BFFEE770472DE911
:1005D000F0410246002500260020002300240027C9
:1005E00091F803C00CF00F0591F803C00CF0100C4B
:1005F000BCF1000F03D091F802C04CEA050591F858
:1006000000C0BCF1000F31D0146800202BE04FF087
:10061000010C0CFA00F3B1F800C00CEA03069E428C
:1006200020D183004FF00F0C0CFA03F7BC4305FAFE
:1006300003FC4CEA040491F803C0BCF1280F06D176
:100640004FF0010C0CFA00FCC2F814C00AE091F85B
:1006500003C0BCF1480F05D14FF0010C0CFA00FCAF
:10066000C2F810C0401C0828D1D31460B1F800C0F3
:10067000BCF1FF0F34DD546800202EE000F1080CBF
:100680004FF0010808FA0CF3B1F800C00CEA0306B9
:100690009E4221D183004FF00F0C0CFA03F7BC43AC
:1006A00005FA03FC4CEA040491F803C0BCF1280FDE
:1006B00005D100F1080C08FA0CF8C2F8148091F882
:1006C00003C0BCF1480F07D100F1080C4FF001083E
:1006D00008FA0CF8C2F81080401C0828CED35460E9
:1006E000BDE8F08100BFFEE700BFFEE770470000F5
:1006F00070B5002100230F22C47804B3154C246880
:1007000004F4E064C4F5E064210AC1F10403CA40C2
:10071000447804FA03F184781440214309010E4C13
:100720000678A155047804F01F050124AC40057833
:100730006D11AD0005F1E025C5F8004109E0047830
:1007400004F01F050124AC40044D0678761145F8ED
:10075000264070BD0CED00E000E400E080E100E028
:1007600002490143024A1160704700000000FA0587
:100770000CED00E07047000029B1064AD26902433F
:10078000044BDA6104E0034AD2698243014BDA6127
:10079000704700000010024029B1064A1269024366
:1007A000044B1A6104E0034A12698243014B1A6147
:1007B000704700000010024029B1064A92690243C6
:1007C000044B9A6104E0034A92698243014B9A61A7
:1007D000704700000010024029B1064AD268024367
:1007E000044BDA6004E0034AD2688243014BDA60CA
:1007F000704700000010024030B5002100220024A4
:1008000000232D4D6D6805F00C0121B1042905D0A0
:10081000082923D105E0294D056022E0274D056018
:100820001FE0254D6D6805F47012234D6D6805F4C9
:100830008034022505EB92421CB9214D55430560D9
:100840000BE01D4D6D6805F400351DB11C4D554381
:10085000056002E0194D5543056002E0174D056043
:1008600000BF00BF144D6D6805F0F0010909154D7A
:100870006B5C0568DD4045600F4D6D6805F4E06117
:10088000090A104D6B5C4568DD4085600A4D6D6856
:1008900005F46051C90A0B4D6B5C4568DD40C560CD
:1008A000054D6D6805F44041890B074D6B5CC568CB
:1008B000B5FBF3F5056130BD0010024000127A006F
:1008C00000093D00A4000020B400002008B501216B
:1008D0000820FFF771FF4FF4F070ADF80000102012
:1008E0008DF8030003208DF8020069460148FFF7E8
:1008F0006EFE08BD000C0140704710B500F002F814
:1009000010BD00000CB50020019000903348006835
:1009100040F480303149086000BF3048006800F47E
:10092000003000900198401C0190009818B901987F
:10093000B0F5A06FF1D12948006800F4003010B183
:100940000120009001E0002000900098012843D190
:100950002348006840F010002149086008460068FC
:1009600020F0030008600846006840F002000860BC
:100970001A48406819494860084640684860084677
:10098000406840F4806048600846406820F47C106D
:1009900048600846406840F4E8104860084600682F
:1009A00040F08070086000BF0C48006800F00070E4
:1009B0000028F9D00948406820F003000749486042
:1009C0000846406840F00200486000BF03484068A5
:1009D00000F00C000828F9D10CBD00000010024006
:1009E00000200240042808D14FF0E021096941F0BD
:1009F00004014FF0E022116107E04FF0E0210969A6
:100A000021F004014FF0E0221161704770470000AF
:100A100010B51348006840F001001149086008460D
:100A20004068104908400E494860084600680E4971
:100A300008400B4908600846006820F480200860E0
:100A40000846406820F4FE0048604FF41F008860AC
:100A5000FFF753FF4FF000600449086010BD00002D
:100A6000001002400000FFF8FFFFF6FE08ED00E076
:100A700010B50121094800F054F868B10848008811
:100A800040F40040064908800121044800F03AF88B
:100A90000021024800F039F810BD000000140040A9
:100AA000260000207FB505460C4601212020FFF7D7
:100AB00063FEADF80450ADF800400020ADF806002C
:100AC000ADF8020069460E4800F046F801221146D2
:100AD0000B4800F037F80121094800F016F83720DC
:100AE0008DF80C0000208DF80D0002208DF80E000E
:100AF00001208DF80F0003A8FFF7FAFD7FBD00006D
:100B000000140040CA430282704721B1028842F0BB
:100B10000102028004E002884FF6FE731A40028050
:100B2000704730B50246002000230024158A05EAEC
:100B30000103958905EA010413B10CB1012000E01D
:100B4000002030BD1AB183890B43838102E0838981
:100B50008B43838170470000002202881D4B98421E
:100B60000ED01D4B98420BD0B0F1804F08D01B4BDC
:100B7000984205D01A4B984202D01A4B984204D1A1
:100B80004FF68F731A404B881A43174B984207D081
:100B9000164B984204D04FF6FF431A40CB881A43B5
:100BA00002808B8883850B8803850A4B98420BD083
:100BB000094B984208D00E4B984205D00D4B9842F5
:100BC00002D00D4B984201D10B7A03860123838218
:100BD00070470000002C0140003401400004004038
:100BE00000080040000C00400010004000140040CD
:100BF00000400140004401400048014010B540F26F
:100C00002551904800F02CFA00287DD08D4800F046
:100C1000E3FA8D498D4A126841F822008B4800683A
:100C2000401C8A49086008460068012835D186487A
:100C30000068B12831D084480068B2282DD082489D
:100C40000068B32829D080480068A12825D07E48B4
:100C50000068A22821D07C480068C3281DD07A48AB
:100C60000068C42819D078480068C52815D076488F
:100C70000068C62811D074480068D3280DD0724887
:100C80000068D42809D070480068D52805D06E487F
:100C90000068D62801D0002008606C48006802284F
:100CA00006D169480068B12802D10120684908606E
:100CB0006648006801280CD163480068C32808D141
:100CC00001206349086000206249086001206249F0
:100CD00008605E48006801280AD15B480068C428A3
:100CE00006D101205A4908605A4908605A490860EB
:100CF0005648006801280ED153480068C5280AD11B
:100D000001205349086000E095E000205349086045
:100D10000120514908604D48006801280AD14A481D
:100D20000068C62806D10120494908604B4908607F
:100D3000494908604548006801280ED142480068CA
:100D4000D3280AD1012042490860002042490860A6
:100D5000032040490860414908603C480068012878
:100D60000ED139480068D4280AD1012038490860DA
:100D70000020394908600320364908603749086077
:100D80003248006801280ED12F480068D5280AD1C2
:100D900001202F49086000202F49086003202D49B9
:100DA00008602E4908602948006801280ED12648AD
:100DB0000068D6280AD1012025490860002026496C
:100DC0000860032023490860244908601F48006820
:100DD00003280ED11C480068A1280AD102201C4912
:100DE0000860194840681E490860174880681D4916
:100DF000086016480068042812D113480068A22829
:100E00000ED10320124908600F4840681649086057
:100E10000D488068154908600B48C068144908608F
:100E20000A480068401E084951F82000FF2802D1F6
:100E300000200649086040F22551024800F0A6F85B
:100E400010BD000000380140800100205C0000203F
:100E50005800002098000020A00000209C000020E6
:100E60006000002064000020680000206C0000206A
:100E7000700000207047000070B540F225513A48DC
:100E800000F0EEF8002869D0374800F0A5F90646D2
:100E900001F05CF904460D460022344B20462946F9
:100EA00001F0D2F806D13248007818B90120304953
:100EB000087053E000222F4B2046294601F0C4F869
:100EC00007D12B480078012803D102202849087057
:100ED00044E027480078022805D1274830C0032085
:100EE000234908703AE022480078032805D12348B6
:100EF00030C004201E49087030E01D4800780428E6
:100F000005D11F4830C005201949087026E018484F
:100F10000078052805D11B4830C006201449087008
:100F20001CE00022184B2046294601F08DF807D11D
:100F30000F480078062803D107200D4908700DE0FE
:100F40000022114B2046294601F07EF806D10848C0
:100F50000078072802D100200549087040F2255189
:100F6000014800F013F870BD004800400060664082
:100F70004800002000606840280000203000002069
:100F8000380000204000002000E06F4010B5002233
:100F9000002340F66A14A14200D100BF0A120124C6
:100FA0009440A3B2DC43048010BD21B1828942F495
:100FB0000052828104E082894DF6FF731A408281DB
:100FC0007047000010B504462048844209D1012131
:100FD0008803FFF701FC00214FF48040FFF7FCFB82
:100FE00032E01B48844209D101214804FFF7D4FBB9
:100FF00000214FF40030FFF7CFFB25E01548844275
:1010000009D101218804FFF7C7FB00214FF480209C
:10101000FFF7C2FB18E01048844209D10121C8043F
:10102000FFF7BAFB00214FF40020FFF7B5FB0BE000
:101030000A48844208D101210805FFF7ADFB0021D1
:101040004FF48010FFF7A8FB10BD000000380140EE
:101050000044004000480040004C00400050004068
:1010600070B50246002400230025002040F66A16D1
:10107000B14200D100BFC1F3421501F01F030126A8
:1010800006FA03F3012D02D19689334006E0022DC2
:1010900002D1168A334001E0968A33400C120126B1
:1010A00006FA04F41688344013B10CB1012000E0B4
:1010B000002070BDF0B50346002400260025002066
:1010C00040F66A17B94200D100BF1846C1F3421476
:1010D00001F01F06012707FA06F5012C01D10C309B
:1010E00004E0022C01D1103000E014301AB107687E
:1010F0002F43076002E00768AF430760F0BD0000C0
:101100002DE9F04786B005460E460024A24600BFF2
:10111000A1460027B08900B100BF2F462C8A4CF6AB
:10112000FF700440F08804432C82AC894EF6F31023
:101130000440B08831890843718908430443AC8175
:10114000AC8A4FF6FF400440B0890443AC8201A84A
:10115000FFF752FB1F48874202D1DDF810A001E0E3
:10116000DDF80CA0A88900F4004040B10AEBCA00E9
:1011700000EB0A1031684900B0FBF1F807E00AEB18
:10118000CA0000EB0A1031688900B0FBF1F8642056
:10119000B8FBF0F004012009642101FB1089A88943
:1011A00000F4004040B1322000EBC900B0FBF1F088
:1011B00000F00700044308E0322000EB091064212E
:1011C000B0FBF1F000F00F0004432C8106B0BDE845
:1011D000F08700000038014001468888C0F308000D
:1011E000704700BFFEE730380A2801D2012070475F
:1011F00000207047014600BF70472DE9F0470546C3
:101200000C4616461F46DDF820804FF00A0AB5420C
:1012100001DBBC4218DD12E005FB05F004FB040015
:1012200008FB1809B9F1000F04DC504600F004FC7B
:101230006D1C04E0504600F069FC641E00BFB5421E
:10124000EADBBC42E8DC17E005E005FB05F004FB47
:10125000040008FB1809B542F7DCBC42F5DBB9F124
:10126000000F04DC504600F01BFE641C04E05046F6
:1012700000F078FB6D1E00BFBDE8F0872DE9F04758
:1012800005460C4616461F46DDF820804FF00A0A38
:10129000B54201DBBC4218DA12E005FB05F004FBA5
:1012A000040008FB1809B9F1000F04DC504600F0F7
:1012B000F7FD641C04E0504600F0BEFB6D1C00BF4F
:1012C000B542EADBBC42E8DB17E012E005FB05F0C3
:1012D00004FB040008FB1809B9F1000F04DC5046B8
:1012E00000F040FB6D1E04E0504600F00FFC641E51
:1012F00000BFB542EADCBC42E8DCBDE8F0872DE97E
:10130000F04705460C4616461F46DDF820804FF094
:101310000A0AB54201DCBC4218DA12E005FB05F00E
:1013200004FB040008FB1809B9F1000F04DC504667
:1013300000F018FB6D1E04E0504600F0B1FD641C87
:1013400000BFB542EADCBC42E8DB17E012E005FB77
:1013500005F004FB040008FB1809B9F1000F04DCD8
:10136000504600F0D3FB641E04E0504600F064FBDE
:101370006D1C00BFB542EADBBC42E8DCBDE8F0878B
:101380002DE9F04705460C4616461F46DDF820803D
:101390004FF00A0AB54201DCBC4218DD12E005FB41
:1013A00005F004FB040008FB1809B9F1000F04DC88
:1013B000504600F0ABFB641E04E0504600F0D2FA49
:1013C0006D1E00BFB542EADCBC42E8DC17E012E06B
:1013D00005FB05F004FB040008FB1809B9F1000F38
:1013E00004DC504600F028FB6D1C04E0504600F081
:1013F00057FD641C00BFB542EADBBC42E8DBBDE838
:10140000F087000010B56FF00400FFF7EBFA0A4810
:1014100000680A49B0FBF1F00949087008460078F5
:1014200000EB4001C1EBC0104FF6FF7101EAC000B4
:101430000449088010BD00001000002000127A004E
:101440004A0000204C0000200146114A12884A43FD
:101450004FF0E0235A6100229A611A46126942F065
:1014600001021A6100BF4FF0E022106900F0010292
:101470001AB100F48032002AF5D04FF0E022126950
:1014800022F001024FF0E0231A6100229A617047B6
:101490004C00002000BF054A128802F04002002ADA
:1014A000F9D0C2B2014B1B1D1A80704700380140B1
:1014B0000246002A03DB002901DB00207047002AD6
:1014C00003DA002901DB0120F8E7002A03DA00290A
:1014D00001DA0220F2E70320F0E7002800DA4042B8
:1014E000704700004FF00009FFF78CFFFFF7EEF99F
:1014F0004FF4165000F080F94FF4A060FFF730F978
:101500004FF4165000F0C8F94FF4E13000F0F6F84F
:1015100095E04B48006830B101280FD0022846D032
:1015200003280AD157E04748016847A0FEF774FE38
:101530004B4801684BA0FEF76FFE7FE02FE04F485D
:10154000006840B9022000F077FA454801684CA0D5
:10155000FEF762FE0BE049480068012807D102202F
:1015600000F000FA3E48016845A0FEF755FE4A48E3
:10157000006840B9022000F093FC3248016847A09F
:10158000FEF74AFE0BE044480068012807D12D48C9
:10159000016842A0FEF740FE022000F0B7FA45487D
:1015A00000680128CBD000202549086046E0254886
:1015B000016841A0FEF730FE2948016844A0FEF70B
:1015C0002BFE494801684948006800F0D3FC002020
:1015D0001B49086032E046480068404345490968B5
:1015E000444A126801FB020016490968154A12684C
:1015F00001FB12001A490968194A126801FB120816
:10160000B8F1000F01DB414601E0C8F100010846D6
:1016100000F085FD064600F0C9F8044600F050FDD4
:10162000814635484A4603683248016830480068B8
:1016300000F0D6FA00200249086000BF00BF68E74A
:10164000580000200000002070616765302E743162
:101650002E7478743D22256C6422FFFFFF00000089
:101660000400002070616765302E74332E74787426
:101670003D22256C6422FFFFFF000000980000203F
:1016800070616765332E74332E7478743D22256C37
:101690006422FFFFFF0000009C000020706167656E
:1016A000332E74322E7478743D22256C6422FFFF31
:1016B000FF000000A000002070616765312E7435C6
:1016C0002E7478743D22256C6422FFFFFF00000019
:1016D00070616765312E74372E7478743D22256CE5
:1016E0006422FFFFFF000000640000206000002073
:1016F000680000206C0000207000002010B586B04B
:10170000044601210820FFF757F801218804FFF75C
:1017100033F84FF48060ADF8140003208DF8160004
:1017200018208DF8170005A91E48FEF750FF4FF44A
:101730000060ADF8140004208DF8170005A91948C1
:10174000FEF745FF27208DF8000004208DF80100EA
:101750008DF8020001208DF803006846FEF7C8FFEF
:1017600001940020ADF80800ADF80A00ADF80C00B7
:10177000ADF810000C20ADF80E0001A90A48FFF7E3
:10178000BFFC012240F225510748FFF793FC0121DD
:101790000548FFF70AFC4FF4A060FEF7E1FF06B032
:1017A00010BD0000000C0140004800402DE9F04150
:1017B00006460F4600F02CFD041E0D4618BF012002
:1017C000284320F00040C0F17F6000F1E040C00FEE
:1017D0000ED0301C18BF0120384320F00040C0F16B
:1017E0007F6000F1E040C00F04BF0120FEF729FE3A
:1017F00020462946BDE8F08110B586B00446012197
:1018000044F20400FEF7D8FF4FF40070ADF8140066
:1018100003208DF8160018208DF8170005A91C4824
:10182000FEF7D5FE4FF48060ADF8140004208DF86B
:10183000170005A91648FEF7CAFE25208DF80000FE
:1018400003208DF801008DF8020001208DF80300BF
:101850006846FEF74DFF01940020ADF80800ADF892
:101860000A00ADF80C00ADF810000C20ADF80E0029
:1018700001A90848FFF744FC012240F22551054820
:10188000FFF718FC01210348FFF78FFB06B010BDDE
:10189000000801400038014010B586B0044601211F
:1018A0000420FEF789FF01214804FEF765FF29485F
:1018B000FFF788FB0420ADF8100003208DF812001C
:1018C00018208DF8130004A92348FEF780FE082095
:1018D000ADF8100004208DF8130004A91E48FEF78F
:1018E00076FE00940020ADF80400ADF80600ADF8D7
:1018F0000800ADF80C000C20ADF80A006946154848
:10190000FFF7FEFB01211348FFF74FFB012240F2D6
:1019100025511048FFF7CEFB26208DF81400022039
:101920008DF8150003208DF8160001208DF81700A2
:1019300005A8FEF7DDFE41F61F4140F2E730FFF754
:10194000B1F800200549088000210548FFF7DDF8BF
:1019500006B010BD004400400008014026000020F1
:101960000014004070B5044601201C4908600025A1
:101970000EE00120194908390860A0B2FFF764FDA4
:1019800000201749C1F89401A0B2FFF75DFD6D1C5E
:10199000144800688542ECDB13480068401E124979
:1019A000086012480068012804D10846016810A0A8
:1019B000FEF732FC0D480068022804D10A4801688D
:1019C00011A0FEF729FC09480068032804D1064845
:1019D000016813A0FEF720FC70BD00009C8121422D
:1019E0000080214208000020000000205800002054
:1019F00070616765332E74322E7478743D22256CC5
:101A00006422FFFFFF00000070616765312E7435AE
:101A10002E7478743D22256C6422FFFFFF000000C5
:101A200070616765322E74352E7478743D22256C92
:101A30006422FFFFFF00000070B5044600201C492F
:101A4000086000250EE00120194908390860A0B29D
:101A5000FFF7FAFC00201749C1F89401A0B2FFF784
:101A6000F3FC6D1C144800688542ECDB13480068E9
:101A7000401C1249086012480068012804D1084639
:101A8000016810A0FEF7C8FB0D480068022804D1C9
:101A90000A48016811A0FEF7BFFB09480068032847
:101AA00004D10648016813A0FEF7B6FB70BD000024
:101AB0009C8121420080214208000020000000207B
:101AC0005800002070616765332E74322E7478746C
:101AD0003D22256C6422FFFFFF00000070616765F6
:101AE000312E74352E7478743D22256C6422FFFFEC
:101AF000FF00000070616765322E74352E747874B3
:101B00003D22256C6422FFFFFF00000070B50446F3
:101B100001201C49086000250EE001201949083108
:101B20000860A0B2FFF790FC00201749C1F8A0019F
:101B3000A0B2FFF789FC6D1C144800688542ECDBFD
:101B400013480068401E12490860124800680128C6
:101B500004D10846016810A0FEF75EFB0D4800683E
:101B6000022804D10A48016811A0FEF755FB094874
:101B70000068032804D10648016813A0FEF74CFB57
:101B800070BD0000988121420080214208000020A1
:101B9000040000205800002070616765332E743304
:101BA0002E7478743D22256C6422FFFFFF00000034
:101BB00070616765312E74372E7478743D22256C00
:101BC0006422FFFFFF00000070616765322E7437EA
:101BD0002E7478743D22256C6422FFFFFF00000004
:101BE0002DE9FC4706460F4614461D461148D0F81D
:101BF00000801148D0F80090E8B20F49CDE90040CC
:101C00000968C1EB47030B490968C1EB4602394635
:101C1000304600F013F810B90020BDE8FC87E8B2A8
:101C20004B4642463946CDE90040304600F006F8C2
:101C30000120F2E700000020040000202DE9FF4F02
:101C400083B0109C944801680398A1EB0008934866
:101C500001680498A1EB000903990598461A0499B4
:101C60000698471A39463046FFF722FC029049464B
:101C70004046FFF71DFC05460096002E02DBDDF80E
:101C800000B003E0DDF800B0CBF1000BA4EB0B0BD0
:101C9000B7F1000A01DBD64601E0CAF1000EABEB5A
:101CA0000E0BBBF10A0F47DC0196002E02DBDDF8BC
:101CB00004B003E0DDF804B0CBF1000BABEB040B98
:101CC000BBF10A0F38DCB7F1000C01DBE34601E0A1
:101CD000CCF1000BABEB040BBBF10A0F2CDCB8F121
:101CE000000301DB9B4601E0C3F1000BA4EB0B0BEF
:101CF000B9F1000201DB964601E0C2F1000EABEB48
:101D00000E0BBBF10A0F17DCB8F1000101DB8B46AB
:101D100001E0C1F1000BABEB040BBBF10A0F0BDCD4
:101D2000B9F1000001DB834601E0C0F1000BABEB31
:101D3000040BBBF10A0F03DD002007B0BDE8F08FF4
:101D40001198E8B339E035B1012D0FD0022D18D02C
:101D5000032D2ED121E0002322464946404600941F
:101D6000FFF74BFAA0464FF0000922E0234600227D
:101D7000494640460094FFF781FA4FF00008A1461B
:101D800017E000236242494640460094FFF7B7FA45
:101D9000C4F100084FF000090BE0634200224946FD
:101DA00040460094FFF7ECFA4FF00008C4F1000938
:101DB00000BF00BF681E00F003050298854200E0E6
:101DC00001E0C0D13DE039E035B1012D0FD0022D49
:101DD00019D0032D2ED122E0234600224946404649
:101DE0000094FFF70AFA4FF00008A14622E0002312
:101DF0006242494640460094FFF740FAC4F10008A9
:101E00004FF0000916E06342002249464046009424
:101E1000FFF775FA4FF00008C4F100090AE000234B
:101E20002246494640460094FFF7AAFAA0464FF0E2
:101E3000000900BF00BF681C00F00305029885423E
:101E4000C2D135B1012D0CD0022D12D0032D20D1DD
:101E500017E03B463246494640460094FFF7CDF92D
:101E600017E03B463246494640460094FFF706FAE3
:101E70000FE03B463246494640460094FFF73FFAA2
:101E800007E03B463246494640460094FFF778FA61
:101E900000BF00BF012050E7000000200400002028
:101EA00070B5044600201C49086000250EE00120A2
:101EB000194908310860A0B2FFF7C6FA0020174997
:101EC000C1F8A001A0B2FFF7BFFA6D1C144800686A
:101ED0008542ECDB13480068401C12490860124838
:101EE0000068012804D10846016810A0FEF794F9A3
:101EF0000D480068022804D10A48016811A0FEF7C5
:101F00008BF909480068032804D10648016813A02A
:101F1000FEF782F970BD00009881214200802142C5
:101F20000800002004000020580000207061676550
:101F3000332E74332E7478743D22256C6422FFFF97
:101F4000FF00000070616765312E74372E7478745D
:101F50003D22256C6422FFFFFF0000007061676571
:101F6000322E74372E7478743D22256C6422FFFF64
:101F7000FF0000002DE9F84F81468A460024002723
:101F8000A3460220009028480068A9EB00052748D6
:101F90000068AAEB0008291E01DB0A4600E04A425D
:101FA000B8F1000001DB034600E04342D61834E0FC
:101FB00007FB05F0FFF791FA024604FB08F0FFF774
:101FC0008CFAA2EB000BBBF1000F14DBA54205DD80
:101FD0000098FFF731FD641C761E1EE0A54205DA6D
:101FE0000098FFF7BFFC641E761E16E0A54214D1D0
:101FF0004FF0FF3B11E0BBF1000F0EDAB84505DDF5
:102000000098FFF74DFF7F1C761E06E0B84504DA06
:102010000098FFF77BFD7F1E761E002EC8D100249E
:1020200000270120BDE8F88F0000002004000020F8
:10203000491058BFC1F140415B1058BFC3F1404344
:102040008B42EFF30080704751EA030C17D41CF564
:10205000801F58BFBCF5801F00F10680994218BF51
:10206000704708BF9042704707D711F5801F58BFCF
:1020700013F5801F19D499427047894270471CF5A7
:10208000801F08D5BCF5801FF7D58B4218BF70475D
:1020900008BF824270474FF4001C1CEB410F38BF51
:1020A0001CEB430F01D28B42704770B500F061F812
:1020B000922449004FF000514FF08053FFF7B8BF12
:1020C0004FEA41034FEA5353A3F58063D3F11E0354
:1020D000C8BFD3F1210C0CDD4FF0004242EAC1220F
:1020E00042EA505232FA03FC8CEAE17CACEBE1703C
:1020F0007047102BC4BF0020704703F5787CBCF1FB
:10210000FF3F04D06FF0004282EA2100704770B5B3
:1021100000F02FF84992248000207047F2E710F079
:10212000004248BF4042B0FA80F310FA03F10AD0EF
:10213000C3F11D0303F580634FEA415002EB0352E4
:1021400002EBD12170474FF000007047B0FA80F3E6
:1021500010FA03F10AD0C3F11D0303F580634FEABF
:1021600041504FEA035202EBD12170474FF000007B
:1021700070470EF1020E2EF0030E5EF8046B36422D
:1021800005D4012A43EB030515F5001F12D80128D9
:1021900041EB010C1CF5001F0CD80ED14FEAD17C8D
:1021A00015F5001F0CEB4C0C0CF1020C08BF4CEBAE
:1021B000D37C04E04FF0080C01E04FEAD37C0CEB39
:1021C0004C0526FA05F606F00706B6F1040C06D211
:1021D0000EEB860CBDE870404CF0010C6047DFE868
:1021E0000CF0090B02024FF000414FF00000A1F586
:1021F000002170BD19461046012851EB010418BF9B
:10220000D4F5001484BF002001F0004170BD00002F
:102210002DE9F04101F5801CBCF5001FC0F2C38020
:102220004FEA115C21EA0C510CF1FD0C41F48011D4
:102230005FEA5C0C0CF5C07C01D3400049413DA431
:10224000890241EA905187028E0E0A0CA45D04FBBC
:1022500004F602FB06F6C6F14046A4FB0662F60D44
:1022600046EA422606FB06F4A4FB01235242C3F1D0
:10227000404338BF5B1EA6FB02420024E6FB03245A
:10228000D20B42EA4446A6FB0623A1FB02E2A3FBD3
:1022900007E4A4184FF0000252F10002E3FB0142F0
:1022A0006442C2F1404E38BFAEF1010EA6FB0423DA
:1022B0004FF00002E6FB0E32A2FB03464FF0000493
:1022C000B61954F10004E2FB0264A1FB06E6A4FB8C
:1022D00007E816EB08064FF0000858F10008E4FB89
:1022E00001687642C8F1405838BFA8F10108A2FB46
:1022F00006E4A3FB08E52D194FF0000454F1000497
:10230000E2FB0854A1FB05E6A7FB04E818EB06086E
:102310004FF0000656F10006E1FB048618F1200597
:1023200056F10006A809A8F11B08B10908F03F08FA
:10233000B8F10A0F40EA86601CD901EB0C51BDE8E8
:10234000F08100BFFCF5EEE8E2DDD8D3CFCBC7C308
:10235000C0BDB9B6B4B1AEACA9A7A5A3A19F9D9BC2
:102360009A9896959392908F8D8C8B898887868585
:1023700084838281A0FB006800FB01F208EB420825
:10238000B8EB872807D5341858EB0104D5D5401C85
:1023900051F10001D1E7341A78EB0104CDD4401E8D
:1023A00071F10001C9E75FEA4C0C5FEA9C5C0DD15A
:1023B00005D34FF0000001F00041BDE8F081BDE819
:1023C000F04170B5FFF7D5FE6DDBFFBEBDE8F04113
:1023D0004FF00000004970470000F87F040000083B
:1023E00000000000000000020001000010000000DA
:1023F0001024000800000020B80000006C01000854
:10240000C8240008B8000020500700008801000818
:10241000000000000000000050000000020000006A
:1024200000A24A04000000000000000001020304B2
:10243000060708090000000000000000000000007E
:10244000000000000000000000000000000000008C
:10245000000000000000000000000000000000007C
:10246000000000000000000000000000000000006C
:10247000000000000000000000000000000000005C
:10248000000000000000000000000000000000004C
:10249000000000000000000000000000000000003C
:1024A0000000000000000000030000000300000026
:1024B0000000000000000000010203040102030408
:0824C0000607080902040608E2
:04000005080001D519
:00000001FF
