:10002E0010181C14123E10381C1C1C08080800085E
:10003E001824429999422418FF81A581BDA581FFFC
:10004E0000E010080810E000000F102020100F0034
:10005E0000001010F8000000000020203F202000BB
:10006E00007008080808F000003028242221300013
:10007E0000300808088870000018202121221C007A
:10008E000000804030F8000000060524243F2424A0
:10009E0000F88888880808000019202020110E001A
:1000AE0000E0108888900000000F112020201F0013
:1000BE0000180808886818000000003E01000000C3
:1000CE000070880808887000001C222121221C0064
:1000DE0000F008080810E0000001122222110F00A3
:1000EE00000000C0C0000000000000303000000022
:1000FE0000000000000000000000000000000000F2
:10010E0000005B3B0000000000000000000000004B
:10011E00404042CC0008E9AAB8A8A8AAE908000005
:10012E000040201F20405F4A4A4A4A4A5F40400032
:10013E00003E22E2223E0010885724548C0000001C
:10014E00407E403F22220001FE424242FE0101005B
:10015E002020FF2020F888888808FF0809CA080098
:10016E0010301F88681F10209F4027182641F0006E
:10017E0000804020180680000718204080000000F4
:10018E000100207028262120202438600001010063
:10019E0004040404F49495969494F4040404040062
:1001AE0000FE02027A4A4A4A4A4A7A0282FE000057
:1001BE0000088888888889FA8888888888080000D6
:1001CE0000003F00000000FF000010201F00000094
:1001DE00003E22E2223E0010885724548C0000007C
:1001EE00407E403F22220001FE424242FE010100BB
:1001FE00404042CC0004F49494FF9494F404000024
:10020E000040201F20484442415F41424448400084
:10021E0000FE225A8600FE9292929292FE000000FA
:10022E0000FF04080700FF4020030C142241400089
:10023E00000000000000C03FC000000000000000F1
:10024E00804020100C03000000030C1020408000A2
:10025E00060909E6F80C040202020202041E00005E
:10026E00000000071F30204040404040201000009A
:10027E0080828282FE8282828282FE8282828000DE
:10028E00008040300F0000000000FF000000000062
:10029E00000000FC4444444546444444447C000071
:1002AE004020180700FC44444444444444FC0000ED
:1002BE00100C4424140405060404142444140C00E5
:1002CE00004040414141417F414141414040000099
:1002DE004042CC0000FE829292FE929282FE00007C
:1002EE0000003F10887F001E1212125E807F0000F9
:1002FE00080808F8080800F2121AD61212F20200C4
:10030E001030100F0808804F20180710204F800063
:10031E000000FE222222222222222222FE000000A1
:10032E000000FF424242424242424242FF0000006F
:10033E0000000000000000000000000000000000AF
:10034E000000363600000000000000000000000033
:10035E000008884828180FE8080808080808000050
:10036E0008080909090909FF090909090908080006
:10037E00C8B88FE88888E22222FE22FE2222E200FE
:10038E00081808FF0404FF080601060142847F00D6
:10039E0000083000FF20202020FF2020222C2000EB
:1003AE0004040201FF8040300E0106182040800038
:1003BE0000020CC0007E42C24242C2427E000000D9
:1003CE0002027F804020180700003F40404070002E
:1003DE0000007E0000FF0040300F04146404000093
:1003EE0040407E42427E4242427E42427E40400039
:1003FE00101010FF9020984828090E2848A81800C1
:10040E000242817F0040404242427E4242424000D0
:10041E00000022322AA6A2622111098101000000E9
:10042E00004222130B42827E02020A122346000071
:10043E002030AC63300088C8A8998E88A8C8880080
:10044E0022672212128040300F00003F40407100A0
:10045E00008060F80740300FF88888888808080008
:10046E00010000FF00000000FF0808080808000057
:10047E00202024242424BF64243428242220200075
:10048E0010080402FF494949494949FF000000008C
:10049E00000000000000000000000000000000004E
:1004AE0000003636000000000000000000000000D2
:1004BE0002E222223E8080FF80A09088868080000B
:1004CE00004382423E0000FF4021060810204000FB
:1004DE00100C2424242425E62424242424140C0083
:1004EE00020202020242827F0202020202020200A3
:1004FE00808080808080808080808080808080006E
:10050E0000000000000000000000000000000000DD
:10051E0000028282828282FE8282828282020000B7
:10052E00404040404040407F4040404040404000BE
:10053E00044444FC4444109292FE929292FE1000A7
:10054E001010101F10100804FF44444444FC000017
:10055E00044444FC444480BEAAAAEAAAAABE80006F
:10056E001010101F1010402E0A8AFA0A0A2E400090
:10057E000C0804000D0905010E0A06020F0B0703F5
:10058E003F065B4F666D7D077F6F777C395E7971B5
:10059E003F065B4F666D7D077F6F777C395E7971A5
:0105AE00004C
:100CA9000817FEFDFBF7EFDFBF7F01230001280ACC
:100CB900012B1E020E0000011600020B0000041198
:100CC90000000000010D00011000010800011F00D3
:100CD900012900012D00010A0002200000012A005B
:030CE900012700E0
:100E0300EF1FAA0670011E4A60087D64ED60F11DA4
:020E130080FA63
:010E150022BA
:060E5B00E4FF0FBFC8FC1C
:010E6100226E
:080DBA00907C00F07F967E00A2
:100DC200E4FDFCC3ED9FEC9E50070DBD00010C80BD
:010DD200F22E
:010DD30022FD
:1000030075A05F6380FFE4FDFC74172DF8E6F580AF
:10001300C2B5120E5BD2B5120E5B0DBD00010CED25
:0500230064084C70E4CC
:0100280022B5
:100C1100907C0074FFF0F5907B03E4F912000375FA
:100C21002E01E4FAEB75F008A4242EF582E43400D9
:100C3100F583E5822AF582E43583F583E493F4F5BF
:100C410090E52E120DBAE52E25E0F52E0ABA08D44C
:0B0C510009B996C87590FF0BBB04BFEB
:010C5C002275
:100C5D00907C0074FFF0F5907B01E4F912000375B0
:100C6D002E01E4FAEB75F008A4242EF582E434008D
:100C7D00F583E5822AF582E43583F583E493F4F573
:100C8D0090E52E120DBAE52E25E0F52E0ABA08D400
:0B0C9D0009B996C87590FF0BBB02BFA1
:010CA8002229
:0E0E2500901DFFE020E7F9901CFFE515F0227C
:100D7E00F583E58229F582E43583F583E493F52442
:0E0D8E00901DFFE020E7F9901EFFE524F02203
:0E0E3300901DFFE020E7F9901FFFE0F524225C
:0C0DD400E5262F540344B8F515120E2537
:0E0DE000903DFFE020E7F9903CFFE515F02282
:100D9C00F583E58229F582E43583F583E493F52424
:0E0DAC00903DFFE020E7F9903EFFE524F022A5
:0E0E4100903DFFE020E7F9903FFFE0F524220E
:100D26007515E2120E25120DE07515A4120E251288
:100D36000DE07515A9120E25120DE07515A0120EFF
:100D460025120DE07515C0120E25120DE07515AFB2
:060D5600120E25020DE063
:030D5C00120D264F
:100D5F00E4FFEF24B8120DDBE4120DDB7E50E4F557
:0E0D6F0024120D8E120DACDEF50FEFB404E46D
:010D7D002253
:100AA200E4F9FF120DD4AE2CE52C2410FDE433FC46
:100AB200EEC39DEC6480F8748098503FEEC3943D81
:100AC20050188E15120E2575F020E525A4241EF56A
:100AD20082E5F03401120D7E8019EE24C3F5151261
:100AE2000DE075F020E525A4241EF582E5F0340121
:100AF200120D9C090EEEC3947A40AD0FEF640270A2
:010B0200A250
:010B030022CF
:100B6500E4F9FF120DD4AE2CE52C2408FDE433FC8A
:100B7500EEC39DEC6480F8748098503BEEC3943DC1
:100B850050168E15120E25E525C454F0244EF58217
:100B9500E43400120D7E8017EE24C3F515120DE026
:100BA500E525C454F0244EF582E43400120D9C0969
:0D0BB5000EEEC3947A40B10FEF640270A6FB
:010BC2002210
:1006D300752E00752F03120D5C752602E4F52CF5BB
:1006E30025120AA2752602752C10752501120AA27D
:1006F300752602752C2075250A120B657526027561
:100703002C28E52314600C14600E2402700D75254B
:100713000280087525038003752504120AA2752635
:1007230002752C38E52314600C14600E2402700D3E
:1007330075250580087525068003752507120AA20D
:10074300752602752C4875250B120B6575260275E7
:100753002C50752508120AA2752602752C60E5280F
:1007630024F5600C14600E2402700D7525058008B5
:100773007525078003752509120B65752602752CEF
:1007830068752509120AA2E4F526F52CE52B75F008
:100793000A84F525120B65E4F526752C08E52B75FF
:1007A300F00A8485F025120B65E4F526752C107587
:1007B300250A120AA2E4F526752C2075250B120AC8
:1007C300A2E4F526752C3075250C120AA2E4F52651
:1007D300752C4075250D120AA2E4F526752C50756B
:0507E300250E020AA230
:10089C00752E00752F03120D5C752602E4F52C7570
:1008AC00250F120AA2752602752C10752510120A36
:1008BC00A2752602752C20752511120AA275260226
:1008CC00752C30752512120AA2752602752C4075EE
:1008DC002513120AA2752602752C50752514120ABE
:1008EC00A2752602752C60752515120AA2E4F52650
:1008FC00752C30752516120AA2E4F526752C407558
:10090C002517120AA2E4F526752C50752518120A23
:0D091C00A2E4F526752C60752519020AA2CB
:100A3000120D26120D5F752602E4F52C75251A128B
:100A40000AA2752602752C1075251B120AA275269E
:100A500002752C2075251C120AA2752602752C38E9
:100A600075251D120AA2752602752C4875251E12C1
:100A70000AA2752602752C5875251F120AA2E4F5E4
:100A800026752C38752520120AA2E4F526752C4807
:100A9000752521120AA2E4F526752C587525220227
:020AA0000AA2A8
:0E0E1600AD071FED60087E64EE60F51E80FAE9
:010E240022AB
:0C0E4F00906002740FF0E0F4540FFF22DA
:100BC3007C047F80EFF4906002F0EFC313FFE0F446
:100BD300540FFE1CEC6003EE60EAEE602EEC25E0A1
:100BE30025E0FCEE30E1030C800FEE30E2040C0C48
:100BF3008007EE30E3030C0C0C7F0A120E16120E64
:0D0C03004FEF70F5EC90057E93FF227FFF10
:010C100022C1
:1007E800906002E0540FF522120A0A08330708380D
:1007F8000B083D0D08420E087E77086A7B08567D77
:100808000879B70865BB0851BD0874D70860DB08CC
:100818004CDD086FE7085BEB0847ED0892F7088D99
:10082800FB0888FD0883FE0000089B90058E805D0C
:1008380090058F80589005908053900591804E9038
:10084800059280499005938044900594803F9005D7
:1008580095803A9005968035900597803090059858
:10086800802B900599802690059A802190059B8081
:100878001C90059C801790059D801290059E800D08
:1008880090059F80089005A080039005A1E49390AF
:040898006001F022E9
:100DEE00EF1FAA0670011E4A600AE4FD0DBDC8FC85
:040DFE00E4FD80ECA4
:010E020022CD
:100B0400120E4FEF605A120BC3EF540FF509120A7D
:100B14000A0B37000B3C010B41020B61030B46042B
:100B24000B5E070B4B080B550B0B500C0B590F00AE
:100B3400000B64E4F523801F752301801A752302DA
:100B4400801575280A801075280B800B75280C8079
:100B540006152B8002052B0206D3020C11120C5D24
:010B6400226E
:03002B000205AF1C
:1005AF00C0E0C0F0C083C082C0D075D000C000C012
:1005BF0004C005C006C007C2CF0508E508B464052E
:1005CF00750800050DE50875F00A84E5F07010E573
:1005DF002D700C051FE51FD394034003751F00E515
:1005EF000820E003751001E50D640A60030206841C
:1005FF00F50DAE0EAF0FFC7D0A1209B58D14AE0EC0
:10060F00AF0F7C007D0A1209B57C007D0A1209B577
:10061F008D13AE0EAF0F7C007D641209B58F12E5FE
:10062F000A7008050FE50F7002050E75A04FE5273C
:10063F00C39408500FAF277401A807088002C33373
:10064F00D8FC8029E527C3940E5012E52724F9FF23
:10065F007480A807088002C313D8FC801075270088
:10066F00AF277401A807088002C333D8FCF4F580C4
:10067F00052775A06FE50C450B6008E50C150C7090
:10068F0002150BE510602875100053A0E3E529252E
:10069F00E025E042A074112529F8E690059E93907D
:1006AF006001F00529E529D394034003752900D093
:1006BF0007D006D005D004D000D0D0D082D083D0C0
:0406CF00F0D0E03255
:100CED0075CBFC75CA6A85CBCD85CACCD2AFD2ADDA
:100CFD00D2CA9060037481F0E4905CFFF012089CFE
:100D0D007FA07E0F120DEE120A307F187E15120D88
:090D1D00EE1206D3120B0480FB58
:03000000020929C9
:0C092900787FE4F6D8FD75812F0209707C
:1009B500BC000BBE0029EF8DF084FFADF022E4CC26
:1009C500F875F008EF2FFFEE33FEEC33FCEE9DECEF
:1009D500984005FCEE9DFE0FD5F0E9E4CEFD22ED35
:1009E500F8F5F0EE8420D21CFEADF075F008EF2F7F
:1009F500FFED33FD4007985006D5F0F222C398FD70
:050A05000FD5F0EA220C
:100A0A00D083D082F8E4937012740193700DA3A37B
:100A1A0093F8740193F5828883E47374029368608F
:060A2A00EFA3A3A380DF8F
:10093500020CEDE493A3F8E493A34003F68001F2DF
:1009450008DFF48029E493A3F85407240CC8C333C3
:10095500C4540F4420C8834004F456800146F6DF92
:10096500E4800B0102040810204080900CA9E47E6D
:10097500019360BCA3FF543F30E509541FFEE49387
:10098500A360010ECF54C025E060A840B8E493A34E
:10099500FAE493A3F8E493A3C8C582C8CAC583CA79
:1009A500F0A3C8C582C8CAC583CADFE9DEE780BE31
:010CEC000007
:00000001FF
