:1000AF00080801020408102040800810FEFDFBF72D
:0400BF00EFDFBF7F31
:1000C400EF1FAA0670011E4A60087D64ED60F11DF1
:0200D40080FAB0
:0100D6002207
:10008F0075A05FE4F51874102518F8E6F5807FC8A1
:10009F007E001200C40518E518C3940840E880E3F9
:03000000020003F8
:0C000300787FE4F6D8FD75811802004AF1
:10000F0002008FE493A3F8E493A34003F68001F278
:10001F0008DFF48029E493A3F85407240CC8C333F2
:10002F00C4540F4420C8834004F456800146F6DFC1
:10003F00E4800B01020408102040809000AFE47EA2
:10004F00019360BCA3FF543F30E509541FFEE493B6
:10005F00A360010ECF54C025E060A840B8E493A37D
:10006F00FAE493A3F8E493A3C8C582C8CAC583CAA8
:10007F00F0A3C8C582C8CAC583CADFE9DEE780BE60
:0100C300003C
:00000001FF
