:10010E0010103F065B4F666D7D077F6F777C395E03
:0C011E00797108080004080C1014181C6B
:1000F000D3EF9400EE940040147D327C00ED1D702F
:0D010000011CED4C70F7EF1F70E61E80E350
:01010D0022CF
:10008F00907FFF7481F0E4F520F521752200752330
:10009F0032E5231523AE22700215224E6030E4FAAA
:1000AF00FBC3EB9408EA940050E774082BF8E6F5CD
:1000BF00A0E5212BFFEF540F2410F8E6907FFDF001
:1000CF007F057E001200F00BBB00010A80D30521D3
:1000DF00E52170020520C39410E520940040AC8008
:0100EF00A56B
:03000000020003F8
:0C000300787FE4F6D8FD75812302004AE6
:10000F0002008FE493A3F8E493A34003F68001F278
:10001F0008DFF48029E493A3F85407240CC8C333F2
:10002F00C4540F4420C8834004F456800146F6DFC1
:10003F00E4800B010204081020408090010EE47E42
:10004F00019360BCA3FF543F30E509541FFEE493B6
:10005F00A360010ECF54C025E060A840B8E493A37D
:10006F00FAE493A3F8E493A3C8C582C8CAC583CAA8
:10007F00F0A3C8C582C8CAC583CADFE9DEE780BE60
:01012A0000D4
:00000001FF
