:100016003F065B4F666D7D077F6F777C395E797132
:10002600161514FF131211100D0C0B0A0E030609F8
:100036000F0205080001040700001824424242424C
:10004600424242241800000000003E080808080842
:10005600080808380800000000007E422010080446
:10006600024242423C00000000003C4242020418A8
:10007600040242423C00000000001F04047F4424A6
:1000860024140C0C04000000000038444202024410
:10009600784040407E00000000001C22424242623E
:1000A6005C404024180000000000101010101008DA
:1000B600080404427E00000000003C42424224182C
:1000C600244242423C0000000000182402023A4644
:1000D60042424244380000000000FC1F0420042075
:1000E6000420002000200020F03F102010201000E7
:1000F60010001000F03F00000080FE4F005800285E
:10010600FC28842E84288428FC0808FF94084408C8
:10011600447E4408FC090008820846082AF8120FA3
:100126001008287F2848242024FF24102010FEFFD2
:100136002008247F280820080000FC1F0420042033
:100146000420002000200020F03F10201020100086
:1001560010001000F03F00000080FE4F00580028FD
:10016600FC28842E84288428FC0808FF9408440868
:10017600447E4408FC0900080000FE4700284010A1
:10018600441448125011E010F81348F24802F803DC
:100196004010FC17402040000404FC27442444245B
:1001A600442444E4FC274414441444444444FC8753
:1001B6004010401040204000FC7F0001F01F00016D
:1001C600F01F1011F01F1011F01F0000FEFF10109D
:1001D600F01F1010F01F0000121226138A120A12C6
:1001E6001212101210122092FE53203220322012C8
:1001F6002012E00B3C080808100228220832F82BCF
:100206000822F8230822F8230020FEE74000F8031E
:100216004020FC27404040000084444A7C2244227F
:10022600441244124412441244124412441244FE2C
:100236007C100010001000100404FC274424442401
:10024600442444E4FC274414441444444444FC87B2
:10025600401040104020400000E010080810E00068
:10026600000F102020100F0000001010F8000000F2
:10027600000020203F202000007008080808F00039
:100286000030282422213000003008080888700039
:100296000018202121221C000000804030F80000B8
:1002A60000060524243F242400F8888888080800CE
:1002B6000019202020110E0000E010888890000010
:1002C600000F112020201F00001808088868180059
:1002D6000000003E010000000070880808887000D9
:1002E600001C222121221C0000F008080810E00052
:1002F6000001122222110F00000000C0C000000001
:100306000000003030000000000080808000000007
:100316000000B1F171200000404042CC0008E9AA7B
:10032600B8A8A8AAE90800000040201F20405F4A9C
:100336004A4A4A4A5F404000003E22E2223E0010FE
:10034600885724548C000000407E403F2222000142
:10035600FE424242FE0101002020FF2020F888884C
:100366008808FF0809CA080010301F88681F102077
:100376009F4027182641F000008040201806800084
:100386000718204080000000010020702826212048
:10039600202438600001010004040404F4949596B6
:1003A6009494F4040404040000FE02027A4A4A4AC1
:1003B6004A4A7A0282FE000000088888888889FAFC
:1003C600888888888808000000003F00000000FF39
:1003D600000010201F000000003E22E2223E001016
:1003E600885724548C000000407E403F22220001A2
:1003F600FE424242FE010100404042CC0004F49419
:1004060094FF9494F40400000040201F20484442C6
:10041600415F41424448400000FE225A8600FE9257
:1004260092929292FE00000000FF04080700FF402F
:1004360020030C1422414000000000000000C03FD1
:10044600C000000000000000804020100C030000E7
:1004560000030C1020408000060909E6F80C04028F
:1004660002020202041E0000000000071F302040A6
:10047600404040402010000080828282FE828282BC
:100486008282FE8282828000008040300F0000005F
:100496000000FF0000000000000000FC444444454A
:1004A60046444444447C00004020180700FC444471
:1004B6004444444444FC0000100C4424140405063F
:1004C6000404142444140C00004040414141417F7F
:1004D60041414141404000004042CC0000FE829232
:1004E60092FE929282FE000000003F10887F001E5E
:0804F6001212125E807F00006B
:0D10D900810A458110078111158202003C3B
:0E10AD00AD071FED60087E64EE60F51E80FA50
:0110BB002212
:100F1F007C20E4FBE4909002F074132BF8E2FA903B
:100F2F009004F0909002ECF07F011210ADECC3131F
:060F3F00FC0BEBB406DE22
:010F45002289
:0E10CB00E4909002F0909001E0F4540FFF22A8
:100D75007C067F20EFF4909002F0EFC313FF909074
:100D850001E0F4540FFE1CEC6003EE60E7EE603307
:100D9500EC25E025E0FCEE30E1030C800FEE30E2BF
:100DA500040C0C8007EE30E3030C0C0CE49090026D
:100DB500F07F0A1210AD1210CBEF70F5EC90002603
:050DC50093FF227FFFF7
:010DCA002206
:10109C00E490A000F0FF0FEFB420FB90A000E0FF65
:0110AC002221
:07110A00E4FF0FEFB4C8FB86
:0111110022BB
:100DCB007809E2FFC364809480500B78137440F26F
:100DDB00EFF404FF8004E47813F2EF75F00A1206C7
:100DEB0075FD3395E0FC74162DF58274003CF5838C
:100DFB00E4937814F2EF75F00A120675AFF0EF3347
:100E0B0095E0FE74162FF58274003EF583E493781B
:050E1B0015F2E408F2ED
:010E200022AF
:100FEA00E490A001F0FFFE0FBF00010EEF64144E63
:0C0FFA0070F590A001E0FFC374FF9FFFA2
:0110060022C7
:100EBC00E4FDFCFB120FEAEF2DFDE43CFC0BEBB464
:100ECC0010F2AE04ED7804CEA2E713CE13D8F8FFDF
:100EDC007C007DC61206970C7D001206FEEF249D49
:040EEC00FF7809F290
:010EF00022DF
:0E10BC007F507EC3EF1FAC0670011E4C70F615
:0110CA002203
:10102400E47824F208F2758951C28C758C3C758A77
:0B103400B0C28EF58DF58BD28CD28EF1
:01103F00228E
:0B104000E225E0F318E23319F37F0112
:10104B00EFD39400400AE4FE0EEEB464FB1F80F075
:01105B002272
:050F4600E4F20804F2D2
:100F4B00908000E0F4F07D0A7C00C29212110AD26C
:0D0F5B009212110AED1D70011CED4C70ED9D
:010F68002266
:1009260090C00074FFF0A3F0E4A3F0A3F0781D7468
:1009360003F2E4781EF2781F120F46E4FDE490C03D
:1009460002F0A3F0781DE2FF75F020A424DEF58204
:10095600E5F03400F58375F002ED120734E493F404
:1009660090C000F075F020EFA424DFF582E5F034A6
:1009760000F58375F002ED120734E493F490C0019C
:10098600F0781FE2FA08E2A3F0EAA3F07920121049
:10099600400DEDB410A7781EE204F2E2C394324093
:1009A6009590C00074FFF0A3F0781DE204F2E2C354
:0709B600940650030209380A
:0109BD002217
:1009BE0090C00074FFF0A3F0E4A3F0A3F07819F256
:1009CE00E4781AF2781B120F46E4FDE490C002F0B0
:1009DE00A3F07819E2FF75F020A424DEF582E5F08D
:1009EE003400F58375F002ED120734E493F490C0F1
:1009FE0000F075F020EFA424DFF582E5F03400F569
:100A0E008375F002ED120734E493F490C001F07890
:100A1E001BE2FA08E2A3F0EAA3F0791C1210400DD3
:100A2E00EDB410A7781AE204F2E2C3943240959026
:100A3E00C00074FFF0A3F07819E204F2E2C394034D
:050A4E0050030209CE77
:010A53002280
:1007F00090C00074FFF0A3F0E4A3F0A3F0781974A4
:1008000006F2E4781AF2781B120F46E4FDE490C079
:1008100002F0A3F07819E2FF75F020A424DEF5823F
:10082000E5F03400F58375F002ED120734E493F43B
:1008300090C000F075F020EFA424DFF582E5F034DD
:1008400000F58375F002ED120734E493F490C001D3
:10085000F0781BE2FA08E2A3F0EAA3F0E225E079DF
:100860001C1210430DEDB410A4781AE204F2E2C396
:100870009432409290C00074FFF0A3F07819E20423
:0A088000F2E2C394095003020802DB
:01088A00224B
:10088B0090C00074FFF0A3F0E4A3F0A3F0781D7404
:10089B0009F2E4781EF2781F120F46E4FDE490C0D3
:1008AB0002F0A3F0781DE2FF75F020A424DEF582A0
:1008BB00E5F03400F58375F002ED120734E493F4A0
:1008CB0090C000F075F020EFA424DFF582E5F03442
:1008DB0000F58375F002ED120734E493F490C00138
:1008EB00F0781FE2FA08E2A3F0EAA3F0E225E07940
:1008FB00201210430DEDB410A4781EE204F2E2C3F3
:10090B009432409290C00074FFF0A3F0781DE20483
:0A091B00F2E2C3940C500302089DA1
:0109250022AF
:101076007800E2FFE4FE7D01AC051DEC70FADEF6B9
:02108600DFF495
:011088002245
:100F6900E4908002F0780004F27403F012107674B1
:100F790006F0121076740CF01210767409F0021053
:010F890076F1
:041089007808EEF203
:0F108D0090B002E020E7F97808E290B000F0227E
:100F8A00F583E58229F582E43583F583E493780BCA
:010F9A00F264
:0F0F9B0090B002E020E7F9780BE290B001F0226D
:0D10E70090B002E020E7F9A3E0780BF222C0
:0E100700780FE22F540344B87808F212108DCF
:0F10150090B006E020E7F97808E290B004F022EE
:100FAA00F583E58229F582E43583F583E493780BAA
:010FBA00F244
:0F0FBB0090B006E020E7F9780BE290B005F02245
:0D10F40090B006E020E7F9A3E0780BF222AF
:100EF100780874E2121011780874A412101178089D
:100F010074A9121011780874A0121011780874C015
:0E0F1100121011780874AFF212108D02101534
:100FCA00E4FFEF24B812100FE412100F7E50E478F9
:0F0FDA000BF2120F9B120FBBDEF40FEFB404E308
:010FE90022E5
:081101007F14E4FEDEFEDFFCBA
:0111090022C3
:030BE800780EF292
:100BEB00E4F9FF1210077812E2FE7812E22410FDEE
:100BFB00E433FCEEC39DEC6480F87480985040EEB7
:100C0B00C3943D5017121089780EE275F020A4247E
:100C1B001EF582E5F03403120F8A801BEE24C37895
:100C2B0008F2121015780EE275F020A4241EF5823E
:100C3B00E5F03403120FAA090EEEC3947A40AB0F02
:050C4B00EF6402709E41
:010C50002281
:030C5100780EF228
:100C5400E4F9FF1210077812E2FE7812E22408FD8C
:100C6400E433FCEEC39DEC6480F8748098503CEE51
:100C7400C3943D5015121089780EE2C454F0245EDA
:100C8400F582E43402120F8A8019EE24C37808F244
:100C9400121015780EE2C454F0245EF582E4340296
:100CA400120FAA090EEEC3947A40AF0FEF640270DC
:010CB400A29D
:010CB500221C
:1004FE007824E4F2087403F2120EF1120FCA780F88
:10050E007402F2E47812F2780EF2120BEB780F749A
:10051E0002F278127410F27401120BE8780F740262
:10052E00F278127420F2740A120C51780F7402F2DF
:10053E0078127428F2780AE224AC600F24FB601261
:10054E0024147013780E7402F2800C780E7403F279
:10055E008005780E7404F2120BEB780F7402F278A9
:10056E00127438F2780AE224AC600F24FB60122475
:10057E00147013780E7405F2800C780E7406F280E7
:10058E0005780E7407F2120BEB780F7402F27812E4
:10059E007448F2740B120C51780F7402F2781274C4
:1005AE0050F27408120BE8780F7402F2781274602D
:1005BE00F27810E224EB600F24F06012241E701308
:1005CE00780E7405F2800C780E7407F28005780EA2
:1005DE007409F2120C54780F7402F278127468F2E5
:1005EE00780E7409F2120BEBE4780FF27812F2180F
:1005FE00E275F00A84780EF2120C54E4780FF27859
:10060E00127408F218E275F00A84780EE5F0F21210
:10061E000C54E4780FF278127410F2780E740AF219
:10062E00120BEBE4780FF278127420F2780E740B42
:10063E00F2120BEBE4780FF278127430F2780E743B
:10064E000CF2120BEBE4780FF278127440F2780E83
:10065E00740DF2120BEBE4780FF278127450F278FC
:07066E000E740EF2020BEB0B
:100D1B001210CBEF6053120D75EF540F603D24FE94
:100D2B00601B14601E24F9602014602314602624B9
:100D3B00FD602E240E7032780A74458028780A7470
:100D4B00548022780A7459801C78107407801678A6
:100D5B00107415801078107425800A7811E21480B5
:0A0D6B00047811E204F21204FE22E3
:100CB600E4FC7801E2F9C4540FFDD39409EC9400E6
:100CC600EDC4F8540FC868FBECC454F048FAE95474
:100CD6000F7C00FDD39409EC9400ED2BFBEC3AFA63
:100CE6007C007D0AAF03AE021206A974162FF582A8
:100CF60074003EF583E4937817F2AE02AF037C00EE
:100D06007D0A1206A974162DF58274003CF583E45B
:040D1600937818F2C4
:010D1A0022B6
:100E7100908001E0FEC394004008EED3940F50022D
:100E81007FC5EEC394104008EED3941F50027FCF6C
:100E9100EEC394204008EED3943F50027FDFEEC3AF
:100EA10094404008EED3947F50027FEFEEC39480CC
:0A0EB1004008EED394FF50027FFFCB
:010EBB002214
:10105C00908001E0540FFDB40104E4FEFF22ED701A
:09106C0004FE7F02227E007F01D8
:011075002258
:03000300020B6984
:100B6900C0E0C0F0C083C082C0D075D000C000C052
:100B790001C002C004C005C006C007C28C758C3C08
:100B8900758AB0C28E758D00758B007801E58BF280
:100B990008E4F208743CF290D00074C5F09080002B
:100BA90074FFF012105CEF4E70031207F07810E238
:100BB900FF7806E2D39F40031209BE908000E4F05B
:100BC900D290D28CD28ED007D006D005D004D002D4
:0F0BD900D001D000D0D0D082D083D0F0D0E03285
:03000B00020E21C1
:100E2100C0E0C0D075D000C0007803E2700218E2C3
:100E31006013758C3C758AB0D28C7803E224FFF282
:100E410018E234FFF27803E2700218E2701B7802B4
:100E5100F208743CF2F58C758AB07801E58BF27575
:100E61008D00758B00D28CD28ED000D0D0D0E032E4
:03001300020AE0FE
:100AE000C0E0C0F0C083C082C0D075D000C000C0DC
:100AF00001C002C004C005C006C007C28C758C3C92
:100B0000758AB0C28E758D00758B007801E58BF209
:100B100008E4F208743CF290D0007480F012105C8B
:100B2000EF64024E700312088B780DE264017002CC
:100B300018E27009120926780CE4F208F29080009D
:100B4000E4F0120E7190D000EFF0D291D28CD28EE0
:100B5000D007D006D005D004D002D001D000D0D02C
:090B6000D082D083D0F0D0E03245
:10074000E47821F29080037482F075A8877588059B
:100750007590FF1210241204FE120D1B120E7190E0
:10076000D000EFF012109C7806EFF2120EBC780762
:10077000EFF2E4908002F0908001E0908000F07849
:1007800010E2FF7806E2D39F4002C2907811E2FFA8
:100790007807E2FED39F400BEE94805006908002D3
:1007A0007401F012105CEF4E7002C29012105CEFF8
:1007B00064024E7002C291780AE2FF7801E2FED331
:1007C0009F400EEE94595009780CE4F20804F2C2EE
:1007D00091120DCB120CB6E47822F27822E2C39487
:1007E0001E4003020759120F1F7822E204F280EB29
:03000000020A549D
:0C0A5400787FE4F6D8FD758107020A9B4C
:10067500C2D530F707B2D563F0FF05F030E70CB20D
:10068500D5F4048463F0FF05F080018430D502F4CD
:0206950004223D
:10069700EF8DF0A4A8F0CF8CF0A428CE8DF0A42E77
:0206A700FE2231
:1006A900BC000BBE0029EF8DF084FFADF022E4CC35
:1006B900F875F008EF2FFFEE33FEEC33FCEE9DECFE
:1006C900984005FCEE9DFE0FD5F0E9E4CEFD22ED44
:1006D900F8F5F0EE8420D21CFEADF075F008EF2F8E
:1006E900FFED33FD4007985006D5F0F222C398FD7F
:0506F9000FD5F0EA221C
:1006FE00C2D5EC30E709B2D5E4C39DFDE49CFCEE17
:10070E0030E715B2D5E4C39FFFE49EFE1206A9C3DF
:10071E00E49DFDE49CFC80031206A930D507C3E4DA
:06072E009FFFE49EFE2285
:0C073400A42582F582E5F03583F58322D0
:100A6000020740E493A3F8E493A34003F68001F265
:100A700008DFF48029E493A3F85407240CC8C33397
:100A8000C4540F4420C8834004F456800146F6DF66
:100A9000E4800B01020408102040809010D9E47E0D
:100AA000019360BCA3FF543F30E509541FFEE4935B
:100AB000A360010ECF54C025E060A840B8E493A322
:100AC000FAE493A3F8E493A3C8C582C8CAC583CA4D
:100AD000F0A3C8C582C8CAC583CADFE9DEE780BE05
:0110E6000009
:00000001FF
