:1001E3000C0804000D0905010E0A06020F0B070394
:1001F3003F065B4F666D7D077F6F777C395E797154
:0C027D00040E00000000040A0000000055
:1001C300E4FDFCC3ED9FEC9E5015E4FBFA0BBB0072
:0F01D300010AEB64034A70F50DBD00010C80E4D6
:0101E20022FA
:020203008F1258
:10020500E4F9E9C395125011C2B57F0A7E001201C7
:09021500C3D2B51201C30980E94E
:01021E0022BD
:10021F00EF1FAA0670011ED39400EA9400400BE46E
:0A022F00FDEDC3947D50E90D80F74A
:0102390022A2
:0E026F00758901758A66758CFCD2A9D2AF2202
:10025000D2B0D2B6E4F509F50DF50CF50BF50A228E
:0C028A00D2B07F017E0012021FC2B02221
:0E026000AD071FED60087E64EE60F51E80FAAB
:01026E00226D
:1001A100E4FCF5A0FB740E2BF8E6F5128CA0906030
:1001B10002E5A0F07F0112026074042CFC0BBB0469
:0101C100E459
:0101C200221A
:0C029600906002740FF0E0F4540FFF229F
:100104007C047F80EFF4906002F0EFC313FFE0F40F
:10011400540FFE1CEC6003EE60EAEE602EEC25E06A
:1001240025E0FCEE30E1030C800FEE30E2040C0C11
:100134008007EE30E3030C0C0C7F0A1202601202FB
:0D01440096EF70F5EC9001E393FF227FFF32
:01015100228B
:10015200EE7028EF14600F14601114601324037002
:100162001A850EA0800D850FA080088510A080033F
:0C0172008511A0906001EDF01201A122A7
:10009A009060037481F0758901758A66758CFCD24B
:1000AA00A9D2AF1202507FC81202037F307E7512A6
:1000BA0001C312028A30B6FD120000E47F32FEFD4F
:1000CA00FCAB0DAA0CA90BA80AD312023A50057F61
:1000DA0032120203120296EF60111201048F08E530
:1000EA0008540F9001F393906001F01202507F645C
:0A00FA007E0012021F1201A180B85F
:03000B0002017E71
:10017E00C0E0C0D0C28D758A66758CFC0509E50994
:10018E00B4120BC28C758A66758CFC750900D0D0C2
:03019E00D0E0327C
:0300000002000EED
:0C000E00787FE4F6D8FD758112020055E1
:10023A00EB9FF5F0EA9E42F0E99D42F0EC6480C83B
:06024A0064809845F022DB
:10001A0002009AE493A3F8E493A34003F68001F262
:10002A0008DFF48029E493A3F85407240CC8C333E7
:10003A00C4540F4420C8834004F456800146F6DFB6
:10004A00E4800B010204081020408090027DE47EC7
:10005A00019360BCA3FF543F30E509541FFEE493AB
:10006A00A360010ECF54C025E060A840B8E493A372
:10007A00FAE493A3F8E493A3C8C582C8CAC583CA9D
:10008A00F0A3C8C582C8CAC583CADFE9DEE780BE55
:010289000074
:00000001FF
