:100BEB003F065B4F666D7D077F6F777C395E797152
:010BFB0000F9
:10099A00120C35EF602A120915EF540FF51524FED3
:1009AA00601124FD601724FE600E24FD7012120AE5
:1009BA0008800D120A8D8008120A368003120AB6C0
:0809CA00E515B40CCB02052772
:10075B00120C35EF605A120883EF540FF515B410D5
:10076B0000504D900775F82828730207AE0207ACAE
:10077B000207A70207BB0207B30207B30207B302C4
:10078B0007B80207B30207B30207B30207B30207A6
:10079B00BB0207BB0207BB0207B3800C120A8D809A
:1007AB000F8000120A368008120A088003120AB65C
:0907BB00E515640C709A02052793
:100ADF00120C35EF6020120883EF540FF51524F92F
:100AEF00601124FC600A24FC700C12082902099A78
:070AFF000206E9120958226A
:100A6400E4F511F5127FF47E01120B0F906003740C
:100A740081F0E4905CFFF01208D17F887E13120BA2
:090A84000F120527120ADF80FBA6
:080C4100020F07D0020D0001B3
:090B0600E4906000F0AF0EAE0DAA
:100B0F00EF1FAA0670011E4A6013E4FCFD0DBD0025
:0D0B1F00010CED64084C70F5E4FCFD80E372
:010B2C0022A6
:100A0800E4F513F514C3E5149510E50F6480F8E5D3
:100A18001364809850179060007402120B0A7403D4
:0D0A2800120B0A0514E51470DC051380D8CC
:010A3500229E
:100A8D00E4F513F514C3E5149510E50F6480F8E54E
:100A9D00136480985012120B067401120B0A051480
:080AAD00E51470E1051380DD82
:010AB500221E
:100A3600E4F513F514C3E5149510E50F6480F8E5A5
:100A46001364809850179060007408120B0A740C97
:0D0A5600120B0A0514E51470DC051380D89E
:010A63002270
:100AB600E4F513F514C3E5149510E50F6480F8E525
:100AC600136480985012120B067404120B0A051454
:080AD600E51470E1051380DD59
:010ADE0022F5
:100B75000C0804000D0905010E0A06020F0B0703F8
:100B85003F065B4F666D7D077F6F777C395E7971B8
:0E0BFC00AD071FED60087E64EE60F51E80FA06
:010C0A0022C7
:0C0C3500906002740FF0E0F4540FFF22F6
:100883007C047F80EFF4906002F0EFC313FFE0F489
:10089300540FFE1CEC6003EE60EAEE602EEC25E0E4
:1008A30025E0FCEE30E1030C800FEE30E2040C0C8B
:1008B3008007EE30E3030C0C0C7F0A120BFC120CC6
:0D08C30035EF70F5EC900B7593FF227FFF71
:0108D0002205
:100915007F047E80EEF4906002F0EEC313FEE0F4F7
:10092500540FFD1FEF6003ED60EAED6023EF25E056
:1009350025E0FFED30E1030F800FED30E2040F0FEE
:100945008007ED30E3030F0F0FEF900B7593FF2238
:020955007FFF22
:01095700227D
:10047300906002E0540FF516120B2D04BE0704C35F
:100483000B04C80D04CD0E05097704F57B04E17D4B
:100493000504B704F0BB04DCBD04FFD704EBDB04A5
:1004A300D7DD04FAE704E6EB04D2ED051DF70518E2
:1004B300FB0513FD050EFE00000526900B85805DF0
:1004C300900B868058900B878053900B88804E90BA
:1004D3000B898049900B8A8044900B8B803F900B53
:1004E3008C803A900B8D8035900B8E8030900B8FE3
:1004F300802B900B908026900B918021900B928003
:100503001C900B938017900B948012900B95800D89
:10051300900B968008900B978003900B98E4939030
:040523006001F02261
:1000030000E010080810E000000F102020100F007F
:1000130000001010F8000000000020203F20200006
:10002300007008080808F00000302824222130005E
:1000330000300808088870000018202121221C00C5
:100043000000804030F8000000060524243F2424EB
:1000530000F88888880808000019202020110E0065
:1000630000E0108888900000000F112020201F005E
:1000730000180808886818000000003E010000000E
:100083000070880808887000001C222121221C00AF
:1000930000F008080810E0000001122222110F00EE
:1000A3000000C038E0000000203C23020227382073
:1000B30008F8888888700000203F202020110E0057
:1000C300C03008080808380007182020201008004E
:1000D30008F808080810E000203F202020100F0037
:1000E30008F88888E8081000203F20202320180003
:1000F30008F88888E8081000203F2000030000006B
:1001030000708808080838000038202121221C00CC
:10011300081868808068180820302C03032C3020CE
:100123000838C800C83808000000203F200000003D
:100133000040201E101010FF1010101010000000BF
:1001430002020202020202FF020202020202020091
:10015300000202F2828282828282FE80808000001C
:10016300080808080808080808084880403F0000F5
:10017300000000E0000000FF0000002040800000BD
:10018300080403000040807F0000000000010E000F
:10019300804020908886808080838C10204080005F
:1001A300008040201807004080403F00000000000E
:1001B30000FE0222DA06000000FF0000000000003B
:1001C30000FF081088472018070007182040800008
:1001D300404042CC00504EC8487FC84848400000C9
:1001E3000040201F20504C4340404F50505C400083
:1001F3001010FF100082864A52A2524A8680800065
:1002030042827F010010121212FF1212121000001C
:10021300080808F8080800F2121AD61212F20200AF
:100223001030100F0808804F20180710204F80004F
:100233000000FE222222222222222222FE0000008D
:100243000000FF424242424242424242FF0000005B
:10025300000000000000000000000000000000009B
:10026300000036360000000000000000000000001F
:1002730000002424242424FC222222232200000020
:10028300020202020242827F020202020202020010
:100293004044C4444444401010FF101010F00000C8
:1002A300103C131014B840300E014080403F000052
:1002B300101010FF9020984828090E2848A818000D
:1002C3000242817F0040404242427E42424240001D
:1002D30040504E4848FF48484840F80000FF00009F
:1002E30000003E0202FF12221E000F40807F00002A
:1002F3001010D0FF9014E4AFA4A4A4AFE404000052
:10030300040300FF00894B2A1A0E1A2A4B88800027
:10031300101090909090901010FF10101116100074
:10032300002060203F10101000030C102040F80044
:10033300404042CC0000FF4949C949497F80000041
:100343000040201F20405F48444041424558400040
:1003530000007C40404040FF40404040FC00000023
:10036300007C40404040407F4040404040FC000013
:10037300000404F49494949F949494F4040400006B
:100383004040407F4A4A4A4A4A4A4A7F40404000E6
:100393002030AC632018809090FF90494A48400079
:1003A300226722121212404020130C142241F8003B
:1003B3001010D0FF9014E4AFA4A4A4AFE404000091
:1003C300040300FF00894B2A1A0E1A2A4B88800067
:1003D300101090909090901010FF101011161000B4
:1003E300002060203F10101000030C102040F80084
:1003F30000FE0282BAAAAAAAAAAABA8202FE000030
:1004030000FF404F605048464850604F40FF000097
:1004130002E222223E00FC04FC0402FE030200006E
:1004230000438242BE601F007F2810610E304000EF
:100433001010D0FF9014E4AFA4A4A4AFE404000010
:10044300040300FF00894B2A1A0E1A2A4B888000E6
:10045300101090909090901010FF10101116100033
:10046300002060203F10101000030C102040F80003
:0E0C0B00901DFFE020E7F9901CFFE508F022A5
:100B9500F583E58229F582E43583F583E493F50948
:0E0BA500901DFFE020E7F9901EFFE509F02209
:0E0C1900901DFFE020E7F9901FFFE0F5092293
:0C0BD100E50B2F540344B8F508120C0B80
:0E0BDD00903DFFE020E7F9903CFFE508F02294
:100BB300F583E58229F582E43583F583E493F5092A
:0E0BC300903DFFE020E7F9903EFFE509F022AB
:0E0C2700903DFFE020E7F9903FFFE0F5092245
:1009D2007508E2120C0B120BDD7508A4120C0B1237
:1009E2000BDD7508A9120C0B120BDD7508A0120C99
:1009F2000B120BDD7508C0120C0B120BDD7508AF64
:060A0200120C0B020BDDDB
:030B53001209D2B2
:100B5600E4FFEF24B8120BD8E4120BD87E50E4F56C
:0E0B660009120BA5120BC3DEF50FEFB404E469
:010B7400225E
:10066300120687750B04750C10750A101207C775EF
:100673000B04750C18750A051207C7750B04750C66
:0406830028750A10BC
:10068700E4F9FF120BD1AE0CE50C2410FDE433FCAA
:10069700EEC39DEC6480F8748098503FEEC3943DA0
:1006A70050188E08120C0B75F020E50AA42433F5B8
:1006B70082E5F03401120B958019EE24C3F5081278
:1006C7000BDD75F020E50AA42433F582E5F034014B
:1006D700120BB3090EEEC3947A40AD0FEF640270AC
:0106E700A270
:0106E80022EF
:0307C400750A10A3
:1007C700E4F9FF120BD1AE0CE50C2408FDE433FC71
:1007D700EEC39DEC6480F8748098503FEEC3943D5F
:1007E70050188E08120C0B75F010E50AA42403F5B7
:1007F70082E5F03400120B958019EE24C3F5081238
:100807000BDD75F010E50AA42403F582E5F034004A
:10081700120BB3090EEEC3947A40AD0FEF6402706A
:01082700A22E
:0108280022AD
:1008D100751300751403120B53750B02E4F50CF537
:1008E1000A120687750B02750C10750A011206872C
:1008F100750B02750C20750A02120687750B0275BD
:100901000C30750A03120687750B02750C40750AC7
:04091100040206874F
:10052700120B53750B02E4F50C750A051206877555
:100537000B02750C10750A06120687750B02750CEF
:1005470020750A07120687750B02750C30750A08A5
:10055700120687750B02750C40750A09120687E4A7
:10056700F50BF50C1207C4E4F50B750C08750A02B8
:100577001207C7750B04750C201207C4750B047599
:100587000C28750A061207C7750B04750C40750A07
:10059700101207C7750B04750C48750A011207C7B7
:1005A700750B04750C50E4F50A1207C7750B047533
:1005B7000C60750A101207C7750B04750C68750A6D
:1005C700011207C7750B04750C70750A040207C77B
:100829001209D2120B56750B02E4F50C750A0A125D
:100839000687750B02750C10750A0B120687750B66
:1008490002750C20750A0C120687750B02750C309F
:10085900750A0D120687750B02750C40750A0E1282
:100869000687750B02750C50750A0F120663750B16
:0A08790004750C38750A1102068799
:1006E9001209D2120B56750B02E4F50C750A121297
:1006F9000687750B02750C10750A13120687750BA0
:1007090002750C20750A14120687750B02750C30D8
:10071900750A15120687750B04E4F50C750A111292
:1007290007C7750B04750C08750A09120687750B3E
:1007390004750C18E4F50A1207C7750B04750C202B
:10074900E4F50A1207C7750B04750C28E4F50A02CB
:0207590007C7D0
:100958001209D2120B56750B02E4F50C750A161221
:100968000687750B02750C10750A17120687750B2A
:1009780002750C20750A18120687750B02750C3063
:10098800750A19120663750B04750C38750A11027D
:020998000687D0
:030000000205D71F
:0C05D700787FE4F6D8FD75811602061E40
:100B2D00D083D082F8E4937012740193700DA3A357
:100B3D0093F8740193F5828883E47374029368606B
:060B4D00EFA3A3A380DF6B
:1005E300020A64E493A3F8E493A34003F68001F2C0
:1005F30008DFF48029E493A3F85407240CC8C33319
:10060300C4540F4420C8834004F456800146F6DFE7
:10061300E4800B0102040810204080900C41E47E2A
:10062300019360BCA3FF543F30E509541FFEE493DC
:10063300A360010ECF54C025E060A840B8E493A3A3
:10064300FAE493A3F8E493A3C8C582C8CAC583CACE
:10065300F0A3C8C582C8CAC583CADFE9DEE780BE86
:010C490000AA
:00000001FF
