:020000040800F2
:1000000058080020D5010008ED060008E5060008A4
:10001000E9060008C90500088B210008000000005F
:10002000000000000000000000000000F9080008C7
:10003000CD05000800000000750700080D0A000843
:10004000EF010008EF010008EF010008EF010008D0
:10005000EF010008EF010008EF010008EF010008C0
:10006000EF010008EF010008EF010008EF010008B0
:10007000EF010008EF010008EF010008EF010008A0
:10008000EF010008EF010008EF010008EF01000890
:10009000EF010008EF010008EF010008EF01000880
:1000A000EF010008EF010008EF010008EF01000870
:1000B000EF010008EF010008EF010008EF01000860
:1000C000EF010008EF010008EF010008EF01000850
:1000D000EF010008FD0B00081D1E0008211E00088E
:1000E000EF010008EF010008EF010008EF01000830
:1000F000EF010008EF010008EF010008EF01000820
:10010000EF010008EF010008EF010008EF0100080F
:10011000EF010008EF010008EF010008710A000874
:10012000EF010008EF010008EF010008EF010008EF
:1001300000F002F800F03FF80AA090E8000C8244BA
:100140008344AAF10107DA4501D100F034F8AFF297
:10015000090EBAE80F0013F0010F18BFFB1A43F0A5
:10016000010318472C5000004C500000103A24BFE7
:1001700078C878C1FAD8520724BF30C830C144BF0C
:1001800004680C607047000000230024002500264E
:10019000103A28BF78C1FBD8520728BF30C148BFEA
:1001A0000B607047642900F04380002070471FB542
:1001B0001FBD10B510BD00F0D9F91146FFF7F7FFCC
:1001C00002F0C0FD00F0F7F903B4FFF7F2FF03BC43
:1001D00002F019FB0948804709480047FEE7FEE79F
:1001E000FEE7FEE7FEE7FEE7FEE7FEE7FEE7FEE7E7
:1001F00004480549054A064B70470000110A0008EB
:10020000310100085802002058080020580400203E
:1002100058040020704700000FB4044910B503AA29
:10022000029800F085F910BC5DF814FB580000201E
:100230002DE9F0410646002410687529314616A5BF
:1002400010D0AFF30080002802DA404213A507E087
:1002500031688A0701D512A502E0490704D511A526
:10026000012401E0AFF3008000210A2206F12407F7
:1002700009E0B0FBF2FCB0FBF2F302FB1C003030F3
:1002800078541846491C0028F3D123462A463046A4
:10029000BDE8F04100F0DBB8000000002D000000D8
:1002A0002B000000200000002DE9F05F8946044685
:1002B0004FF0000ADFF874B1FB44C0F820A02046DC
:1002C000E1688847002874D0252806D0D4E90121A8
:1002D0009047206A401C2062F1E700265F462046D6
:1002E000E16888472028054607DB312D05D27819BB
:1002F00010F8200C08B10643F1E7B00701D526F04D
:100300000406C4F81CA00027C4F818A02A2D09D0A0
:10031000284602F071FA38B304EB8708303DC8F87C
:10032000185019E059F8041B204604EB870291612C
:10033000E1688847012F054618D1E069002820DAD6
:1003400026F020061DE0D8F8180000EB800005EB31
:1003500040003038C8F818002046E1688847054654
:1003600002F04AFA0028EED1012F0AD02E2D08D132
:100370002046E16888477F1C0546022F46F020068C
:10038000C4DBA069002803DA404246F00106A06100
:10039000F00701D026F010066C2D0BD0682D09D087
:1003A0004C2D39D06A2D35D0742D35D07A2D33D0DF
:1003B00016E038E0E1682F4620468847B8420546F7
:1003C00009D16C2F26D04FF48060E16806432046A7
:1003D0008847054604E06C2F1AD04FF4807006431E
:1003E0000DB3A5F14100192802D8203546F4006666
:1003F0004A462946204626604E46FFF7D3FE80B186
:1004000001280BD0F61D26F0070000F1080956E779
:100410004020E4E78020D8E70020D6E706F1040971
:100420004DE7284652E7206ABDE8F09F9C4D00004A
:10043000704770477047704710B500F08BF8006840
:1004400010BD10B5044600F085F8046010BD2DE91C
:10045000F0470D4699469246044600F1240801688B
:10046000880604D5E06921F01001216000E0012038
:10047000A84201DD471B00E00027A1697A1902EBC1
:100480000900081AA0612078C00602D42046AFF304
:100490000080002608E0D4E901211AF80600904700
:1004A000206A401C761C20624E45F4DB2078C00692
:1004B0000AD52046AFF3008006E0D4E901213020C0
:1004C0009047206A401C2062381EA7F10107F4DC27
:1004D00007E0D4E9012118F805009047206A401C84
:1004E0002062281EA5F10105F3DC2046AFF3008051
:1004F0002078000602D50220BDE8F0870120FBE746
:1005000001694A1C02610878704700B58FB0CDE9D7
:1005100001310021059105497944CDE903101146C7
:100520006846FFF7C1FE0FB000BD0000E5FFFFFF0A
:10053000074B70B50D467B44FFF7E7FF044628469E
:1005400000F00CF810B14FF0FF3070BD204670BDC8
:100550001727000000487047F4010020007B00F0DE
:100560008000704700487047F40100207546FFF78F
:10057000F9FFAE4605006946534620F00700854660
:1005800018B020B5FFF734FEBDE820404FF000065C
:100590004FF000074FF000084FF0000B21F007016B
:1005A000AC46ACE8C009ACE8C009ACE8C009ACE8AE
:1005B000C0098D46704710B50446AFF30080204651
:1005C000BDE81040FFF700BE00BFFEE770472DE911
:1005D000F0410246002500260020002300240027C9
:1005E00091F803C00CF00F0591F803C00CF0100C4B
:1005F000BCF1000F03D091F802C04CEA050591F858
:1006000000C0BCF1000F31D0146800202BE04FF087
:10061000010C0CFA00F3B1F800C00CEA03069E428C
:1006200020D183004FF00F0C0CFA03F7BC4305FAFE
:1006300003FC4CEA040491F803C0BCF1280F06D176
:100640004FF0010C0CFA00FCC2F814C00AE091F85B
:1006500003C0BCF1480F05D14FF0010C0CFA00FCAF
:10066000C2F810C0401C0828D1D31460B1F800C0F3
:10067000BCF1FF0F34DD546800202EE000F1080CBF
:100680004FF0010808FA0CF3B1F800C00CEA0306B9
:100690009E4221D183004FF00F0C0CFA03F7BC43AC
:1006A00005FA03FC4CEA040491F803C0BCF1280FDE
:1006B00005D100F1080C08FA0CF8C2F8148091F882
:1006C00003C0BCF1480F07D100F1080C4FF001083E
:1006D00008FA0CF8C2F81080401C0828CED35460E9
:1006E000BDE8F08100BFFEE700BFFEE770470000F5
:1006F00070B5002100230F22C47804B3154C246880
:1007000004F4E064C4F5E064210AC1F10403CA40C2
:10071000447804FA03F184781440214309010E4C13
:100720000678A155047804F01F050124AC40057833
:100730006D11AD0005F1E025C5F8004109E0047830
:1007400004F01F050124AC40044D0678761145F8ED
:10075000264070BD0CED00E000E400E080E100E028
:1007600002490143024A1160704700000000FA0587
:100770000CED00E07047000029B1064AD26902433F
:10078000044BDA6104E0034AD2698243014BDA6127
:10079000704700000010024029B1064A1269024366
:1007A000044B1A6104E0034A12698243014B1A6147
:1007B000704700000010024029B1064A92690243C6
:1007C000044B9A6104E0034A92698243014B9A61A7
:1007D000704700000010024029B1064AD268024367
:1007E000044BDA6004E0034AD2688243014BDA60CA
:1007F000704700000010024030B5002100220024A4
:1008000000232D4D6D6805F00C0121B1042905D0A0
:10081000082923D105E0294D056022E0274D056018
:100820001FE0254D6D6805F47012234D6D6805F4C9
:100830008034022505EB92421CB9214D55430560D9
:100840000BE01D4D6D6805F400351DB11C4D554381
:10085000056002E0194D5543056002E0174D056043
:1008600000BF00BF144D6D6805F0F0010909154D7A
:100870006B5C0568DD4045600F4D6D6805F4E06117
:10088000090A104D6B5C4568DD4085600A4D6D6856
:1008900005F46051C90A0B4D6B5C4568DD40C560CD
:1008A000054D6D6805F44041890B074D6B5CC568CB
:1008B000B5FBF3F5056130BD0010024000127A006F
:1008C00000093D00F00000200001002008B50121D2
:1008D0000820FFF771FF4FF4F070ADF80000102012
:1008E0008DF8030003208DF8020069460148FFF7E8
:1008F0006EFE08BD000C0140704710B500F002F814
:1009000010BD00000CB50020019000903348006835
:1009100040F480303149086000BF3048006800F47E
:10092000003000900198401C0190009818B901987F
:10093000B0F5A06FF1D12948006800F4003010B183
:100940000120009001E0002000900098012843D190
:100950002348006840F010002149086008460068FC
:1009600020F0030008600846006840F002000860BC
:100970001A48406819494860084640684860084677
:10098000406840F4806048600846406820F47C106D
:1009900048600846406840F4E8104860084600682F
:1009A00040F08070086000BF0C48006800F00070E4
:1009B0000028F9D00948406820F003000749486042
:1009C0000846406840F00200486000BF03484068A5
:1009D00000F00C000828F9D10CBD00000010024006
:1009E00000200240042808D14FF0E021096941F0BD
:1009F00004014FF0E022116107E04FF0E0210969A6
:100A000021F004014FF0E0221161704770470000AF
:100A100010B51348006840F001001149086008460D
:100A20004068104908400E494860084600680E4971
:100A300008400B4908600846006820F480200860E0
:100A40000846406820F4FE0048604FF41F008860AC
:100A5000FFF753FF4FF000600449086010BD00002D
:100A6000001002400000FFF8FFFFF6FE08ED00E076
:100A700010B50121094800F054F868B10848008811
:100A800040F40040064908800121044800F03AF88B
:100A90000021024800F039F810BD000000140040A9
:100AA0002A0000207FB505460C4601212020FFF7D3
:100AB00063FEADF80450ADF800400020ADF806002C
:100AC000ADF8020069460E4800F046F801221146D2
:100AD0000B4800F037F80121094800F016F83720DC
:100AE0008DF80C0000208DF80D0002208DF80E000E
:100AF00001208DF80F0003A8FFF7FAFD7FBD00006D
:100B000000140040CA430282704721B1028842F0BB
:100B10000102028004E002884FF6FE731A40028050
:100B2000704730B50246002000230024158A05EAEC
:100B30000103958905EA010413B10CB1012000E01D
:100B4000002030BD1AB183890B43838102E0838981
:100B50008B43838170470000002202881D4B98421E
:100B60000ED01D4B98420BD0B0F1804F08D01B4BDC
:100B7000984205D01A4B984202D01A4B984204D1A1
:100B80004FF68F731A404B881A43174B984207D081
:100B9000164B984204D04FF6FF431A40CB881A43B5
:100BA00002808B8883850B8803850A4B98420BD083
:100BB000094B984208D00E4B984205D00D4B9842F5
:100BC00002D00D4B984201D10B7A03860123838218
:100BD00070470000002C0140003401400004004038
:100BE00000080040000C00400010004000140040CD
:100BF00000400140004401400048014000B593B06E
:100C000040F22551F74801F0FFF9002801F0D680A5
:100C1000F44801F0B5FAF449F44A126841F82200A8
:100C2000F2480068401CF149086008460068012845
:100C30005DD1ED480068B12859D0EB480068B22872
:100C400055D0E9480068B32851D0E7480068B42877
:100C50004DD0E5480068B52849D0E3480068B6287B
:100C600045D0E1480068B72841D0DF480068B8287F
:100C70003DD0DD480068B92839D0DB480068A1289C
:100C800035D0D9480068A22831D0D7480068A328B9
:100C90002DD0D5480068A42829D0D3480068A528BD
:100CA00025D0D1480068A62821D0CF480068A728C1
:100CB0001DD0CD480068C32819D0CB480068C4288F
:100CC00015D0C9480068C52811D0C7480068C62893
:100CD0000DD0C5480068D42809D0C3480068D5287D
:100CE00005D0C1480068F42801D000200860BF4842
:100CF0000068022806D1BC480068B12802D1012052
:100D0000BB490860B9480068022806D1B6480068A7
:100D1000B82802D10920B6490860B4480068022802
:100D200006D1B1480068B92802D10A20B04908604C
:100D3000AE480068022806D1AB480068F42802D10A
:100D40000420AB490860A948006801280CD1A648D6
:100D50000068C32808D10120A54908600020A549E2
:100D600008600120A4490860A048006801280AD151
:100D70009D480068C42806D101209D4908609D490E
:100D800008609D4908609948006801280CD1964880
:100D90000068C52808D101209549086000209749BE
:100DA00008600120944908609048006801280AD131
:100DB0008D480068C62806D101208D4908608F49FA
:100DC00008608D4908608948006801280ED186486E
:100DD0000068D4280AD1012085490860002086498E
:100DE0000860032083490860844908607F480068E0
:100DF000012806D17C480068D52802D1002080490E
:100E000008607A480068042841D177480068A12822
:100E10003DD10220764908607348406879490860EE
:100E200008460068012808D16F4880687649086044
:100E30006D48C0687549086029E07248006802285A
:100E400009D16948806840426F4908606648C068B7
:100E50006E4908601BE06B48006803280AD16248AD
:100E600080684042684908605F48C06840426749FE
:100E700008600CE063480068042808D15A4880687C
:100E8000614908605848C068404260490860574856
:100E90000068052871D154480068A2286DD103204C
:100EA0005349086050484068594908604E48806876
:100EB000584908605648006840430968554A126816
:100EC00001FB020054490968534A126801FB1200F1
:100ED00052490968514A126801FB1200119000281A
:100EE00001DB119801E0119840420B9003F0C5FC22
:100EF000CDE90C0102F0DCFBCDE90E0103F08EFC24
:100F00004749086038480069012808D136484068D8
:100F10003F490860344880683E49086029E032480B
:100F20000069022809D130484068404238490860C9
:100F30002D488068374908601BE02B48006903286A
:100F40000AD12948406840423149086026488068F3
:100F50004042304908600CE023480069042808D169
:100F6000214840682A4908601F4880684042294952
:100F700008601D48C0682B4908601C4800680628A6
:100F800074D119480068A328FAD1052018490860CF
:100F90001548406824490860134880682349086060
:100FA0001148C068224908600F480069214908605B
:100FB0001D48006840431D4909681C4A126801FB2E
:100FC000020015490968144A126801FB120013490E
:100FD0000968124A126801FB1200119000282BDBED
:100FE00011982BE000380140CC0100206400002063
:100FF00060000020C8000020D0000020CC000020AD
:10100000EC000020680000206C0000207000002030
:101010007C00002080000020000000200400002050
:101020001000002084000020880000208C00002098
:101030009000002094000020119840420B9003F093
:101040001CFCCDE90C0102F033FBCDE90E0103F0ED
:10105000E5FBF6490860F6484069012807D00228F8
:101060007ED003287DD004287CD1EFE3EFE3F14864
:101070000068002877D1F04800685A285BDBEE480A
:10108000006803F0FAFBED4AED4BCDE9060103F0F1
:101090005BFC0022EB4BCDE9080103F02BFACDE914
:1010A0000A0102F0B5FACDE90E01E048006803F04C
:1010B000E4FBCDE90C01DDE90E2303F045FCCDE9AD
:1010C000100103F0ABFBE0490860DB480068C0F1A9
:1010D000B400019003F0D1FBD84AD94BCDE902010D
:1010E00003F032FC0022D74BCDE9040103F002FAF1
:1010F000CDE9060101F08EFCCDE90A01CB4800687C
:1011000003F0BBFBCDE90801DDE90A2303F01CFC79
:10111000CDE90E01C548006803F0AFFBCDE90C0135
:10112000DDE90E2303F02AF9CDE9100103F076FB87
:10113000C649086015E1C048006803F09EFBBF4A3D
:10114000BF4BCDE9060103F0FFFB0022BD4BCDE90B
:10115000080103F0CFF9CDE90A0102F059FA03E0E2
:1011600000E19BE299E244E0CDE90E01AF4800685E
:1011700003F083FBCDE90C01DDE90E2303F0E4FB72
:10118000CDE9100103F04AFBAF490860AA480068A6
:1011900003F073FBA94AAA4BCDE9020103F0D4FB8B
:1011A0000022A84BCDE9040103F0A4F9CDE9060122
:1011B00001F030FCCDE90A019C48006803F05DFBBA
:1011C000CDE90801DDE90A2303F0BEFBCDE90E01FC
:1011D0009648006803F051FBCDE90C01DDE90E23D0
:1011E00003F0D8FDCDE9100103F018FB9749086022
:1011F000B7E0914800685A285BDB8F48006803F02D
:101200003CFB8E4A8E4BCDE9060103F09DFB00228C
:101210008C4BCDE9080103F06DF9CDE90A0102F02C
:10122000F7F9CDE90E018148006803F026FBCDE90E
:101230000C01DDE90E2303F087FBCDE9100103F07B
:10124000EDFA824908607C480068C0F1B400019062
:1012500003F013FB794A7A4BCDE9020103F074FBEA
:101260000022784BCDE9040103F044F9CDE90601F1
:1012700001F0D0FBCDE90A016C48006803F0FDFAEB
:10128000CDE90801DDE90A2303F05EFBCDE90E019B
:101290006648006803F0F1FACDE90C01DDE90E23A0
:1012A00003F06CF8CDE9100103F0B8FA6649086064
:1012B00057E06148006803F0E0FA604A604BCDE90E
:1012C000060103F041FB00225E4BCDE9080103F06B
:1012D00011F9CDE90A0102F09BF9CDE90E0153485D
:1012E000006803F0CAFACDE90C01DDE90E2303F032
:1012F0002BFBCDE9100103F091FA544908604E48E8
:10130000006803F0BAFA4D4A4D4BCDE9020103F0F3
:101310001BFB00224B4BCDE9040103F0EBF8CDE9B8
:10132000060101F077FBCDE90A014048006803F0AF
:10133000A4FACDE90801DDE90A2303F005FBCDE9B4
:101340000E013A48006803F098FACDE90C01DDE996
:101350000E2303F01FFDCDE9100103F05FFA3A49B7
:1013600008609AE133480068002871D1324800686B
:101370005A286FDB3048006803F07FFA2F4A304B61
:10138000CDE9060103F0E0FA00222E4BCDE9080179
:1013900003F0B0F8CDE90A0102F03AF9CDE90E0107
:1013A0002248006803F069FACDE90C01DDE90E235B
:1013B00003F0CAFACDE9100103F030FA23490860BE
:1013C0001D480068C0F1B400019003F056FA1B4AB2
:1013D0001B4BCDE9020103F0B7FA0022194BCDE90E
:1013E000040103F087F8CDE9060101F013FBCDE914
:1013F0000A010E48006803F040FACDE90801DDE972
:101400000A2303F0A1FACDE90E010848006803F0B1
:1014100034FACDE90C01DDE90E2302F0AFFFCDE98E
:10142000100103F0FBF90849086024E1A000002046
:10143000CC01002090000020940000201F85EB517B
:10144000B81E094000806640980000209C000020E3
:1014500059E0FFE7FE48006803F00FFAFD4AFE4B33
:10146000CDE9060103F070FA0022FC4BCDE908013A
:1014700003F040F8CDE90A0102F0CAF8CDE90E0107
:10148000F748006803F0F9F9CDE90C01DDE90E2316
:1014900003F05AFACDE9100103F0C0F9F1490860F0
:1014A000EB48006803F0E9F9EA4AEB4BCDE90201A9
:1014B00003F04AFA0022E94BCDE9040103F01AF8DF
:1014C000CDE9060101F0A6FACDE90A01E448006879
:1014D00003F0D3F9CDE90801DDE90A2303F034FA7A
:1014E000CDE90E01DE48006803F0C7F9CDE90C0133
:1014F000DDE90E2303F04EFCCDE9100103F08EF977
:10150000D9490860B7E0D24800685A285BDBD04868
:10151000006803F0B2F9CF4ACF4BCDE9060103F0E2
:1015200013FA0022CD4BCDE9080102F0E3FFCDE92B
:101530000A0102F06DF8CDE90E01C948006803F018
:101540009CF9CDE90C01DDE90E2303F0FDF9CDE9AD
:10155000100103F063F9C4490860BD480068C0F198
:10156000B400019003F089F9BA4ABB4BCDE90201FE
:1015700003F0EAF90022B94BCDE9040102F0BAFF09
:10158000CDE9060101F046FACDE90A01B448006848
:1015900003F073F9CDE90801DDE90A2303F0D4F97A
:1015A000CDE90E01AE48006803F067F9CDE90C0102
:1015B000DDE90E2302F0E2FECDE9100103F02EF981
:1015C000A849086057E0A248006803F056F9A14A0C
:1015D000A14BCDE9060103F0B7F900229F4BCDE9FD
:1015E000080102F087FFCDE90A0102F011F8CDE908
:1015F0000E019B48006803F040F9CDE90C01DDE9DC
:101600000E2303F0A1F9CDE9100103F007F9964983
:1016100008608F48006803F030F98E4A8E4BCDE9A0
:10162000020103F091F900228C4BCDE9040102F094
:1016300061FFCDE9060101F0EDF9CDE90A01884825
:10164000006803F01AF9CDE90801DDE90A2303F087
:101650007BF9CDE90E018248006803F00EF9CDE96F
:101660000C01DDE90E2303F095FBCDE9100103F039
:10167000D5F87C4908607D48006840427B49086095
:101680007B4800687A49086077480068404276499C
:101690000860744800687349086042E37548006850
:1016A00000287CD16A4800685A285BDB68480068DB
:1016B00003F0E3F8674A684BCDE9060103F044F90B
:1016C0000022664BCDE9080102F014FFCDE90A01C2
:1016D00001F09EFFCDE90E016148006803F0CDF8EE
:1016E000CDE90C01DDE90E2303F02EF9CDE910015F
:1016F00003F094F85C49086055480068C0F1B400F4
:10170000019003F0BAF8534A534BCDE9020103F0BC
:101710001BF90022514BCDE9040102F0EBFECDE9AB
:10172000060101F077F9CDE90A014D48006803F0A0
:10173000A4F8CDE90801DDE90A2303F005F9CDE9B4
:101740000E014748006803F098F8CDE90C01DDE987
:101750000E2302F013FECDE9100103F05FF84149BA
:1017600008602AE13A48006803F087F8394A3A4BA2
:10177000CDE9060103F0E8F80022384BCDE9080175
:1017800002F0B8FECDE90A0101F042FFCDE90E01F9
:101790003348006803F071F8CDE90C0100E03CE04B
:1017A000DDE90E2303F0D0F8CDE9100103F036F89F
:1017B0002D4908602648006803F05FF8254A264B4B
:1017C000CDE9020103F0C0F80022244BCDE9040169
:1017D00002F090FECDE9060101F01CF9CDE90A0105
:1017E0001F48006803F049F8CDE90801DDE90A2344
:1017F00003F0AAF8CDE90E011948006803F03DF89E
:10180000CDE90C01DDE90E2303F0C4FACDE91001A6
:1018100003F004F813490860CFE00D4800685A2827
:1018200073DB0B48006803F028F80A4A0A4BCDE93D
:10183000060103F089F80022084BCDE9080102F007
:1018400059FECDE90A0101F0E3FE15E0CAE069E2C4
:10185000940000201F85EB51B81E094000806640AF
:10186000A00000209C00002098000020880000209C
:101870008C00002090000020CDE90E01FE48006899
:1018800002F0FBFFCDE90C01DDE90E2303F05CF86B
:10189000CDE9100102F0C2FFF8490860F84800687D
:1018A000C0F1B400019002F0E8FFF64AF64BCDE932
:1018B000020103F049F80022F44BCDE9040102F0E3
:1018C00019FECDE9060101F0A5F8CDE90A01EA48C3
:1018D000006802F0D2FFCDE90801DDE90A2303F038
:1018E00033F8CDE90E01E448006802F0C6FFCDE907
:1018F0000C01DDE90E2302F041FDCDE9100102F0FB
:101900008DFFE349086058E0FFE7DD48006802F01A
:10191000B4FFDC4ADC4BCDE9060103F015F80022E8
:10192000DA4BCDE9080102F0E5FDCDE90A0101F04D
:101930006FFECDE90E01D048006802F09EFFCDE9B0
:101940000C01DDE90E2302F0FFFFCDE9100102F0EA
:1019500065FFCA490860CA48006802F08EFFC94A9C
:10196000C94BCDE9020102F0EFFF0022C74BCDE9E0
:10197000040102F0BFFDCDE9060101F04BF8CDE90D
:101980000A01BD48006802F078FFCDE90801DDE9F1
:101990000A2302F0D9FFCDE90E01B748006802F032
:1019A0006CFFCDE90C01DDE90E2303F0F3F9CDE97D
:1019B000100102F033FFB6490860B64800684042A3
:1019C000B4490860B44800684042B3490860B04870
:1019D00000684042AE490860A84800684042A749F4
:1019E00008609EE1AD48006800287CD1A4480068EA
:1019F0005A285BDBA248006802F03FFFA14AA24BD5
:101A0000CDE9060102F0A0FF0022A04BCDE90801BC
:101A100002F070FDCDE90A0101F0FAFDCDE90E01F9
:101A20009548006802F029FFCDE90C01DDE90E239D
:101A300002F08AFFCDE9100102F0F0FE8F49086044
:101A40008F480068C0F1B400019002F016FF8D4A83
:101A50008D4BCDE9020102F077FF00228B4BCDE9DF
:101A6000040102F047FDCDE9060100F0D3FFCDE906
:101A70000A018148006802F000FFCDE90801DDE9B4
:101A80000A2302F061FFCDE90E017B48006802F0F5
:101A9000F4FECDE90C01DDE90E2302F06FFCCDE987
:101AA000100102F0BBFE7A49086027E17448006823
:101AB00002F0E3FE734A744BCDE9060102F044FFE5
:101AC0000022724BCDE9080102F014FDCDE90A01B4
:101AD00001F09EFDCDE90E016748006802F0CDFEE1
:101AE000CDE90C0100E03CE0DDE90E2302F02CFF23
:101AF000CDE9100102F092FE60490860604800687C
:101B000002F0BBFE5F4A604BCDE9020102F01CFF10
:101B100000225E4BCDE9040102F0ECFCCDE90601A8
:101B200000F078FFCDE90A015348006802F0A5FEF5
:101B3000CDE90801DDE90A2302F006FFCDE90E0137
:101B40004D48006802F099FECDE90C01DDE90E2355
:101B500003F020F9CDE9100102F060FE4C49086065
:101B6000CCE0474800685A285BDB4548006802F033
:101B700084FE444A444BCDE9060102F0E5FE002212
:101B8000424BCDE9080102F0B5FCCDE90A0101F0B4
:101B90003FFDCDE90E013848006802F06EFECDE948
:101BA0000C01DDE90E2302F0CFFECDE9100102F0B9
:101BB00035FE3749086032480068C0F1B400019032
:101BC00002F05BFE2F4A304BCDE9020102F0BCFE71
:101BD00000222E4BCDE9040102F08CFCCDE9060178
:101BE00000F018FFCDE90A012348006802F045FE25
:101BF000CDE90801DDE90A2302F0A6FECDE90E01D8
:101C00001D48006802F039FECDE90C01DDE90E2324
:101C100002F0B4FBCDE9100102F000FE17490860A4
:101C20006CE01748006802F028FE164A164BCDE912
:101C3000060102F089FE0022144BCDE9080102F0F2
:101C400059FCCDE90A0101F0E3FCCDE90E010A4897
:101C5000006802F012FECDE90C01DDE90E2302F06E
:101C600073FECDE9100102F0D9FD0949086004486E
:101C7000006802F002FE13E0A00000209C0000209B
:101C8000940000201F85EB51B81E0940008066407B
:101C900098000020880000208C0000209000002088
:101CA0004A4A4B4BCDE9020102F04EFE0022494B5D
:101CB000CDE9040102F01EFCCDE9060100F0AAFE08
:101CC000CDE90A014448006802F0D7FDCDE90801DA
:101CD000DDE90A2302F038FECDE90E013E48006836
:101CE00002F0CBFDCDE90C01DDE90E2303F052F843
:101CF000CDE9100102F092FD3849086038480068CB
:101D0000374908603748006840423649086036481D
:101D10000068354908603148006840422F49086032
:101D200000BF00BF31480068042812D13048006865
:101D3000A5280ED106202F4908602D4840682E495D
:101D400008602B4880682D4908602948C0682C49E4
:101D5000086026480068042812D125480068A72892
:101D60000ED10820234908602148406825490860B1
:101D70001F488068244908601D48C06823490860DE
:101D80001A48006803280ED119480068A6280AD10D
:101D9000072018490860164840681D490860144823
:101DA00080681C49086011480068401E104951F8BD
:101DB0002000FF2802D100200C49086040F2255184
:101DC000154800F0B7F813B000BD00001F85EB51B7
:101DD000B81E094000806640A00000209C00002042
:101DE000880000208C000020980000206400002063
:101DF000CC01002060000020D4000020D80000208A
:101E0000DC000020E0000020E4000020E8000020CA
:101E10007400002078000020003801407047000066
:101E200070B540F225513A4800F0EEF8002869D02C
:101E3000374800F0A5F9064602F036FD04460D4687
:101E40000022344B2046294602F0ACFC06D1324831
:101E5000007818B901203049087053E000222F4B58
:101E60002046294602F09EFC07D12B480078012825
:101E700003D102202849087044E02748007802284E
:101E800005D1274830C00320234908703AE0224892
:101E90000078032805D1234830C004201E4908706B
:101EA00030E01D480078042805D11F4830C00520C7
:101EB0001949087026E018480078052805D11B4804
:101EC00030C00620144908701CE00022184B204640
:101ED000294602F067FC07D10F480078062803D195
:101EE00007200D4908700DE00022114B20462946BD
:101EF00002F058FC06D108480078072802D10020DB
:101F00000549087040F22551014800F013F870BDF2
:101F100000480040006066405000002000606840BB
:101F20003000002038000020400000204800002041
:101F300000E06F4010B50022002340F66A14A14271
:101F400000D100BF0A1201249440A3B2DC430480F4
:101F500010BD21B1828942F40052828104E082895D
:101F60004DF6FF731A4082817047000010B5044699
:101F70002048844209D101218803FEF72DFC00216D
:101F80004FF48040FEF728FC32E01B48844209D120
:101F900001214804FEF700FC00214FF40030FEF759
:101FA000FBFB25E01548844209D101218804FEF796
:101FB000F3FB00214FF48020FEF7EEFB18E0104801
:101FC000844209D10121C804FEF7E6FB00214FF449
:101FD0000020FEF7E1FB0BE00A48844208D1012112
:101FE0000805FEF7D9FB00214FF48010FEF7D4FB63
:101FF00010BD00000038014000440040004800408F
:10200000004C00400050004070B502460024002300
:102010000025002040F66A16B14200D100BFC1F38E
:10202000421501F01F03012606FA03F3012D02D128
:102030009689334006E0022D02D1168A334001E032
:10204000968A33400C12012606FA04F416883440AE
:1020500013B10CB1012000E0002070BDF0B50346C3
:10206000002400260025002040F66A17B94200D15E
:1020700000BF1846C1F3421401F01F06012707FAFA
:1020800006F5012C01D10C3004E0022C01D11030F6
:1020900000E014301AB107682F43076002E00768B8
:1020A000AF430760F0BD00002DE9F04786B005465C
:1020B0000E460024A24600BFA1460027B08900B109
:1020C00000BF2F462C8A4CF6FF700440F088044372
:1020D0002C82AC894EF6F3100440B0883189084355
:1020E000718908430443AC81AC8A4FF6FF40044039
:1020F000B0890443AC8201A8FEF77EFB1F488742EB
:1021000002D1DDF810A001E0DDF80CA0A88900F4F0
:10211000004040B10AEBCA0000EB0A1031684900E8
:10212000B0FBF1F807E00AEBCA0000EB0A103168D7
:102130008900B0FBF1F86420B8FBF0F0040120093D
:10214000642101FB1089A88900F4004040B13220CD
:1021500000EBC900B0FBF1F000F00700044308E019
:10216000322000EB09106421B0FBF1F000F00F0009
:1021700004432C8106B0BDE8F08700000038014020
:1021800001468888C0F30800704700BFFEE7490099
:1021900050EAC12018BF04204A0D18BF40F00100CA
:1021A00040F2FF72B2EB515F08BF40F0020001281D
:1021B00008BF0520704700002DE9F74F144694B082
:1021C0000021C4E902111599079121F00045C94980
:1021D0008D4206DC1599C4E9000117B00020BDE866
:1021E000F08FC549DFF814A3A9423CDD0799C44E1E
:1021F0000029C44FC44A1599534619DD02F0CAFD9F
:10220000554506D0C14AC24B02F0C4FDC4E90001E5
:102210000AE04FF0D352BE4B02F0BCFD32463B46C3
:1022200002F0B8FDC4E9000117B00120BDE8F08F4D
:1022300002F0A4F8554506D0B44AB54B02F09EF81A
:10224000C4E900010AE04FF0D352B14B02F096F816
:1022500032463B4602F092F8C4E9000117B04FF055
:10226000FF30BDE8F08FAB49A942159978DB21F02A
:10227000004183468846A84AA84B02F065FB00222D
:10228000A74B02F07BF802F0C9FA099002F0F5FAC8
:1022900006460F469C4A534602F056FB43465A46B2
:1022A00002F086FC80468A46984A994B3046394669
:1022B00002F04AFB2A0D01250B924246534602F0DA
:1022C00077FC032DC4E9000139D00B98C1F30A5102
:1022D000401A05EB45111139814230DA9148C34665
:1022E000784400EB0510CDF80CA00C90D0E9002349
:1022F0003046394602F028FB02460B460491069010
:102300005846039902F046FD80468A4602460B462F
:102310005846039902F03EFD049B069A02F03AFDEE
:1023200083460C9803913946D0E90223304602F0E7
:102330000BFB5A46039B02F02DFD6D1CBDE7079871
:102340000028A2BF099817B0BDE8F08F616881F03E
:1023500000416160099817B04042BDE8F08FFFE787
:1023600084461598C1F31301C0F30A50A0F2F5306A
:102370004FEA601800F01F06C6F1200013900020FD
:102380000690079041F4801E05206D4676B1664A9E
:1023900008EB00017A4452F8213002EB8101B3408E
:1023A0004A68139922FA01F1194305E05F4908EBE5
:1023B0000002794451F82210A1FB0E27A1FB0C1357
:1023C0001A449A4234BF0123002303EB070A05EBAA
:1023D0008003D3E901B70F448F4234BF01210021AC
:1023E00093448B4411B1934502D903E0934501D244
:1023F000012100E00021C3E901B7514445F8201054
:10240000011EA0F10100C1DC0298059F00F10050FF
:10241000800F12900298DDE90356800002F02DFA39
:10242000834628460D9102F03FFA6FF01D0202F03C
:10243000CDFDCDE90E01304602F036FA6FF03D02D7
:1024400002F0C4FD80468A46384602F02DFA6FF04D
:102450005D0202F0BBFD074642465346119101F072
:102460008DFFDDE90E2301F089FF5A460D9B01F037
:1024700085FF00250E465A4628460D9B02F08AFC31
:10248000DDE90E2302F086FC4246534602F082FC50
:102490003A46119B02F08CFBDFF898A0244A534681
:1024A00002F052FA07468846234A244B3146284612
:1024B00002F04AFA3A46434601F060FF0746884672
:1024C0004FF0A84253463146284602F03DFA3A46BC
:1024D000434601F053FF159A12F0004F04D0129AB0
:1024E00081F0004152421292C4E90001129817B0E3
:1024F000BDE8F08FFB21E93F7CD90240FB21F93F89
:102500007370032E8A19A33B000040543163621A92
:1025100061B4D03DFB21394183C8C96D305FE43FD0
:102520000000E03FBC2D0000382D00001A2D0000F7
:10253000182D4454FB21F93D3326A611460B113CBE
:102540002DE9FF4D21F0004807460C46B8F1795FB0
:1025500008DA02F063F9002801BF0020324904B014
:10256000BDE8F08D3A4623461046194602F0ECF9D4
:10257000054602462D480E460B460621784400F0DB
:102580005DF82A46334602F0DFF9DDE90223824690
:102590008B463846214602F0D7F904460F4652468C
:1025A0005B462846314602F0CFF922463B4602F010
:1025B000F1FB07468A464FF0FF322846314602F0CB
:1025C00005FD1B4A90450ADA3A46534602F0E2FB03
:1025D00004B00022BDE8F04D134B02F0E9BA154AF1
:1025E0004245A8BFA8F500154FF00004B8BF124D32
:1025F00022462B4602F0CEFB0646884622462B4654
:102600000020094902F0C6FB04460D463A465346EF
:102610003046414602F0BEFB04B022462B46BDE8E0
:10262000F04D02F0C5BA00000000F03FF02A0000B3
:102630003333D33F0000E93F0000D23F2DE9F041A2
:102640004F1E00EBC7010446D1E9000115461E46A6
:1026500037F006020DD02A46334602F075F97F1E88
:1026600004EBC703D3E9002301F088FE37F006022C
:10267000F1D1022F25D0042F13D0062F18BFBDE8AB
:10268000F0812A46334602F05FF9D4E90A2301F0CB
:1026900075FE2A46334602F057F9D4E9082301F0C3
:1026A0006DFE2A46334602F04FF9D4E9062301F0C5
:1026B00065FE2A46334602F047F9D4E9042301F0C7
:1026C0005DFE2A46334602F03FF9D4E9022301F0C9
:1026D00055FE2A46334602F037F9D4E90023BDE817
:1026E000F04101F04BBE00002DE9FF4D054621F001
:1026F000004084B00C46B0F1795F0BDA2846FFF752
:1027000046FD042808BF00F06FF8284608B02146AF
:10271000BDE8F08D2A460B46104602F015F9064634
:102720000F462A46234602F00FF9804626488A467D
:1027300032463B4605217844FFF780FF83461098D8
:10274000029160B3214A224B4046514602F0FCF808
:10275000CDE900015A4640465146029B02F0F4F88A
:1027600082468846DDE906014FF0FF3202F02EFC7A
:102770005246434602F00EFB32463B4602F0E4F876
:10278000DDE9062302F006FBDDE9002302F002FB8F
:1027900008B02A462346BDE8F04D02F009BA0B46C0
:1027A0005A463046394602F0CFF8084A084B01F045
:1027B000E5FD4246534602F0C7F808B02A462346D4
:1027C000BDE8F04D01F0DABD2E2A000049555555FF
:1027D0005555C5BF012202F0F9BB00221346104631
:1027E000114601F087BE0000024A0020110702F0E6
:1027F000EDBB000001FDFFFF30380A2801D20120A7
:10280000704700207047014600BF70472DE9F04730
:1028100005460C4616461F46DDF820804FF00A0A92
:10282000B54201DBBC4218DD12E005FB05F004FBFC
:10283000040008FB1809B9F1000F04DC504601F050
:10284000D5F86D1C04E0504601F092F9641E00BFFB
:10285000B542EADBBC42E8DC17E012E005FB05F01C
:1028600004FB040008FB1809B9F1000F04DC504612
:1028700001F0CEFB641C04E0504600F0F5FF6D1E35
:1028800000BFB542EADCBC42E8DBBDE8F0872DE9D9
:10289000F04705460C4616461F46DDF820804FF0EF
:1028A0000A0AB54201DBBC4218DA12E005FB05F06A
:1028B00004FB040008FB1809B9F1000F04DC5046C2
:1028C00001F0A6FB641C04E0504601F08FF86D1C7B
:1028D00000BFB542EADBBC42E8DB17E012E005FBD3
:1028E00005F004FB040008FB1809B9F1000F04DC33
:1028F000504600F0B9FF6D1E04E0504601F038F973
:10290000641E00BFB542EADCBC42E8DCBDE8F087EB
:102910002DE9F04705460C4616461F46DDF8208097
:102920004FF00A0AB54201DCBC4218DA12E005FB9E
:1029300005F004FB040008FB1809B9F1000F04DCE2
:10294000504600F091FF6D1E04E0504601F060FB20
:10295000641C00BFB542EADCBC42E8DB17E012E0D1
:1029600005FB05F004FB040008FB1809B9F1000F92
:1029700004DC504601F0FCF8641E04E0504601F00F
:1029800035F86D1C00BFB542EADBBC42E8DCBDE8AF
:10299000F0872DE9F04705460C4616461F46DDF840
:1029A00020804FF00A0AB54201DCBC4218DD12E07B
:1029B00005FB05F004FB040008FB1809B9F1000F42
:1029C00004DC504601F0D4F8641E04E0504600F0E8
:1029D0004BFF6D1E00BFB542EADCBC42E8DC17E0ED
:1029E00012E005FB05F004FB040008FB1809B9F12F
:1029F000000F04DC504600F0F9FF6D1C04E0504667
:102A000001F006FB641C00BFB542EADBBC42E8DB18
:102A1000BDE8F08700B5244B21F0004287B09A4210
:102A2000DCBF0022134629DD204B9A4208D140B971
:102A30004FF00100FDF705FDFFF7CFFE07B000BD29
:102A400003DBFFF7C7FE07B000BD02AAFFF7B4FB28
:102A500010F0030104BF0DF1080C9CE80F000DD02D
:102A6000012001290ED0022914D00DF1080C00908C
:102A70009CE80F00FFF738FE07B000BDFFF760FDD0
:102A800007B000BD0DF1080C00909CE80F00FFF7A7
:102A90002BFE05E00DF1080C9CE80F00FFF750FD40
:102AA00007B081F0004100BDFB21E93F0000F07F4D
:102AB00010B56FF00400FDF795FF0A4800680A4959
:102AC000B0FBF1F0094908700846007800EB4001BE
:102AD000C1EBC0104FF6FF7101EAC0000449088045
:102AE00010BD00001400002000127A0052000020E7
:102AF000540000200146114A12884A434FF0E02357
:102B00005A6100229A611A46126942F001021A6162
:102B100000BF4FF0E022106900F001021AB100F48A
:102B20008032002AF5D04FF0E022126922F0010233
:102B30004FF0E0231A6100229A6170475400002090
:102B40000146114A12784A434FF0E0235A610022AD
:102B50009A611A46126942F001021A6100BF4FF0F1
:102B6000E022106900F001021AB100F48032002A5C
:102B7000F5D04FF0E022126922F001024FF0E0237D
:102B80001A6100229A617047520000201CB5002192
:102B9000282001F08BFB41F28830FFF7ABFF0123C7
:102BA0000F225142282001F0A5F841F28830FFF7AA
:102BB000A1FF00216E2001F079FB41F28830FFF780
:102BC00099FF01230F2251426E2001F093F841F248
:102BD0008830FFF78FFF0021962001F067FB41F25C
:102BE0008830FFF787FF1E21972001F05FFB41F23D
:102BF0008830FFF77FFF1E216E2001F057FB41F266
:102C00008830FFF777FF002022211E233222CDE9F2
:102C100000100C21502001F0C9F841F28830FFF774
:102C200069FF0F21002001F041FB41F28830FFF7DE
:102C300061FF0020322103460246CDE90010082141
:102C4000322001F0B3F841F28830FFF753FF1CBD8A
:102C500000BF054A128802F04002002AF9D0C2B231
:102C6000014B1B1D1A807047003801400246002AA4
:102C700003DD002901DB00207047002A03DC002966
:102C800001DD0120F8E7002A03DA002901DC022037
:102C9000F2E7002A03DB002901DA0320ECE700BF9A
:102CA000EAE7002800DA404270471CB534211E20B4
:102CB00001F0FCFA41F28830FFF71CFF00213C20B4
:102CC00001F0F4FA41F28830FFF714FF00210846C2
:102CD00001F0ECFA41F28830FFF70CFF00202221CE
:102CE0006FF010031E22CDE900101121104601F0F3
:102CF0005DF841F28830FFF7FDFE2221002001F04F
:102D0000D5FA41F28830FFF7F5FE22213C2001F090
:102D1000CDFA41F28830FFF7EDFE6FF010011E2072
:102D200001F0C4FA41F28830FFF7E4FE01232222C9
:102D300011211E2000F0DEFF41F28830FFF7DAFE9D
:102D40001CBD00001CB54FF0000AD346FFF7B0FED3
:102D5000FDF7BCFD4FF4165000F0D0FC4FF4A0601E
:102D6000FDF7FEFC4FF4165000F018FD4FF4E13073
:102D700000F096F916E18C4800680B2872D2DFE863
:102D800000F006114A5E6CA1B5D0E5FEFD00874853
:102D9000016887A0FDF740FA8B4801688BA0FDF71A
:102DA0003BFAFEE02FE08F48006840B9022000F0B7
:102DB0001DFE854801688CA0FDF72EFA0BE08948BE
:102DC0000068012807D1022000F04EFD7E4801680E
:102DD00085A0FDF721FA8A48006840B9022001F079
:102DE00017F97248016887A0FDF716FA0BE08448CE
:102DF0000068012807D16D48016882A0FDF70CFA30
:102E0000022000F0B5FE854800680128CBD00020E4
:102E100065490860C5E06548016881A0FDF7FCF9D7
:102E20006948016884A0FDF7F7F989480168894875
:102E3000006801F0AFF900205B490860B1E0864806
:102E4000036886480268864801688648006800F082
:102E500051FF002054490860A3E05448006800284E
:102E600008DD03E09CE0022000F0FEFC4F48006813
:102E70000028F8D14D480068002807DA02E0022057
:102E800000F0B4FD494800680028F8D14E480068B9
:102E9000002807DD02E0022000F06AFE4A480068D0
:102EA0000028F8D148480068002807DA02E002202C
:102EB00001F0AEF8444800680028F8D100203A49F3
:102EC00008606EE06848007868490968CDE900103C
:102ED0006748036867480268674801686748006890
:102EE00000F064FF0020304908605AE06448006840
:102EF00001F0C3FC04460D466248006801F0BDFCC9
:102F000006460F466048006801F0B7FC804632462E
:102F10003B46CDE9004500F01BF90020224908603E
:102F20003FE02248006800F1640A584800685849A8
:102F3000096801FB0A0B5946504601F0B7F94FF0FA
:102F4000000AD3460020184908602AE0514800686A
:102F500001F093FC04460D464F48006801F08DFCDB
:102F600006460F464D48006801F087FC8046324611
:102F70003B46CDE9004500F0D9F901E00AE003E065
:102F80000020094908600CE0FFF700FE0020064918
:102F9000086006E0FFF789FE00200349086000E0B2
:102FA00000BF00BFE7E60000600000200000002036
:102FB00070616765302E74312E7478743D22256CF3
:102FC0006422FFFFFF0000000400002070616765BD
:102FD000302E74332E7478743D22256C6422FFFFEA
:102FE000FF000000C800002070616765332E743355
:102FF0002E7478743D22256C6422FFFFFF000000D0
:10300000CC00002070616765332E74322E747874A2
:103010003D22256C6422FFFFFF000000D00000204D
:1030200070616765312E74352E7478743D22256C7D
:103030006422FFFFFF00000070616765312E743766
:103040002E7478743D22256C6422FFFFFF0000007F
:10305000700000206C000020840000201000002080
:10306000800000207C00002090000020A0000020B4
:103070009C000020980000208C0000208800002088
:10308000DC000020D8000020D400002078000020C0
:1030900074000020E4000020E8000020E000002090
:1030A00010B586B0044601210820FDF785FB0121FB
:1030B0008804FDF761FB4FF48060ADF81400032035
:1030C0008DF8160018208DF8170005A91E48FDF789
:1030D0007EFA4FF40060ADF8140004208DF817005C
:1030E00005A91948FDF773FA27208DF80000042080
:1030F0008DF801008DF8020001208DF8030068466C
:10310000FDF7F6FA01940020ADF80800ADF80A00CA
:10311000ADF80C00ADF810000C20ADF80E0001A9C0
:103120000A48FEF7C1FF012240F225510748FEF789
:1031300095FF01210548FEF70CFF4FF4A060FDF755
:103140000FFB06B010BD0000000C0140004800401D
:103150002DE9FF5F8CB016461F4600BF0021884650
:10316000894600BF00BF00BF00BFDDE91A4500224D
:10317000674B4046494601F001F9CDE90601324668
:103180003B466448644901F0B5F9CDE90A01DDE93F
:103190001A0101F043FB0590DDE9060101F03EFB59
:1031A0000490059900F0F6FFA6E042464B463046F3
:1031B000394601F0C9FBCDE9000100F029FACDE95B
:1031C0000201DDE90C2301F0BFFBCDE90401DDE9DB
:1031D0001A2301F0D3F882468B4642464B463046CE
:1031E000394601F0B1FBCDE90401FFF713FCCDE94D
:1031F00008014A48006818B901204849086083E07E
:1032000000221346DDE9080101F09CFC39D8224672
:103210002B465046594601F095FC10D8022000F08C
:10322000F7FE00223E4BDDE90C0101F063F9224676
:103230002B46CDE9040101F0A1F804460D462246D3
:103240002B465046594601F043FB53D2022000F072
:10325000CDFB32463B4600204FF0804101F074FB2D
:1032600002460B46CDE902012E482F4901F042F9F2
:1032700042464B46CDE9040101F080F8804689467C
:1032800038E052465B462046294601F05BFC10D2EE
:10329000022000F06DFC0022214BDDE90C0101F061
:1032A00029F922462B46CDE9040101F081FC0446B0
:1032B0000D4652465B462046294601F009FB19D2CD
:1032C000022000F093FB32463B4600204FF0804145
:1032D00001F03AFB02460B46CDE9020111481249C2
:1032E00001F008F942464B46CDE9040101F046F8E9
:1032F0008046894600BF00BF40464946DDE90A23B3
:1033000001F0E6FAFFF451AF00BF10B0BDE8F09F46
:103310000000F03F1F85EB51B81E1940EC00002063
:10332000000059403255302AA913A03F2DE9FF5F14
:103330008CB092469B4600BF00210E460F4600BF50
:1033400000BF00BF00BFDDE91A450022A74B304691
:10335000394601F013F8CDE9060152465B46A44810
:10336000A44901F0C7F8CDE90A01DDE91A0101F02D
:1033700055FA0590DDE9060101F050FA049005992F
:1033800000F008FF20E132463B465046594601F026
:10339000DBFACDE9000100F03BF9CDE90201DDE9FE
:1033A0000C2301F0D1FACDE90401DDE91A2300F084
:1033B000E5FF8046894632463B465046594601F075
:1033C000C3FACDE90401FFF725FBCDE908018A48DE
:1033D000006818B901208849086003E10020874986
:1033E000DDE90A2301F0B0FA32463B46CDE904019B
:1033F00001F0A8FB6ED200221346DDE9080101F0BE
:10340000A1FB33D822462B464046494601F09AFBA1
:103410000DD800227A4BDDE90C0101F06BF8224651
:103420002B46CDE9040100F0A9FF04460D462246D3
:103430002B464046494601F04BFAA3D252465B4622
:1034400000204FF0804101F07FFA02460B46CDE9A3
:1034500002016C486C4901F04DF832463B46CDE91B
:10346000040100F08BFF06460F46ADE042464B4696
:103470002046294601F066FB0DD20022604BDDE9B3
:103480000C0101F037F822462B46CDE9040101F08A
:103490008FFB04460D4642464B462046294601F026
:1034A00017FAE2D252465B4600204FF0804101F00D
:1034B0004BFA02460B46CDE902015248524901F04F
:1034C00019F832463B46CDE9040100F057FF0646A5
:1034D0000F4679E000221346DDE9080101F032FBD6
:1034E00039D822462B464046494601F02BFB10D8DE
:1034F000022000F08DFD0022414BDDE90C0100F0BF
:10350000F9FF22462B46CDE9040100F037FF0446BF
:103510000D4622462B464046494601F0D9F953D282
:10352000022000F063FA52465B4600204FF08041D3
:1035300001F00AFA02460B46CDE902013148324950
:1035400000F0D8FF32463B46CDE9040100F016FFFB
:1035500006460F4638E042464B462046294601F0D3
:10356000F1FA10D2022000F003FB0022244BDDE927
:103570000C0100F0BFFF22462B46CDE9040101F00B
:1035800017FB04460D4642464B462046294601F0AD
:103590009FF919D2022000F029FA52465B4600201A
:1035A0004FF0804101F0D0F902460B46CDE902010F
:1035B0001448154900F09EFF32463B46CDE9040110
:1035C00000F0DCFE06460F4600201049DDE90A2324
:1035D00001F0BAF932463B46CDE9040101F0B2FAF6
:1035E000FFF4D1AE00BF10B0BDE8F09F0000F03F87
:1035F0001F85EB51B81E1940EC0000200000D03FA1
:10360000000059403255302AA913A03F0000F83F6E
:1036100000B5254B21F0004287B09A4203DC00221E
:10362000134600922BE0214B9A4208D140B94FF04B
:103630000100FCF706FFFFF7D0F807B000BD03DB81
:10364000FFF7C8F807B000BD02AAFEF7B5FD10F0FD
:1036500003014FF001000DD0012914D002291AD026
:103660000DF1080C9CE80F00FEF76AFF07B081F02F
:10367000004100BD0DF1080C00909CE80F00FFF721
:1036800033F807B000BD0DF1080C9CE80F00FEF701
:1036900057FF07B000BD0DF1080C00909CE80F002B
:1036A000FFF722F8E2E70000FB21E93F0000F07F8E
:1036B0002DE9F04106460F4601F086FA041E0D463C
:1036C00018BF0120284320F00040C0F17F6000F1C6
:1036D000E040C00F0ED0301C18BF0120384320F04E
:1036E0000040C0F17F6000F1E040C00F04BF012046
:1036F000FCF7A7FE20462946BDE8F08110B586B04C
:103700000446012144F20400FDF756F84FF400701E
:10371000ADF8140003208DF8160018208DF817005E
:1037200005A91C48FCF753FF4FF48060ADF8140066
:1037300004208DF8170005A91648FCF748FF25203E
:103740008DF8000003208DF801008DF802000120A3
:103750008DF803006846FCF7CBFF01940020ADF81C
:103760000800ADF80A00ADF80C00ADF810000C2010
:10377000ADF80E0001A90848FEF796FC012240F2C0
:1037800025510548FEF76AFC01210348FEF7E1FBDD
:1037900006B010BD000801400038014010B586B0E9
:1037A000044601210420FDF707F801214804FCF735
:1037B000E3FF2948FEF7DAFB0420ADF810000320F0
:1037C0008DF8120018208DF8130004A92348FCF787
:1037D000FEFE0820ADF8100004208DF8130004A9A7
:1037E0001E48FCF7F4FE00940020ADF80400ADF88C
:1037F0000600ADF80800ADF80C000C20ADF80A008A
:1038000069461548FEF750FC01211348FEF7A1FB5D
:10381000012240F225511048FEF720FC26208DF8A9
:10382000140002208DF8150003208DF816000120E9
:103830008DF8170005A8FCF75BFF41F61F4140F229
:10384000E730FDF72FF900200549088000210548E1
:10385000FDF75BF906B010BD0044004000080140D0
:103860002A0000200014004070B5054601203049B0
:10387000086000240EE001202D4908390860284620
:10388000FFF75EF900202B49C1F894012846FFF7A5
:1038900057F9641C284800688442ECDB274800681C
:1038A000401E2649086026480068012803D02448A5
:1038B0000068042804D12148016822A0FCF7ACFC70
:1038C0001F480068022804D11C48016823A0FCF7A7
:1038D000A3FC1B480068032804D11848016825A0F0
:1038E000FCF79AFC16480068052804D113480168C3
:1038F00026A0FCF791FC12480068072804D10F4865
:10390000016828A0FCF788FC0D480068062804D14F
:103910000A48016829A0FCF77FFC094800680828CC
:1039200004D1064801682BA0FCF776FC70BD0000AE
:103930009C812142008021420800002000000020DC
:103940006000002070616765332E74322E747874C5
:103950003D22256C6422FFFFFF0000007061676557
:10396000312E74352E7478743D22256C6422FFFF4D
:10397000FF00000070616765322E74352E74787414
:103980003D22256C6422FFFFFF0000007061676527
:10399000342E74352E7478743D22256C6422FFFF1A
:1039A000FF00000070616765362E74352E747874E0
:1039B0003D22256C6422FFFFFF00000070616765F7
:1039C000352E74352E7478743D22256C6422FFFFE9
:1039D000FF00000070616765372E74352E747874AF
:1039E0003D22256C6422FFFFFF00000070B50546F4
:1039F00000203049086000240EE001202D490839DC
:103A000008602846FFF79CF800202B49C1F8940174
:103A10002846FFF795F8641C284800688442ECDBD0
:103A200027480068401C264908602648006801288D
:103A300003D024480068042804D12148016822A04A
:103A4000FCF7EAFB1F480068022804D11C48016803
:103A500023A0FCF7E1FB1B480068032804D11848A9
:103A6000016825A0FCF7D8FB16480068052804D19A
:103A70001348016826A0FCF7CFFB1248006807280E
:103A800004D10F48016828A0FCF7C6FB0D48006868
:103A9000062804D10A48016829A0FCF7BDFB0948A3
:103AA0000068082804D1064801682BA0FCF7B4FB85
:103AB00070BD00009C81214200802142080000204E
:103AC000000000206000002070616765332E7432B2
:103AD0002E7478743D22256C6422FFFFFF000000E5
:103AE00070616765312E74352E7478743D22256CB3
:103AF0006422FFFFFF00000070616765322E74359D
:103B00002E7478743D22256C6422FFFFFF000000B4
:103B100070616765342E74352E7478743D22256C7F
:103B20006422FFFFFF00000070616765362E743568
:103B30002E7478743D22256C6422FFFFFF00000084
:103B400070616765352E74352E7478743D22256C4E
:103B50006422FFFFFF00000070616765372E743537
:103B60002E7478743D22256C6422FFFFFF00000054
:103B700070B5054600203049086000240EE00120A1
:103B80002D49083108602846FEF7DAFF00202B494E
:103B9000C1F8A0012846FEF7D3FF641C284800683E
:103BA0008442ECDB27480068401E2649086026480E
:103BB0000068012803D024480068042804D1214863
:103BC000016822A0FCF728FB1F480068022804D1E6
:103BD0001C48016823A0FCF71FFB1B480068032852
:103BE00004D11848016825A0FCF716FB16480068A8
:103BF000052804D11348016826A0FCF70DFB1248E4
:103C00000068072804D10F48016828A0FCF704FBCE
:103C10000D480068062804D10A48016829A0FCF76D
:103C2000FBFA09480068082804D1064801682BA05F
:103C3000FCF7F2FA70BD0000988121420080214219
:103C4000080000200400002060000020706167650B
:103C5000332E74332E7478743D22256C6422FFFF5A
:103C6000FF00000070616765312E74372E74787420
:103C70003D22256C6422FFFFFF0000007061676534
:103C8000322E74372E7478743D22256C6422FFFF27
:103C9000FF00000070616765342E74372E747874ED
:103CA0003D22256C6422FFFFFF0000007061676504
:103CB000362E74372E7478743D22256C6422FFFFF3
:103CC000FF00000070616765352E74372E747874BC
:103CD0003D22256C6422FFFFFF00000070616765D4
:103CE000372E74372E7478743D22256C6422FFFFC2
:103CF000FF0000002DE9FC478046894616461F4616
:103D00002848046828480568F8B22749CDE90060CA
:103D10000968C1EB490323490968C1EB48024946D8
:103D2000404600F043F810B90020BDE8FC87F8B227
:103D30002B4622464946CDE90060404600F036F861
:103D400018480068A04207DD02E00220FFF78CFD62
:103D500014480068A042F8D112480068A04207DA6F
:103D600002E00220FFF742FE0E480068A042F8D1B0
:103D70000D480068A84207DD02E00220FFF7F8FEC8
:103D800009480068A842F8D107480068A84207DA45
:103D900002E0022000F03CF903480068A842F8D194
:103DA0000120C2E700000020040000202DE9FF4FA1
:103DB00083B0109C944801680398A1EB00089348D5
:103DC00001680498A1EB000903990598461A049923
:103DD0000698471A39463046FEF748FF0290494692
:103DE0004046FEF743FF05460096002E02DBDDF855
:103DF00000B003E0DDF800B0CBF1000BA4EB0B0B3F
:103E0000B7F1000A01DBD64601E0CAF1000EABEBC8
:103E10000E0BBBF10A0F47DC0196002E02DBDDF82A
:103E200004B003E0DDF804B0CBF1000BABEB040B06
:103E3000BBF10A0F38DCB7F1000C01DBE34601E00F
:103E4000CCF1000BABEB040BBBF10A0F2CDCB8F18F
:103E5000000301DB9B4601E0C3F1000BA4EB0B0B5D
:103E6000B9F1000201DB964601E0C2F1000EABEBB6
:103E70000E0BBBF10A0F17DCB8F1000101DB8B461A
:103E800001E0C1F1000BABEB040BBBF10A0F0BDC43
:103E9000B9F1000001DB834601E0C0F1000BABEBA0
:103EA000040BBBF10A0F03DD002007B0BDE8F08F63
:103EB0001198E8B339E035B1012D0FD0022D18D09B
:103EC000032D2ED121E0002322464946404600948E
:103ED000FEF79CFCA0464FF0000922E0234600229A
:103EE000494640460094FEF7D2FC4FF00008A14638
:103EF00017E000236242494640460094FEF708FD61
:103F0000C4F100084FF000090BE06342002249466B
:103F100040460094FEF73DFD4FF00008C4F1000953
:103F200000BF00BF681E00F003050298854200E054
:103F300001E0C0D13DE039E035B1012D0FD0022DB7
:103F400019D0032D2ED122E02346002249464046B7
:103F50000094FEF75BFC4FF00008A14622E000232E
:103F60006242494640460094FEF791FCC4F10008C5
:103F70004FF0000916E06342002249464046009493
:103F8000FEF7C6FC4FF00008C4F100090AE0002368
:103F90002246494640460094FEF7FBFCA0464FF0FF
:103FA000000900BF00BF681C00F0030502988542AD
:103FB000C2D135B1012D0CD0022D12D0032D20D14C
:103FC00017E03B463246494640460094FEF71EFC49
:103FD00017E03B463246494640460094FEF757FC00
:103FE0000FE03B463246494640460094FEF790FCBF
:103FF00007E03B463246494640460094FEF7C9FC7E
:1040000000BF00BF012050E7000000200400002096
:1040100070B5054601203049086000240EE00120FB
:104020002D49083108602846FEF78AFD00202B49FB
:10403000C1F8A0012846FEF783FD641C28480068EB
:104040008442ECDB27480068401C2649086026486B
:104050000068012803D024480068042804D12148BE
:10406000016822A0FCF7D8F81F480068022804D194
:104070001C48016823A0FCF7CFF81B480068032800
:1040800004D11848016825A0FCF7C6F81648006856
:10409000052804D11348016826A0FCF7BDF8124892
:1040A0000068072804D10F48016828A0FCF7B4F87D
:1040B0000D480068062804D10A48016829A0FCF7C9
:1040C000ABF809480068082804D1064801682BA00D
:1040D000FCF7A2F870BD00009881214200802142C7
:1040E0000800002004000020600000207061676567
:1040F000332E74332E7478743D22256C6422FFFFB6
:10410000FF00000070616765312E74372E7478747B
:104110003D22256C6422FFFFFF000000706167658F
:10412000322E74372E7478743D22256C6422FFFF82
:10413000FF00000070616765342E74372E74787448
:104140003D22256C6422FFFFFF000000706167655F
:10415000362E74372E7478743D22256C6422FFFF4E
:10416000FF00000070616765352E74372E74787417
:104170003D22256C6422FFFFFF000000706167652F
:10418000372E74372E7478743D22256C6422FFFF1D
:10419000FF0000002DE9F34F83B082460025002781
:1041A000A946002002908346022001903B48006807
:1041B000AAEB00063A4904980968A0EB0108311EF1
:1041C00001DB0A4600E04A42B8F1000001DB034689
:1041D00000E04342D418029453E03248006818B912
:1041E0000120304908604EE0B9F11E0F04DA2E4874
:1041F0000068801E2C4908600298A0EB09001E2868
:1042000004DA29480068801C2749086007FB06F08B
:10421000FEF747FD024605FB08F0FEF742FDA2EB64
:10422000000BBBF1000F16DBAE4206DD1E48006836
:10423000FFF7DCFB6D1C641E21E0AE4206DA1A4873
:104240000068FFF711FB6D1E641E18E0AE4216D128
:104250004FF0FF3B13E0BBF1000F10DAB84506DD6D
:1042600011480068FFF7D4FE7F1C641E07E0B845C4
:1042700005DA0D480068FFF77BFC7F1E641E09F11C
:104280000109002CA9D100BF0025002720200649E4
:104290000860012005B0BDE8F08F0000000000209C
:1042A00004000020EC0000200C0000202DE9F84F55
:1042B00081468A4600240027A3460A2000902C4805
:1042C0000068A9EB00052B480068AAEB0008291E2E
:1042D00001DB0A4600E04A42B8F1000001DB034678
:1042E00000E04342D6183BE02348006818B901209B
:1042F0002149086036E007FB05F0FEF7D2FC0246D4
:1043000004FB08F0FEF7CDFCA2EB000BBBF1000FA5
:1043100014DBA54205DD0098FFF768FB641C761EE0
:104320001EE0A54205DA0098FFF79EFA641E761E8D
:1043300016E0A54214D14FF0FF3B11E0BBF1000F96
:104340000EDAB84505DD0098FFF762FE7F1C761E89
:1043500006E0B84504DA0098FFF70AFC7F1E761ED7
:10436000002EC1D100BF002400270120BDE8F88F36
:104370000000002004000020EC00002010B591EAAD
:10438000030F48BF83F0004300F10C85841A71EBE2
:10439000030C05D2121943EB0C03001B61EB0C015B
:1043A000DFF824E14FEA1154A4EB135C1EEA430F3B
:1043B00018BF9EEA445F73D023EA0E03DCF1200E9F
:1043C00021EA045143F4801332D322FA0CFE10EB9D
:1043D0000E0023FA0CFE41EB0E01CCF1200E03FA85
:1043E0000EFE10EB0E0051F10001B1F5801FCCF173
:1043F000200E32D201EB045112FA0EF2BDE8104049
:1044000058BF7047401C38BF5FEA420218BF704770
:10441000002814BF20F0010041F100014FEA4103E0
:1044200013F5001F38BF7047A1F1C04100F084BBF5
:10443000012A43EB0302ACF1200CDCF11F0E32BF6A
:104440004FF0000E23FA0CF310EB030041EB045184
:10445000B4EB115FD0D0A1EB045101F580114908F4
:104460005FEA300001EB04510ED350F1000038BF79
:1044700012FA0EFE08D1BDE81040C9E7401C38BF53
:104480005FEA4202CAD1C3E7BDE810404FEA4103E8
:1044900013F5001F38BF7047A1F1C04100F04CBBBD
:1044A0009EEA445F08D011EA5E0FBDE8104004BFE9
:1044B00001F0004100207047BDE8104070B500F0E9
:1044C000EDFA00BF64FBBE3E0000E0FF02494FF082
:1044D000000000F049BD00BF0000F87F491058BF40
:1044E000C1F140415B1058BFC3F140438B42EFF331
:1044F000008070472DE9C04130B4DFF8A0C23CEA2B
:10450000111418BF3CEA131400F0EC8081EA030593
:104510001CEA111444EAD57418BF1CEA131500F004
:10452000C780A4EB05044FF0004545EAC12145EAE8
:10453000C32341EA505143EA525304F17F74994234
:1045400004F500344FEAC0204FEAC22208BF90426F
:1045500000F09C804FEA13650FF24016765D4FEA3B
:10456000134506FB05F7C7F1807706FB07F74FEA0F
:10457000D737A7FB03687642C8F58038A7FB06CE7D
:1045800038BFA8F1010807FB08E64FF0000EA6FBB4
:10459000028CE6FB03CEDCF1000CCEF1004E38BFFE
:1045A000AEF1010EA6FB0C584FF000074FF00005CE
:1045B000E6FB0E87A1FB08C6A0FB07CE16EB0E0696
:1045C00045F10005E1FB076515F1E04E7EBFA4F55E
:1045D00080345FEA46066D4116F1800745F100051B
:1045E0004FEA17274FEA066647EA0567A6F1DE4657
:1045F000B6F1805F4FEA15251FD9384624F0010C2B
:1046000005EBC471BCF1FE6F01EB0C1102D8F0BCDC
:10461000BDE8008124425CBF01F5801E9EEAC47F94
:1046200002D4F0BCBDE80081244238D4F0BCA1F132
:10463000C041BDE8004100F07FBA4FEAD22242EA11
:1046400043524FEAD323A7FB02864FEAD02040EA29
:10465000415007FB03661EEA0E0F4FEAD12105FB0E
:10466000026658BFA6EB0056B6EB00564FEA520E54
:104670004EEAC37E18EB0E0E56EB530EBDD518EB6B
:1046800002085E417F1C55F10005B6E74FF4801526
:104690004FF000074FF000064FF00008ADE7F0BC08
:1046A0004FF0000001F1C04101F00041BDE8008180
:1046B00011EA0C1F0CEA131500D00CE013EA0C1FD2
:1046C00000F025804FF00000F0BC81EA030101F00A
:1046D0000041BDE80081F0BCBDE8004181EA030172
:1046E00000F02ABAF0BCBDE8004170B500F0D6F980
:1046F000097EFC3E00F007B881EA03014FF000009C
:1047000001F00041704781EA030100F015BAF0BCE6
:10471000BDE800414FF0000021497047FFFDFBF963
:10472000F7F5F4F2F0EEEDEBE9E8E6E4E3E1E0DEE4
:10473000DDDBDAD8D7D5D4D3D1D0CFCDCCCBCAC856
:10474000C7C6C5C4C2C1C0BFBEBDBCBBBAB9B8B77D
:10475000B6B5B4B3B2B1B0AFAEADACABAAA9A8A870
:10476000A7A6A5A4A3A3A2A1A09F9F9E9D9C9C9B3E
:104770009A999998979796959594939392919190E9
:104780008F8F8E8E8D8C8C8B8B8A8989888887877A
:104790008685858484838382828181800000FF07EF
:1047A0000000F87F51EA030C17D41CF5801F58BF96
:1047B000BCF5801F00F10680994218BF704708BF02
:1047C0009042704707D711F5801F58BF13F5801F1F
:1047D00019D499427047894270471CF5801F08D54B
:1047E000BCF5801FF7D58B4218BF704708BF8242C7
:1047F00070474FF4001C1CEB410F38BF1CEB430FFC
:1048000001D28B42704770B500F048F992244900FC
:104810004FF000514FF08053FFF760BE4FEA410365
:104820004FEA5353A3F58063D3F11E03C8BFD3F1FE
:10483000210C0CDD4FF0004242EAC12242EA505204
:1048400032FA03FC8CEAE17CACEBE1707047102B90
:10485000C4BF0020704703F5787CBCF1FF3F04D053
:104860006FF0004282EA2100704770B500F016F93F
:104870004992248000207047F2E710F0004248BFC0
:104880004042B0FA80F310FA03F10AD0C3F11D03DD
:1048900003F580634FEA415002EB035202EBD12152
:1048A00070474FF000007047B0FA80F310FA03F140
:1048B0000AD0C3F11D0303F580634FEA41504FEA6C
:1048C000035202EBD12170474FF000007047000007
:1048D00051EA030C17D41CF5801F58BFBCF5801F8C
:1048E00000F10680994218BF704708BF9042704798
:1048F00007D711F5801F58BF13F5801F19D49942AF
:104900007047894270471CF5801F08D5BCF5801F91
:10491000F7D58B4218BF704708BF824270474FF4EB
:10492000001C1CEB410F38BF1CEB430F01D28B4224
:10493000704770B500F0B2F8922449004FF0005172
:104940004FF08053FFF7CABDDFF848C170B51CEACD
:10495000111E1EBF1CEA13159EEA0C0F95EA0C0FE0
:1049600000F06F8081EA030423EA4C134EEAD47E00
:1049700021EA4C1141F4801143F48013AE44A1FBB1
:10498000024CA0FB0365AEF17F7E361955EB0C059A
:10499000A1FB034C4CF10003A0FB021C16EB0C0620
:1049A000654153F10003094218BF46F0010613F4B4
:1049B000007F0BD14FEA03314FEA0530340341EA5F
:1049C000155140EA16506FF003020AE04FEAC32186
:1049D0004FEAC520F40241EA555140EA56506FF0C3
:1049E000020202EB2E4201EB025585EACE710AD09B
:1049F0005FEA440C18BF24F0004450F1000041F17C
:104A0000000120EAD47040F2FE7C624500D270BD05
:104A1000A84214BF4FF080444FF04044002E08BF1E
:104A20000024BEF1806FA8BFA1F1C041BDE8704075
:104A300080F282804FF0000001F1C04101F000419E
:104A400070479EEA0C0F0CEA131518BF95EA0C0F7D
:104A500006D04FF0000081EA030E0EF0004170BD59
:104A600000F01CF88900013E00F007B800F009B81A
:104A70004FEA430C5FEA5C5C08D081EA030100F076
:104A80005BB84FEA410C5FEA5C5CF6D14FF0000086
:104A9000014970470000FF070000F87F0EF1020E89
:104AA0002EF0030E5EF8046B364205D4012A43EB68
:104AB000030515F5001F12D8012841EB010C1CF568
:104AC000001F0CD80ED14FEAD17C15F5001F0CEB5E
:104AD0004C0C0CF1020C08BF4CEBD37C04E04FF003
:104AE000080C01E04FEAD37C0CEB4C0526FA05F6E6
:104AF00006F00706B6F1040C06D20EEB860CBDE8F4
:104B000070404CF0010C6047DFE80CF0090B02022A
:104B10004FF000414FF00000A1F5002170BD194693
:104B20001046012851EB010418BFD4F5001484BFCE
:104B3000002001F0004170BD0808A0F500114FEA07
:104B40003101704753EA010C17D41CF5801F58BF80
:104B5000BCF5801F00F106808B4218BF704708BF6C
:104B60008242704707D713F5801F58BF11F5801F89
:104B700019D48B4270479B4270471CF5801F08D5A3
:104B8000BCF5801FF7D5994218BF704708BF904207
:104B900070474FF4001C1CEB430F38BF1CEB410F58
:104BA00001D2994270470FB40CBC03BCFFF7C1BEE1
:104BB00091EA030F10B581F000413FF5E7AB83F0B8
:104BC000004300F0EFB800002DE9F04101F5801C32
:104BD000BCF5001FC0F2C3804FEA115C21EA0C5102
:104BE0000CF1FD0C41F480115FEA5C0C0CF5C07C0B
:104BF00001D3400049413DA4890241EA9051870216
:104C00008E0E0A0CA45D04FB04F602FB06F6C6F148
:104C10004046A4FB0662F60D46EA422606FB06F471
:104C2000A4FB01235242C3F1404338BF5B1EA6FBE5
:104C300002420024E6FB0324D20B42EA4446A6FBD0
:104C40000623A1FB02E2A3FB07E4A4184FF0000235
:104C500052F10002E3FB01426442C2F1404E38BF10
:104C6000AEF1010EA6FB04234FF00002E6FB0E326C
:104C7000A2FB03464FF00004B61954F10004E2FB16
:104C80000264A1FB06E6A4FB07E816EB08064FF05A
:104C9000000858F10008E4FB01687642C8F140586A
:104CA00038BFA8F10108A2FB06E4A3FB08E52D1913
:104CB0004FF0000454F10004E2FB0854A1FB05E6A8
:104CC000A7FB04E818EB06084FF0000656F10006B3
:104CD000E1FB048618F1200556F10006A809A8F1A9
:104CE0001B08B10908F03F08B8F10A0F40EA8660D6
:104CF0001CD901EB0C51BDE8F08100BFFCF5EEE8DA
:104D0000E2DDD8D3CFCBC7C3C0BDB9B6B4B1AEAC6A
:104D1000A9A7A5A3A19F9D9B9A9896959392908FE2
:104D20008D8C8B898887868584838281A0FB00682F
:104D300000FB01F208EB4208B8EB872807D53418CE
:104D400058EB0104D5D5401C51F10001D1E7341ACC
:104D500078EB0104CDD4401E71F10001C9E75FEA90
:104D60004C0C5FEA9C5C0DD105D34FF0000001F0C4
:104D70000041BDE8F081BDE8F04170B5FFF78EFE5F
:104D80006DDBFFBEBDE8F0414FF000000049704709
:104D90000000F87F10B591EA030F48BF83F000438D
:104DA0003FF5F4AA841A71EB030C07D212198CF0A8
:104DB000004C43EB0C03001B61EB0C01DFF8A4E19A
:104DC0004FEA1154A4EB135C1EEA430F18BF9EEA8E
:104DD000445F00F0B08023EA6E03524221EA04519E
:104DE000C3EB6E0338BF5B1EDCF1200E25D322FA25
:104DF0000CFE10EB0E0043FA0CFE41EB0E01CCF161
:104E0000200E03FA0EFE10EB0E0051F10001CCF162
:104E1000200E29D412FA0EF201EB0451BDE8104025
:104E200058BF7047401C1CBFB2F1004F70470028AC
:104E30000CBF491C20F00100704712EB020E43EB3F
:104E4000030218BF4FF0010E4EEA4202ACF1200CF3
:104E5000DCF11E0E54D943FA0CFE10EB0E0051F19A
:104E6000FF31CCF11E0ED5D50EF1010E12FA0EFE59
:104E7000404141EB010101EB445C5FEA5C5C10D90D
:104E800010EBDE7001EB045138BFBEF1004FBDE8FE
:104E9000104018BF704700280CBF491C20F00100CB
:104EA000704730D24FEAD42C11F5001124F400647D
:104EB0001BD0B1FA81F20B3AA41AA41ED2F120033E
:104EC000914030FA03F31943904001EBCC71002C70
:104ED00001EB0451BDE81040A8BF704701F1C0418B
:104EE0004FF0000001F000417047B0FA80F310FA73
:104EF00003F100D110BDE41A173C4805C90AE4E7E4
:104F000001EB045110BD491001EB0451BDE8104004
:104F10004FEA300002E04FF0000170474A0008BF3E
:104F20000042F8D0B2F5001F28BF704701F00041E1
:104F30004FF0000070479EEA445F07D011EA5E0F11
:104F4000BDE8104004BF002100207047BDE81040BC
:104F500070B5FFF7A3FD00BF40DFF63E83F00041D0
:104F6000104670470000E0FF0CF00F03092B08BF4C
:104F7000082000F059800A2B0BD0082B18BF70476F
:104F800008BF1CF0400F0AD04FF000004FF00001A6
:104F900070471CF0400F18BF4FF0004070471CF0E6
:104FA000100F08D020F0704300F07F4242EAD30196
:104FB0004FEA4370704700F0604021F07F4242EAC0
:104FC000000201F07F4040EA727070474FF0FF0C22
:104FD0004CF4E06C1CEA11531CBF9CEA030C944592
:104FE000C2BFDA4201EB02517047002B0DD0BCF179
:104FF000000F0FD0002A01F00041A4BF41F0E041B2
:1050000041F07F614FF00000704701F000414FF028
:105010000000704750EA01334FF09B0C18BF4CF072
:10502000806C7FF453AA70471CF4801F11D01CF4CD
:10503000E02F03D06FEACC31490070474FF0405069
:10504000EFF3008222F0704242EA000282F300880D
:1050500070474FF000007047040000080000000097
:10506000000000020001000010000000000000002D
:105070004C5555555555A53F7751C1166CC156BF76
:105080009015CB19A001FA3EAD529C804F7E92BE86
:10509000C4B1B4BD9EEE213ED43888BEE9FAA8BDA5
:1050A00000004054FB21F93F3163621A61B4D03DE6
:1050B0000000601A61B4D03D7370032E8A19A33BBF
:1050C0000000002E8A19A33BC14920259A837B3911
:1050D00000000000000000006E83F9A22915444E74
:1050E000D15727FCC0DD34F5999562DB4190433CF4
:1050F000AB6351FE61C5BBDE3A6E24B7E0D24D42D0
:10510000EA2E49061C92D1091CEB1DFE3EA729B1CF
:10511000F53582E88444BB2E26709CE9417E5FB45D
:1051200039D69139F43953838B5F849C3B28F9BD80
:10513000FF97F81F0F9805DE8B112FEF1F6D0A5A8E
:10514000CF7E366DB709CB27663F464F2DEA5F9E6F
:10515000C7BA27757BF1E5EBF739073DEA92528A2A
:10516000B15FFB6B085D8D1FA6F810111111813F17
:10517000D561C119A0012ABF7DFEB157E31DC73E0D
:10518000EB9C2B8AE6E55ABE7CD5CF5A3AD9E53D51
:10519000B051000800000020040100006C0100086C
:1051A000B4520008040100205407000088010008E0
:1051B0000000000000000000320000003E0000007F
:1051C0000000000000A24A040000000000000000EF
:1051D00001020304060708090000000000000000A7
:1051E00000000000000000000000000000000000BF
:1051F00000000000000000000000000000000000AF
:10520000000000000000000000000000000000009E
:10521000000000000000000000000000000000008E
:10522000000000000000000000000000000000007E
:10523000000000000000000000000000000000006E
:10524000000000000000000000000000000000005E
:10525000000000000000000000000000000000004E
:10526000000000000000000000000000000000003E
:105270000000000000000000030000000300000028
:10528000000000000000000000000000000000001E
:10529000000000000000000000000000010000000D
:1052A00000000000010203040102030406070809CC
:0452B00002040608E6
:04000005080001D519
:00000001FF
