:020000040800F2
:1000000030080020D5010008ED060008E5060008CC
:10001000E9060008C90500086F200008000000007C
:10002000000000000000000000000000F9080008C7
:10003000CD05000800000000750700080D0A000843
:10004000EF010008EF010008EF010008EF010008D0
:10005000EF010008EF010008EF010008EF010008C0
:10006000EF010008EF010008EF010008EF010008B0
:10007000EF010008EF010008EF010008EF010008A0
:10008000EF010008EF010008EF010008EF01000890
:10009000EF010008EF010008EF010008EF01000880
:1000A000EF010008EF010008EF010008EF01000870
:1000B000EF010008EF010008EF010008EF01000860
:1000C000EF010008EF010008EF010008EF01000850
:1000D000EF010008FD0B0008011D0008051D0008C8
:1000E000EF010008EF010008EF010008EF01000830
:1000F000EF010008EF010008EF010008EF01000820
:10010000EF010008EF010008EF010008EF0100080F
:10011000EF010008EF010008EF010008710A000874
:10012000EF010008EF010008EF010008EF010008EF
:1001300000F002F800F03FF80AA090E8000C8244BA
:100140008344AAF10107DA4501D100F034F8AFF297
:10015000090EBAE80F0013F0010F18BFFB1A43F0A5
:10016000010318474445000064450000103A24BFCD
:1001700078C878C1FAD8520724BF30C830C144BF0C
:1001800004680C607047000000230024002500264E
:10019000103A28BF78C1FBD8520728BF30C148BFEA
:1001A0000B607047642900F04380002070471FB542
:1001B0001FBD10B510BD00F0D9F91146FFF7F7FFCC
:1001C00002F05EFC00F0F7F903B4FFF7F2FF03BCA6
:1001D00002F08BFA0948804709480047FEE7FEE72E
:1001E000FEE7FEE7FEE7FEE7FEE7FEE7FEE7FEE7E7
:1001F00004480549054A064B70470000110A0008EB
:1002000031010008300200203008002030040020B6
:1002100030040020704700000FB4044910B503AA51
:10022000029800F085F910BC5DF814FB580000201E
:100230002DE9F0410646002410687529314616A5BF
:1002400010D0AFF30080002802DA404213A507E087
:1002500031688A0701D512A502E0490704D511A526
:10026000012401E0AFF3008000210A2206F12407F7
:1002700009E0B0FBF2FCB0FBF2F302FB1C003030F3
:1002800078541846491C0028F3D123462A463046A4
:10029000BDE8F04100F0DBB8000000002D000000D8
:1002A0002B000000200000002DE9F05F8946044685
:1002B0004FF0000ADFF874B1FB44C0F820A02046DC
:1002C000E1688847002874D0252806D0D4E90121A8
:1002D0009047206A401C2062F1E700265F462046D6
:1002E000E16888472028054607DB312D05D27819BB
:1002F00010F8200C08B10643F1E7B00701D526F04D
:100300000406C4F81CA00027C4F818A02A2D09D0A0
:10031000284602F0E3F938B304EB8708303DC8F80B
:10032000185019E059F8041B204604EB870291612C
:10033000E1688847012F054618D1E069002820DAD6
:1003400026F020061DE0D8F8180000EB800005EB31
:1003500040003038C8F818002046E1688847054654
:1003600002F0BCF90028EED1012F0AD02E2D08D1C1
:100370002046E16888477F1C0546022F46F020068C
:10038000C4DBA069002803DA404246F00106A06100
:10039000F00701D026F010066C2D0BD0682D09D087
:1003A0004C2D39D06A2D35D0742D35D07A2D33D0DF
:1003B00016E038E0E1682F4620468847B8420546F7
:1003C00009D16C2F26D04FF48060E16806432046A7
:1003D0008847054604E06C2F1AD04FF4807006431E
:1003E0000DB3A5F14100192802D8203546F4006666
:1003F0004A462946204626604E46FFF7D3FE80B186
:1004000001280BD0F61D26F0070000F1080956E779
:100410004020E4E78020D8E70020D6E706F1040971
:100420004DE7284652E7206ABDE8F09FB842000039
:10043000704770477047704710B500F08BF8006840
:1004400010BD10B5044600F085F8046010BD2DE91C
:10045000F0470D4699469246044600F1240801688B
:10046000880604D5E06921F01001216000E0012038
:10047000A84201DD471B00E00027A1697A1902EBC1
:100480000900081AA0612078C00602D42046AFF304
:100490000080002608E0D4E901211AF80600904700
:1004A000206A401C761C20624E45F4DB2078C00692
:1004B0000AD52046AFF3008006E0D4E901213020C0
:1004C0009047206A401C2062381EA7F10107F4DC27
:1004D00007E0D4E9012118F805009047206A401C84
:1004E0002062281EA5F10105F3DC2046AFF3008051
:1004F0002078000602D50220BDE8F0870120FBE746
:1005000001694A1C02610878704700B58FB0CDE9D7
:1005100001310021059105497944CDE903101146C7
:100520006846FFF7C1FE0FB000BD0000E5FFFFFF0A
:10053000074B70B50D467B44FFF7E7FF044628469E
:1005400000F00CF810B14FF0FF3070BD204670BDC8
:10055000EB24000000487047D0010020007B00F031
:100560008000704700487047D00100207546FFF7B3
:10057000F9FFAE4605006946534620F00700854660
:1005800018B020B5FFF734FEBDE820404FF000065C
:100590004FF000074FF000084FF0000B21F007016B
:1005A000AC46ACE8C009ACE8C009ACE8C009ACE8AE
:1005B000C0098D46704710B50446AFF30080204651
:1005C000BDE81040FFF700BE00BFFEE770472DE911
:1005D000F0410246002500260020002300240027C9
:1005E00091F803C00CF00F0591F803C00CF0100C4B
:1005F000BCF1000F03D091F802C04CEA050591F858
:1006000000C0BCF1000F31D0146800202BE04FF087
:10061000010C0CFA00F3B1F800C00CEA03069E428C
:1006200020D183004FF00F0C0CFA03F7BC4305FAFE
:1006300003FC4CEA040491F803C0BCF1280F06D176
:100640004FF0010C0CFA00FCC2F814C00AE091F85B
:1006500003C0BCF1480F05D14FF0010C0CFA00FCAF
:10066000C2F810C0401C0828D1D31460B1F800C0F3
:10067000BCF1FF0F34DD546800202EE000F1080CBF
:100680004FF0010808FA0CF3B1F800C00CEA0306B9
:100690009E4221D183004FF00F0C0CFA03F7BC43AC
:1006A00005FA03FC4CEA040491F803C0BCF1280FDE
:1006B00005D100F1080C08FA0CF8C2F8148091F882
:1006C00003C0BCF1480F07D100F1080C4FF001083E
:1006D00008FA0CF8C2F81080401C0828CED35460E9
:1006E000BDE8F08100BFFEE700BFFEE770470000F5
:1006F00070B5002100230F22C47804B3154C246880
:1007000004F4E064C4F5E064210AC1F10403CA40C2
:10071000447804FA03F184781440214309010E4C13
:100720000678A155047804F01F050124AC40057833
:100730006D11AD0005F1E025C5F8004109E0047830
:1007400004F01F050124AC40044D0678761145F8ED
:10075000264070BD0CED00E000E400E080E100E028
:1007600002490143024A1160704700000000FA0587
:100770000CED00E07047000029B1064AD26902433F
:10078000044BDA6104E0034AD2698243014BDA6127
:10079000704700000010024029B1064A1269024366
:1007A000044B1A6104E0034A12698243014B1A6147
:1007B000704700000010024029B1064A92690243C6
:1007C000044B9A6104E0034A92698243014B9A61A7
:1007D000704700000010024029B1064AD268024367
:1007E000044BDA6004E0034AD2688243014BDA60CA
:1007F000704700000010024030B5002100220024A4
:1008000000232D4D6D6805F00C0121B1042905D0A0
:10081000082923D105E0294D056022E0274D056018
:100820001FE0254D6D6805F47012234D6D6805F4C9
:100830008034022505EB92421CB9214D55430560D9
:100840000BE01D4D6D6805F400351DB11C4D554381
:10085000056002E0194D5543056002E0174D056043
:1008600000BF00BF144D6D6805F0F0010909154D7A
:100870006B5C0568DD4045600F4D6D6805F4E06117
:10088000090A104D6B5C4568DD4085600A4D6D6856
:1008900005F46051C90A0B4D6B5C4568DD40C560CD
:1008A000054D6D6805F44041890B074D6B5CC568CB
:1008B000B5FBF3F5056130BD0010024000127A006F
:1008C00000093D00CC000020DC00002008B501211B
:1008D0000820FFF771FF4FF4F070ADF80000102012
:1008E0008DF8030003208DF8020069460148FFF7E8
:1008F0006EFE08BD000C0140704710B500F002F814
:1009000010BD00000CB50020019000903348006835
:1009100040F480303149086000BF3048006800F47E
:10092000003000900198401C0190009818B901987F
:10093000B0F5A06FF1D12948006800F4003010B183
:100940000120009001E0002000900098012843D190
:100950002348006840F010002149086008460068FC
:1009600020F0030008600846006840F002000860BC
:100970001A48406819494860084640684860084677
:10098000406840F4806048600846406820F47C106D
:1009900048600846406840F4E8104860084600682F
:1009A00040F08070086000BF0C48006800F00070E4
:1009B0000028F9D00948406820F003000749486042
:1009C0000846406840F00200486000BF03484068A5
:1009D00000F00C000828F9D10CBD00000010024006
:1009E00000200240042808D14FF0E021096941F0BD
:1009F00004014FF0E022116107E04FF0E0210969A6
:100A000021F004014FF0E0221161704770470000AF
:100A100010B51348006840F001001149086008460D
:100A20004068104908400E494860084600680E4971
:100A300008400B4908600846006820F480200860E0
:100A40000846406820F4FE0048604FF41F008860AC
:100A5000FFF753FF4FF000600449086010BD00002D
:100A6000001002400000FFF8FFFFF6FE08ED00E076
:100A700010B50121094800F054F868B10848008811
:100A800040F40040064908800121044800F03AF88B
:100A90000021024800F039F810BD000000140040A9
:100AA0002A0000207FB505460C4601212020FFF7D3
:100AB00063FEADF80450ADF800400020ADF806002C
:100AC000ADF8020069460E4800F046F801221146D2
:100AD0000B4800F037F80121094800F016F83720DC
:100AE0008DF80C0000208DF80D0002208DF80E000E
:100AF00001208DF80F0003A8FFF7FAFD7FBD00006D
:100B000000140040CA430282704721B1028842F0BB
:100B10000102028004E002884FF6FE731A40028050
:100B2000704730B50246002000230024158A05EAEC
:100B30000103958905EA010413B10CB1012000E01D
:100B4000002030BD1AB183890B43838102E0838981
:100B50008B43838170470000002202881D4B98421E
:100B60000ED01D4B98420BD0B0F1804F08D01B4BDC
:100B7000984205D01A4B984202D01A4B984204D1A1
:100B80004FF68F731A404B881A43174B984207D081
:100B9000164B984204D04FF6FF431A40CB881A43B5
:100BA00002808B8883850B8803850A4B98420BD083
:100BB000094B984208D00E4B984205D00D4B9842F5
:100BC00002D00D4B984201D10B7A03860123838218
:100BD00070470000002C0140003401400004004038
:100BE00000080040000C00400010004000140040CD
:100BF00000400140004401400048014000B593B06E
:100C000040F22551FC4801F071F9002801F069809B
:100C1000F94801F027FAF949F94A126841F8220027
:100C2000F7480068401CF64908600846006801283B
:100C300039D1F2480068B12835D0F0480068B228B0
:100C400031D0EE480068B3282DD0EC480068B428B5
:100C500029D0EA480068B52825D0E8480068A128CE
:100C600021D0E6480068A2281DD0E4480068A328E7
:100C700019D0E2480068C32815D0E0480068C428AD
:100C800011D0DE480068C5280DD0DC480068C628B1
:100C900009D0DA480068D42805D0D8480068F4287C
:100CA00001D000200860D6480068022806D1D34849
:100CB0000068B12802D10120D2490860D0480068FC
:100CC000022806D1CD480068F42802D10420CD497D
:100CD0000860CB48006801280CD1C8480068C328C8
:100CE00008D10120C74908600020C74908600120D9
:100CF000C6490860C248006801280AD1BF48006898
:100D0000C42806D10120BF490860BF490860BF4917
:100D10000860BB48006801280CD1B8480068C528A5
:100D200008D10120B74908600020B94908600120B6
:100D3000B6490860B248006801280AD1AF48006887
:100D4000C62806D10120AF490860B1490860AF4903
:100D50000860AB48006801280ED1A8480068D42874
:100D60000AD10120A74908600020A8490860032093
:100D7000A5490860A6490860A1480068042841D137
:100D80009E480068A1283DD102209E4908609B48EA
:100D90004068A049086008460068012808D19748C3
:100DA00080689D4908609548C0689C49086029E0B2
:100DB00098480068022809D19048806840429649C6
:100DC00008608E48C068954908601BE0914800683B
:100DD00003280AD18948806840428F4908608748C3
:100DE000C06840428D4908600CE08A4800680428C9
:100DF00008D182488068884908608048C0684042BD
:100E0000864908607E480068052871D17B480068E3
:100E1000A2286DD103207B4908607848406880494A
:100E20000860764880687F4908607D4800684043D4
:100E300009687C4A126801FB02007B4909687A4A0A
:100E4000126801FB120079490968784A126801FBAF
:100E500012001190002801DB119801E01198404226
:100E60000B9003F00AF8CDE90C0102F059F8CDE936
:100E70000E0102F0D3FF6E49086060480069012846
:100E800008D15E484068664908605C4880686549EA
:100E9000086029E059480069022809D1574840688C
:100EA00040425F490860554880685E4908601BE021
:100EB0005248006903280AD15048406840425849C6
:100EC00008604E4880684042564908600CE04B4834
:100ED0000069042808D149484068514908604748DA
:100EE000806840424F4908604448C06851490860E2
:100EF0004348006806287DD140480068A328FAD1FD
:100F00000520404908603D4840684B4908603B481F
:100F100080684A4908603948C068494908603748CC
:100F200000694849086044480068404343490968EB
:100F3000424A126801FB02003B4909683A4A1268BA
:100F400001FB120039490968384A126801FB120096
:100F50001190002801DB119801E0119840420B909C
:100F600002F08BFFCDE90C0101F0DAFFCDE90E01B3
:100F700002F054FF3449086020484069012806D037
:100F8000022838D0032869D0042868D1FDE32C4812
:100F9000006800287ED12B4800685A287BDB29484E
:100FA000006802F06AFF294A294BCDE9060102F0E8
:100FB0008FFF0022274BCDE9080102F09BFDCDE910
:100FC0000A0101F05DFFCDE90E011F48006802F043
:100FD00054FFCDE90C01DDE90E2302F079FFCDE9E4
:100FE000100102F01BFF1C49086016480068C0F1A0
:100FF000B40035E0FEE37AE100380140A8010020AA
:101000006400002060000020C0000020C800002014
:10101000C4000020680000206C0000207000002048
:101020007400002078000020000000200400002050
:10103000100000207C0000208000002084000020A0
:10104000880000208C000020980000201F85EB51B4
:10105000B81E09400080664090000020E2E2E0E215
:10106000019002F00AFFFE4AFE4BCDE9020102F0B8
:101070002FFF0022FC4BCDE9040102F03BFDCDE93E
:10108000060101F039FCCDE90A01F848006802F0D8
:10109000F4FE01E072E018E0CDE90801DDE90A2381
:1010A00002F016FFCDE90E01F048006802F0E5FEFF
:1010B000CDE90C01DDE90E2302F060FCCDE9100161
:1010C00002F0ACFEEA49086010E1EA48006802F06C
:1010D000D4FEE34AE34BCDE9060102F0F9FE00221B
:1010E000E14BCDE9080102F005FDCDE90A0101F06F
:1010F000C7FECDE90E01DD48006802F0BEFECDE975
:101100000C01DDE90E2302F0E3FECDE9100102F04F
:1011100085FED9490860D748006802F0AEFED04A83
:10112000D04BCDE9020102F0D3FE0022CE4BCDE937
:10113000040102F0DFFCCDE9060101F0DDFBCDE9A1
:101140000A01CA48006802F098FECDE90801DDE90D
:101150000A2302F0BDFECDE90E01C448006802F08A
:101160008CFECDE90C01DDE90E2303F0A1F8CDE9F9
:10117000100102F053FEBE490860B7E0BD480068A8
:101180005A285BDBBB48006802F077FEB44AB54BD7
:10119000CDE9060102F09CFE0022B34BCDE9080127
:1011A00002F0A8FCCDE90A0101F06AFECDE90E01CA
:1011B000AE48006802F061FECDE90C01DDE90E23C6
:1011C00002F086FECDE9100102F028FEA849086071
:1011D000A8480068C0F1B400019002F04EFEA04A99
:1011E000A04BCDE9020102F073FE00229E4BCDE937
:1011F000040102F07FFCCDE9060101F07DFBCDE9A1
:101200000A019A48006802F038FECDE90801DDE9DC
:101210000A2302F05DFECDE90E019448006802F059
:101220002CFECDE90C01DDE90E2302F0A7FBCDE990
:10123000100102F0F3FD9049086057E08D48006806
:1012400002F01BFE864A874BCDE9060102F040FE04
:101250000022854BCDE9080102F04CFCCDE90A01E2
:1012600001F00EFECDE90E018048006802F005FE97
:10127000CDE90C01DDE90E2302F02AFECDE91001D3
:1012800002F0CCFD7A4908607A48006802F0F5FD6A
:10129000734A744BCDE9020102F01AFE0022724B30
:1012A000CDE9040102F026FCCDE9060101F024FBA2
:1012B000CDE90A016D48006802F0DFFDCDE90801C3
:1012C000DDE90A2302F004FECDE90E01674800685B
:1012D00002F0D3FDCDE90C01DDE90E2302F0E8FFB9
:1012E000CDE9100102F09AFD6349086099E1634875
:1012F000006800287ED15F4800685A285BDB5D48A3
:10130000006802F0BAFD564A564BCDE9060102F0DC
:10131000DFFD0022544BCDE9080102F0EBFBCDE9E3
:101320000A0101F0ADFDCDE90E015048006802F060
:10133000A4FDCDE90C01DDE90E2302F0C9FDCDE9E4
:10134000100102F06BFD4A4908604A480068C0F18C
:10135000B400019002F091FD414A424BCDE90201F7
:1013600002F0B6FD0022404BCDE9040102F0C2FBC1
:10137000CDE9060101F0C0FACDE90A013B48006859
:1013800002F07BFDCDE90801DDE90A2302F0A0FDB2
:10139000CDE90E013548006802F06FFDCDE90C0182
:1013A000DDE90E2302F0EAFACDE9100102F036FD84
:1013B0003149086023E12F48006802F05EFD284AA9
:1013C000284BCDE9060102F083FD0022264BCDE932
:1013D000080102F08FFBCDE90A0101F051FDCDE9D2
:1013E0000E012248006802F048FDCDE90C01DDE95C
:1013F0000E2300E04BE002F06BFDCDE9100102F09E
:101400000DFD1B4908601B48006802F036FD144AB8
:10141000144BCDE9020102F05BFD0022124BCDE935
:10142000040102F067FBCDE9060101F065FACDE9A0
:101430000A010E48006802F020FDCDE90801DDE94F
:101440000A2302F045FDCDE90E010848006802F0CC
:1014500014FDCDE90C01DDE90E2302F029FF0FE0B8
:101460001F85EB51B81E094000806640980000209F
:10147000940000208C0000209000002088000020B4
:10148000CDE9100102F0CAFCF8490860B7E0F8485D
:1014900000685A285BDBF648006802F0EEFCF54A6B
:1014A000F54BCDE9060102F013FD0022F34BCDE927
:1014B000080102F01FFBCDE90A0101F0E1FCCDE9D2
:1014C0000E01EF48006802F0D8FCCDE90C01DDE91F
:1014D0000E2302F0FDFCCDE9100102F09FFCE34970
:1014E0000860E3480068C0F1B400019002F0C5FC58
:1014F000E04AE14BCDE9020102F0EAFC0022DF4BB9
:10150000CDE9040102F0F6FACDE9060101F0F4F9A3
:10151000CDE90A01DA48006802F0AFFCCDE9080124
:10152000DDE90A2302F0D4FCCDE90E01D4480068BD
:1015300002F0A3FCCDE90C01DDE90E2302F01EFA56
:10154000CDE9100102F06AFCCE49086057E0C848B6
:10155000006802F092FCC74AC74BCDE9060102F0D1
:10156000B7FC0022C54BCDE9080102F0C3FACDE972
:101570000A0101F085FCCDE90E01C148006802F0C6
:101580007CFCCDE90C01DDE90E2302F0A1FCCDE9E4
:10159000100102F043FCB5490860B548006802F04C
:1015A0006CFCB44AB44BCDE9020102F091FC00227C
:1015B000B24BCDE9040102F09DFACDE9060101F03C
:1015C0009BF9CDE90A01AE48006802F056FCCDE96E
:1015D0000801DDE90A2302F07BFCCDE90E01A848F1
:1015E000006802F04AFCCDE90C01DDE90E2302F0AF
:1015F0005FFECDE9100102F011FCA2490860A2488B
:1016000000684042A0490860A04800689F490860FF
:10161000964800684042954908609A480068994990
:1016200008602EE39A48006800287CD19048006842
:101630005A285BDB8E48006802F01FFC8D4A8E4BF7
:10164000CDE9060102F044FC00228C4BCDE90801F3
:1016500002F050FACDE90A0101F012FCCDE90E01C9
:101660008748006802F009FCCDE90C01DDE90E2392
:1016700002F02EFCCDE9100102F0D0FB7B4908609E
:101680007B480068C0F1B400019002F0F6FB794A93
:10169000794BCDE9020102F01BFC0022774BCDE92A
:1016A000040102F027FACDE9060101F025F9CDE9A0
:1016B0000A017348006802F0E0FBCDE90801DDE9AA
:1016C0000A2302F005FCCDE90E016D48006802F026
:1016D000D4FBCDE90C01DDE90E2302F04FF9CDE991
:1016E000100102F09BFB674908602BE1604800682D
:1016F00002F0C3FB5F4A604BCDE9060102F0E8FB54
:1017000000225E4BCDE9080102F0F4F9CDE90A01AF
:1017100001F0B6FBCDE90E015948006802F0ADFBBF
:10172000CDE90C0100E03EE0DDE90E2302F0D0FB44
:10173000CDE9100102F072FB4C4908604C4800688A
:1017400002F09BFB4B4A4C4BCDE9020102F0C0FB7F
:1017500000224A4BCDE9040102F0CCF9CDE90601A3
:1017600001F0CAF8CDE90A014548006802F085FB9E
:10177000CDE90801DDE90A2302F0AAFBCDE90E015B
:101780003F48006802F079FB00E0F0E0CDE90C0191
:10179000DDE90E2302F08CFDCDE9100102F03EFBE5
:1017A00038490860CEE0324800685A2872DB304879
:1017B000006802F062FB2F4A2F4BCDE9060102F0D0
:1017C00087FB00222D4BCDE9080102F093F9CDE90A
:1017D0000A0101F055FBCDE90E012948006802F02D
:1017E0004CFBCDE90C01DDE90E2302F071FBCDE9E4
:1017F000100100E046E202F011FB224908601C489B
:101800000068C0F1B400019002F037FB194A1A4B8E
:10181000CDE9020102F05CFB0022184BCDE9040186
:1018200002F068F9CDE9060101F066F8CDE90A0198
:101830001348006802F021FBCDE90801DDE90A2325
:1018400002F046FBCDE90E010D48006802F015FBE1
:10185000CDE90C01DDE90E2302F090F8CDE910018D
:1018600002F0DCFA014908606CE013E0900000200F
:101870008C0000201F85EB51B81E09400080664097
:1018800098000020940000208000002084000020A8
:1018900088000020FE48006802F0EFFAFD4AFE4B87
:1018A000CDE9060102F014FB0022FC4BCDE9080152
:1018B00002F020F9CDE90A0101F0E2FACDE90E01CA
:1018C000F748006802F0D9FACDE90C01DDE90E23F2
:1018D00002F0FEFACDE9100102F0A0FAF149086029
:1018E000EB48006802F0C9FAEA4AEB4BCDE9020185
:1018F00002F0EEFA0022E94BCDE9040102F0FAF819
:10190000CDE9060100F0F8FFCDE90A01E4480068DE
:1019100002F0B3FACDE90801DDE90A2302F0D8FAB2
:10192000CDE90E01DE48006802F0A7FACDE90C010E
:10193000DDE90E2302F0BCFCCDE9100102F06EFAE5
:10194000D9490860D94800684042D8490860D84859
:1019500000684042D6490860D34800684042D249F6
:101960000860D04800684042CE49086089E1D1480B
:10197000006800287ED1C64800685A285BDBC4484E
:10198000006802F07AFAC34AC34BCDE9060102F0BF
:101990009FFA0022C14BCDE9080102F0ABF8CDE976
:1019A0000A0101F06DFACDE90E01BD48006802F0B0
:1019B00064FACDE90C01DDE90E2302F089FACDE9E4
:1019C000100102F02BFAB7490860B1480068C0F175
:1019D000B400019002F051FAAE4AAF4BCDE90201DA
:1019E00002F076FA0022AD4BCDE9040102F082F854
:1019F000CDE9060100F080FFCDE90A01A8480068A2
:101A000002F03BFACDE90801DDE90A2302F060FAB1
:101A1000CDE90E01A248006802F02FFACDE90C01D1
:101A2000DDE90E2301F0AAFFCDE9100102F0F6F97D
:101A30009D49086012E19648006802F01EFA954A36
:101A4000954BCDE9060102F043FA0022934BCDE914
:101A5000080102F04FF8CDE90A0101F011FACDE9D1
:101A60000E018F48006802F008FACDE90C01DDE9AB
:101A70000E2300E03AE002F02BFACDE9100102F06B
:101A8000CDF9884908608248006802F0F6F9814A79
:101A9000814BCDE9020102F01BFA00227F4BCDE918
:101AA000040102F027F8CDE9060100F025FFCDE999
:101AB0000A017B48006802F0E0F9CDE90801DDE9A0
:101AC0000A2302F005FACDE90E017548006802F01C
:101AD000D4F9CDE90C01DDE90E2302F0E9FBCDE9F3
:101AE000100102F09BF970490860B7E0684800688F
:101AF0005A285BDB6648006802F0BFF9654A664B0E
:101B0000CDE9060102F0E4F90022644BCDE90801B9
:101B100001F0F0FFCDE90A0101F0B2F9CDE90E01C3
:101B20005F48006802F0A9F9CDE90C01DDE90E2358
:101B300002F0CEF9CDE9100102F070F95A490860BF
:101B400053480068C0F1B400019002F096F9514A80
:101B5000514BCDE9020102F0BBF900224F4BCDE918
:101B6000040101F0C7FFCDE9060100F0C5FECDE993
:101B70000A014B48006802F080F9CDE90801DDE96F
:101B80000A2302F0A5F9CDE90E014548006802F0EC
:101B900074F9CDE90C01DDE90E2301F0EFFECDE98A
:101BA000100102F03BF93F49086057E038480068EF
:101BB00002F063F9374A384BCDE9060102F088F9A3
:101BC0000022364BCDE9080101F094FFCDE90A016E
:101BD00001F056F9CDE90E013148006802F04DF9E7
:101BE000CDE90C01DDE90E2302F072F9CDE9100117
:101BF00002F014F92C4908602548006802F03DF90C
:101C0000244A254BCDE9020102F062F90022234B60
:101C1000CDE9040101F06EFFCDE9060100F06CFE94
:101C2000CDE90A011E48006802F027F9CDE9080154
:101C3000DDE90A2302F04CF9CDE90E0118480068ED
:101C400002F01BF9CDE90C01DDE90E2302F030FBB7
:101C5000CDE9100102F0E2F812490860134800686B
:101C600012490860124800684042114908600E4855
:101C700000680D4908600B48006840420949086047
:101C800000BF00BF0C48006802281FD10B4817E0B6
:101C90008C0000201F85EB51B81E09400080664073
:101CA0009800002094000020900000208000002078
:101CB000840000208800002064000020A80100208B
:101CC0000068B52802D10620094908600948006863
:101CD000401E094951F82000FF2802D10020054983
:101CE000086040F22551054800F096F813B000BD99
:101CF0006000002064000020A8010020003801409E
:101D00007047000070B540F225513A4800F0EEF8F7
:101D1000002869D0374800F0A5F9064602F0C4F85B
:101D200004460D460022344B2046294602F03AF87C
:101D300006D13248007818B901203049087053E0C4
:101D400000222F4B2046294602F02CF807D12B48C1
:101D50000078012803D102202849087044E0274870
:101D60000078022805D1274830C003202349087095
:101D70003AE022480078032805D1234830C00420E7
:101D80001E49087030E01D480078042805D11F481E
:101D900030C005201949087026E018480078052849
:101DA00005D11B4830C00620144908701CE00022F1
:101DB000184B2046294601F0F5FF07D10F4800785F
:101DC000062803D107200D4908700DE00022114BB1
:101DD0002046294601F0E6FF06D10848007807288A
:101DE00002D100200549087040F22551014800F059
:101DF00013F870BD004800400060664050000020AD
:101E000000606840300000203800002040000020C2
:101E10004800002000E06F4010B50022002340F68B
:101E20006A14A14200D100BF0A1201249440A3B257
:101E3000DC43048010BD21B1828942F400528281CA
:101E400004E082894DF6FF731A40828170470000DA
:101E500010B504462048844209D101218803FEF7C9
:101E6000BBFC00214FF48040FEF7B6FC32E01B487B
:101E7000844209D101214804FEF78EFC00214FF471
:101E80000030FEF789FC25E01548844209D1012184
:101E90008804FEF781FC00214FF48020FEF77CFCD3
:101EA00018E01048844209D10121C804FEF774FCEF
:101EB00000214FF40020FEF76FFC0BE00A4884423B
:101EC00008D101210805FEF767FC00214FF48010BE
:101ED000FEF762FC10BD00000038014000440040E5
:101EE00000480040004C00400050004070B50246E1
:101EF000002400230025002040F66A16B14200D1DC
:101F000000BFC1F3421501F01F03012606FA03F3D7
:101F1000012D02D19689334006E0022D02D1168AA6
:101F2000334001E0968A33400C12012606FA04F48D
:101F30001688344013B10CB1012000E0002070BDC0
:101F4000F0B50346002400260025002040F66A175D
:101F5000B94200D100BF1846C1F3421401F01F0678
:101F6000012707FA06F5012C01D10C3004E0022C00
:101F700001D1103000E014301AB107682F43076018
:101F800002E00768AF430760F0BD00002DE9F047AD
:101F900086B005460E460024A24600BFA146002793
:101FA000B08900B100BF2F462C8A4CF6FF70044068
:101FB000F08804432C82AC894EF6F3100440B088BC
:101FC00031890843718908430443AC81AC8A4FF6D8
:101FD000FF400440B0890443AC8201A8FEF70CFC2A
:101FE0001F48874202D1DDF810A001E0DDF80CA007
:101FF000A88900F4004040B10AEBCA0000EB0A10C7
:1020000031684900B0FBF1F807E00AEBCA0000EBC9
:102010000A1031688900B0FBF1F86420B8FBF0F0D9
:1020200004012009642101FB1089A88900F4004003
:1020300040B1322000EBC900B0FBF1F000F0070026
:10204000044308E0322000EB09106421B0FBF1F0FA
:1020500000F00F0004432C8106B0BDE8F0870000BB
:102060000038014001468888C0F30800704700BF6F
:10207000FEE7490050EAC12018BF04204A0D18BFEE
:1020800040F0010040F2FF72B2EB515F08BF40F038
:102090000200012808BF0520704700002DE9F74F16
:1020A000144694B00021C4E902111599079121F05A
:1020B0000045C9498D4206DC1599C4E9000117B0F5
:1020C0000020BDE8F08FC549DFF814A3A9423CDD2C
:1020D0000799C44E0029C44FC44A1599534619DDC7
:1020E00002F0E6F8554506D0C14AC24B02F0E0F8CE
:1020F000C4E900010AE04FF0D352BE4B02F0D8F819
:1021000032463B4602F0D4F8C4E9000117B0012082
:10211000BDE8F08F01F032FC554506D0B44AB54B0E
:1021200001F02CFCC4E900010AE04FF0D352B14B9E
:1021300001F024FC32463B4601F020FCC4E90001DA
:1021400017B04FF0FF30BDE8F08FAB49A9421599A9
:1021500078DB21F0004183468846A84AA84B01F06D
:10216000B7FE0022A74B01F009FC01F057FE0990D1
:1021700001F083FE06460F469C4A534601F0A8FE36
:1021800043465A4601F0A2FF80468A46984A994B38
:102190003046394601F09CFE2A0D01250B9242463D
:1021A000534601F093FF032DC4E9000139D00B9889
:1021B000C1F30A51401A05EB45111139814230DA59
:1021C0009148C346784400EB0510CDF80CA00C9064
:1021D000D0E900233046394601F07AFE02460B462C
:1021E000049106905846039902F062F880468A46A8
:1021F00002460B465846039902F05AF8049B069A89
:1022000002F056F883460C9803913946D0E9022330
:10221000304601F05DFE5A46039B02F049F86D1C02
:10222000BDE707980028A2BF099817B0BDE8F08F56
:10223000616881F000416160099817B04042BDE8D3
:10224000F08FFFE784461598C1F31301C0F30A50DD
:10225000A0F2F5304FEA601800F01F06C6F120002A
:10226000139000200690079041F4801E05206D46D3
:1022700076B1664A08EB00017A4452F8213002EB4D
:102280008101B3404A68139922FA01F1194305E02C
:102290005F4908EB0002794451F82210A1FB0E2798
:1022A000A1FB0C131A449A4234BF0123002303EB11
:1022B000070A05EB8003D3E901B70F448F4234BF0F
:1022C0000121002193448B4411B1934502D903E0CD
:1022D000934501D2012100E00021C3E901B7514437
:1022E00045F82010011EA0F10100C1DC0298059FF5
:1022F00000F10050800F12900298DDE90356800033
:1023000001F0BBFD834628460D9101F0CDFD6FF035
:102310001D0202F0E9F8CDE90E01304601F0C4FDDE
:102320006FF03D0202F0E0F880468A46384601F040
:10233000BBFD6FF05D0202F0D7F8074642465346F8
:10234000119101F01BFBDDE90E2301F017FB5A464A
:102350000D9B01F013FB00250E465A4628460D9BA7
:1023600001F0A6FFDDE90E2301F0A2FF424653462D
:1023700001F09EFF3A46119B01F0A8FEDFF898A0FD
:10238000244A534601F0A4FD07468846234A244BBD
:102390003146284601F09CFD3A46434601F0EEFAEC
:1023A000074688464FF0A84253463146284601F07A
:1023B0008FFD3A46434601F0E1FA159A12F0004FBC
:1023C00004D0129A81F0004152421292C4E90001F5
:1023D000129817B0BDE8F08FFB21E93F7CD902408D
:1023E000FB21F93F7370032E8A19A33B0000405470
:1023F0003163621A61B4D03DFB21394183C8C96D94
:10240000305FE43F0000E03FF02300006C23000059
:102410004E230000182D4454FB21F93D3326A6110C
:10242000460B113C2DE9FF4D21F0004807460C46B4
:10243000B8F1795F08DA01F0F1FC002801BF002053
:10244000324904B0BDE8F08D3A462346104619469D
:1024500001F03EFD054602462D480E460B4606217C
:10246000784400F05DF82A46334601F031FDDDE99D
:10247000022382468B463846214601F029FD044658
:102480000F4652465B462846314601F021FD224662
:102490003B4601F00DFF07468A464FF0FF322846C3
:1024A000314602F021F81B4A90450ADA3A46534673
:1024B00001F0FEFE04B00022BDE8F04D134B01F028
:1024C00005BE154A4245A8BFA8F500154FF0000407
:1024D000B8BF124D22462B4601F0EAFE064688465A
:1024E00022462B460020094901F0E2FE04460D4633
:1024F0003A4653463046414601F0DAFE04B02246E1
:102500002B46BDE8F04D01F0E1BD00000000F03FBA
:10251000242100003333D33F0000E93F0000D23FC5
:102520002DE9F0414F1E00EBC7010446D1E900013F
:1025300015461E4637F006020DD02A46334601F0F6
:10254000C7FC7F1E04EBC703D3E9002301F016FA92
:1025500037F00602F1D1022F25D0042F13D0062F19
:1025600018BFBDE8F0812A46334601F0B1FCD4E93A
:102570000A2301F003FA2A46334601F0A9FCD4E904
:10258000082301F0FBF92A46334601F0A1FCD4E907
:10259000062301F0F3F92A46334601F099FCD4E909
:1025A000042301F0EBF92A46334601F091FCD4E90B
:1025B000022301F0E3F92A46334601F089FCD4E90D
:1025C0000023BDE8F04101F0D9B900002DE9FF4D2D
:1025D000054621F0004084B00C46B0F1795F0BDA7B
:1025E0002846FFF746FD042808BF00F06FF828468C
:1025F00008B02146BDE8F08D2A460B46104601F092
:1026000067FC06460F462A46234601F061FC8046D9
:1026100026488A4632463B4605217844FFF780FF2C
:1026200083461098029160B3214A224B404651469E
:1026300001F04EFCCDE900015A4640465146029B4E
:1026400001F046FC82468846DDE906014FF0FF3284
:1026500001F04AFF5246434601F02AFE32463B460D
:1026600001F036FCDDE9062301F022FEDDE900235E
:1026700001F01EFE08B02A462346BDE8F04D01F0E9
:1026800025BD0B465A463046394601F021FC084A22
:10269000084B01F073F94246534601F019FC08B0AB
:1026A0002A462346BDE8F04D01F068B962200000DB
:1026B000495555555555C5BF012201F015BF00229A
:1026C00013461046114601F015BA0000024A0020D8
:1026D000110701F009BF000001FDFFFF30380A2893
:1026E00001D20120704700207047014600BF7047AB
:1026F0002DE9F04705460C4616461F46DDF82080BA
:102700004FF00A0AB54201DBBC4218DD12E005FBBE
:1027100005F004FB040008FB1809B9F1000F04DC04
:10272000504600F071FD6D1C04E0504600F004FEC0
:10273000641E00BFB542EADBBC42E8DC17E012E0F1
:1027400005FB05F004FB040008FB1809B9F1000FB4
:1027500004DC504601F01CF8641C04E0504600F014
:10276000BBFC6D1E00BFB542EADCBC42E8DBBDE845
:10277000F0872DE9F04705460C4616461F46DDF862
:1027800020804FF00A0AB54201DBBC4218DA12E0A1
:1027900005FB05F004FB040008FB1809B9F1000F64
:1027A00004DC504600F0F4FF641C04E0504600F0E6
:1027B0002BFD6D1C00BFB542EADBBC42E8DB17E035
:1027C00012E005FB05F004FB040008FB1809B9F151
:1027D000000F04DC504600F07FFC6D1E04E0504604
:1027E00000F0AAFD641E00BFB542EADCBC42E8DC92
:1027F000BDE8F0872DE9F04705460C4616461F4612
:10280000DDF820804FF00A0AB54201DCBC4218DA3C
:1028100012E005FB05F004FB040008FB1809B9F100
:10282000000F04DC504600F057FC6D1E04E05046DB
:1028300000F0AEFF641C00BFB542EADCBC42E8DB3E
:1028400017E012E005FB05F004FB040008FB180983
:10285000B9F1000F04DC504600F06EFD641E04E088
:10286000504600F0D1FC6D1C00BFB542EADBBC4213
:10287000E8DCBDE8F0872DE9F04705460C46164632
:102880001F46DDF820804FF00A0AB54201DCBC4249
:1028900018DD12E005FB05F004FB040008FB180935
:1028A000B9F1000F04DC504600F046FD641E04E060
:1028B000504600F011FC6D1E00BFB542EADCBC4280
:1028C000E8DC17E012E005FB05F004FB040008FB60
:1028D0001809B9F1000F04DC504600F095FC6D1C9E
:1028E00004E0504600F054FF641C00BFB542EADB30
:1028F000BC42E8DBBDE8F08700B5244B21F0004284
:1029000087B09A42DCBF0022134629DD204B9A4251
:1029100008D140B94FF00100FDF793FDFFF7CFFE5E
:1029200007B000BD03DBFFF7C7FE07B000BD02AA7A
:10293000FFF7B4FB10F0030104BF0DF1080C9CE895
:102940000F000DD0012001290ED0022914D00DF165
:10295000080C00909CE80F00FFF738FE07B000BDA0
:10296000FFF760FD07B000BD0DF1080C00909CE87A
:102970000F00FFF72BFE05E00DF1080C9CE80F009F
:10298000FFF750FD07B081F0004100BDFB21E93F9A
:102990000000F07F10B56FF00400FEF723F80A483E
:1029A00000680A49B0FBF1F0094908700846007850
:1029B00000EB4001C1EBC0104FF6FF7101EAC0000F
:1029C0000449088010BD00001400002000127A00A5
:1029D00052000020540000200146114A12784A4358
:1029E0004FF0E0235A6100229A611A46126942F0C0
:1029F00001021A6100BF4FF0E022106900F00102ED
:102A00001AB100F48032002AF5D04FF0E0221269AA
:102A100022F001024FF0E0231A6100229A61704710
:102A20005200002000BF054A128802F04002002A2E
:102A3000F9D0C2B2014B1B1D1A807047003801400B
:102A40000246002A03DD002901DB00207047002A2E
:102A500003DC002901DD0120F8E7002A03DA002960
:102A600001DC0220F2E7002A03DB002901DA03205F
:102A7000ECE700BFEAE7002800DA404270470000B8
:102A80001CB5FFF787FFFDF721FF4FF4165000F04C
:102A90006DFA4FF4A060FDF763FE4FF4165000F09E
:102AA000B5FA4FF4E13000F03BF9C9E06548006841
:102AB00007280FD2DFE800F0040F4C606EA6BA00C2
:102AC0006148016861A0FDF7A7FB6648016866A040
:102AD000FDF7A2FBB3E033E06948006848B96948F4
:102AE000006800F091FB5F48016867A0FDF794FB68
:102AF0000CE063480068012808D16248006800F0D3
:102B0000EBFA5848016860A0FDF786FB644800684E
:102B100048B95C48006800F03BFE4B48016861A082
:102B2000FDF77AFB0CE05E480068012808D14648B2
:102B300001685CA0FDF770FB5248006800F0FCFBE8
:102B40005E4800680128C7D000203E49086076E052
:102B50003D4801685AA0FDF75FFB424801685EA04E
:102B6000FDF75AFB624801686248006800F0A8FE61
:102B700000203449086062E05F4803685F480268EB
:102B80005F4801685F48006800F06EFC00202D4936
:102B9000086054E02C480068002808DD03E039484C
:102BA000006800F099FA284800680028F7D1264804
:102BB0000068002808DA03E03248006800F024FBCF
:102BC000214800680028F7D126480068002808DD61
:102BD00003E02C48006800F0AFFB224800680028A2
:102BE000F7D120480068002808DA03E0254800688B
:102BF00000F0CEFD1B4800680028F7D100201149E5
:102C000008601CE04048007840490968CDE90010A0
:102C10003F4803683F4802683F4801683F480068F2
:102C200000F084FC00200749086008E00022012130
:102C3000084600F0CDF800200249086000BF00BF40
:102C400034E700006000002000000020706167652C
:102C5000302E74312E7478743D22256C6422FFFF6F
:102C6000FF0000000400002070616765302E74339F
:102C70002E7478743D22256C6422FFFFFF00000053
:102C8000C00000200C00002070616765332E743393
:102C90002E7478743D22256C6422FFFFFF00000033
:102CA000C400002070616765332E74322E7478740E
:102CB0003D22256C6422FFFFFF000000C8000020B9
:102CC00070616765312E74352E7478743D22256CE1
:102CD0006422FFFFFF00000070616765312E7437CA
:102CE0002E7478743D22256C6422FFFFFF000000E3
:102CF000700000206C0000207C00002010000020EC
:102D00007800002074000020880000209800002037
:102D1000940000209000002084000020800000200B
:102D200010B586B0044601210820FDF745FD0121BC
:102D30008804FDF721FD4FF48060ADF814000320F6
:102D40008DF8160018208DF8170005A91E48FDF70C
:102D50003EFC4FF40060ADF8140004208DF817001D
:102D600005A91948FDF733FC27208DF80000042041
:102D70008DF801008DF8020001208DF803006846EF
:102D8000FDF7B6FC01940020ADF80800ADF80A008C
:102D9000ADF80C00ADF810000C20ADF80E0001A944
:102DA0000A48FFF7F3F8012240F225510748FFF7E0
:102DB000C7F801210548FFF73EF84FF4A060FDF782
:102DC000CFFC06B010BD0000000C014000480040E0
:102DD0002DE9F74F88B0894692464FF0FF3B5846A1
:102DE000079001200690089081464FF0000A3CE0D1
:102DF0002148066809FB06A001F03FF8CDE9000173
:102E000000F03EF807468846089801F036F83A4642
:102E10004346CDE9020101F05BF8CDE9040100F081
:102E2000FDFF0446154805680799601AA6EB0B01DB
:102E300090FBF1F00690069800280ADBAC4202DD18
:102E4000022000F0A5FCAC420DDC022000F0DCF911
:102E500009E0A54202DD022000F06EFAA54202DA86
:102E6000022000F0D1F9B3460794034800686428B3
:102E7000BED10BB0BDE8F08F0000002004000020A0
:102E800000B5254B21F0004287B09A4203DC0022B6
:102E9000134600922BE0214B9A4208D140B94FF0E3
:102EA0000100FDF7CEFAFFF70AFC07B000BD03DB17
:102EB000FFF702FC07B000BD02AAFFF7EFF810F021
:102EC00003014FF001000DD0012914D002291AD0BE
:102ED0000DF1080C9CE80F00FFF7A4FA07B081F091
:102EE000004100BD0DF1080C00909CE80F00FFF7B9
:102EF0006DFB07B000BD0DF1080C9CE80F00FFF75B
:102F000091FA07B000BD0DF1080C00909CE80F008D
:102F1000FFF75CFBE2E70000FB21E93F0000F07FE8
:102F20002DE9F04106460F4601F0DCF8041E0D467F
:102F300018BF0120284320F00040C0F17F6000F15D
:102F4000E040C00F0ED0301C18BF0120384320F0E5
:102F50000040C0F17F6000F1E040C00F04BF0120DD
:102F6000FDF76FFA20462946BDE8F08110B586B01E
:102F70000446012144F20400FDF71EFC4FF40070EA
:102F8000ADF8140003208DF8160018208DF81700F6
:102F900005A91C48FDF71BFB4FF48060ADF8140039
:102FA00004208DF8170005A91648FDF710FB252011
:102FB0008DF8000003208DF801008DF8020001203B
:102FC0008DF803006846FDF793FB01940020ADF8EF
:102FD0000800ADF80A00ADF80C00ADF810000C20A8
:102FE000ADF80E0001A90848FEF7D0FF012240F21B
:102FF00025510548FEF7A4FF01210348FEF71BFFFA
:1030000006B010BD000801400038014010B586B080
:10301000044601210420FDF7CFFB01214804FDF700
:10302000ABFB2948FEF714FF0420ADF81000032085
:103030008DF8120018208DF8130004A92348FDF71D
:10304000C6FA0820ADF8100004208DF8130004A97A
:103050001E48FDF7BCFA00940020ADF80400ADF85E
:103060000600ADF80800ADF80C000C20ADF80A0021
:1030700069461548FEF78AFF01211348FEF7DBFE7B
:10308000012240F225511048FEF75AFF26208DF804
:10309000140002208DF8150003208DF81600012081
:1030A0008DF8170005A8FDF723FB41F61F4140F2FC
:1030B000E730FDF7F7FC00200549088000210548AE
:1030C000FDF723FD06B010BD00440040000801409C
:1030D0002A0000200014004070B505460120274951
:1030E000086000240EE001202449083908602846C1
:1030F000FFF772FC00202249C1F894012846FFF72F
:103100006BFC641C1F4800688442ECDB1E480068AE
:10311000401E1D4908601D480068012803D01B4857
:103120000068042804D11848016819A0FDF774F854
:1031300016480068022804D1134801681AA0FDF758
:103140006BF812480068032804D10F4801681CA0DE
:10315000FDF762F80D480068052804D10A480168A7
:103160001DA0FDF759F809480068062804D1064853
:1031700001681FA0FDF750F870BD00009C8121423E
:103180000080214208000020000000206000002094
:1031900070616765332E74322E7478743D22256C0D
:1031A0006422FFFFFF00000070616765312E7435F7
:1031B0002E7478743D22256C6422FFFFFF0000000E
:1031C00070616765322E74352E7478743D22256CDB
:1031D0006422FFFFFF00000070616765342E7435C4
:1031E0002E7478743D22256C6422FFFFFF000000DE
:1031F00070616765302E74312E7478743D22256CB1
:103200006422FFFFFF00000070B50546002027493B
:10321000086000240EE0012024490839086028468F
:10322000FFF7DAFB00202249C1F894012846FFF796
:10323000D3FB641C1F4800688442ECDB1E48006816
:10324000401C1D4908601D480068012803D01B4828
:103250000068042804D11848016819A0FCF7DCFFB5
:1032600016480068022804D1134801681AA0FCF728
:10327000D3FF12480068032804D10F4801681CA03E
:10328000FCF7CAFF0D480068052804D10A48016808
:103290001DA0FCF7C1FF09480068062804D10648B4
:1032A00001681FA0FCF7B8FF70BD00009C8121429F
:1032B0000080214208000020000000206000002063
:1032C00070616765332E74322E7478743D22256CDC
:1032D0006422FFFFFF00000070616765312E7435C6
:1032E0002E7478743D22256C6422FFFFFF000000DD
:1032F00070616765322E74352E7478743D22256CAA
:103300006422FFFFFF00000070616765342E743592
:103310002E7478743D22256C6422FFFFFF000000AC
:1033200070616765302E74312E7478743D22256C7F
:103330006422FFFFFF00000070B50546002027490A
:10334000086000240EE00120244908310860284666
:10335000FFF742FB00202249C1F8A0012846FFF7F1
:103360003BFB641C1F4800688442ECDB1E4800687D
:10337000401E1D4908601D480068012803D01B48F5
:103380000068042804D11848016819A0FCF744FF1C
:1033900016480068022804D1134801681AA0FCF7F7
:1033A0003BFF12480068032804D10F4801681CA0A5
:1033B000FCF732FF0D480068052804D10A4801686F
:1033C0001DA0FCF729FF09480068062804D106481B
:1033D00001681FA0FCF720FF70BD0000988121420A
:1033E000008021420800002004000020600000202E
:1033F00070616765332E74332E7478743D22256CAA
:103400006422FFFFFF00000070616765312E743792
:103410002E7478743D22256C6422FFFFFF000000AB
:1034200070616765322E74372E7478743D22256C76
:103430006422FFFFFF00000070616765342E74375F
:103440002E7478743D22256C6422FFFFFF0000007B
:1034500070616765302E74332E7478743D22256C4C
:103460006422FFFFFF0000002DE9FC4780468946EB
:1034700016461F462A4804682A480568F8B22949B2
:10348000CDE900600968C1EB490325490968C1EB32
:1034900048024946404600F049F810B90020BDE80E
:1034A000FC87F8B22B4622464946CDE900604046EB
:1034B00000F03CF81A480068A04208DD03E01A4812
:1034C0000068FFF709FE16480068A042F7D11448CB
:1034D0000068A04208DA03E013480068FFF794FE92
:1034E0000F480068A042F7D10E480068A84208DDE6
:1034F00003E00D480068FFF71FFF0A480068A84274
:10350000F7D108480068A84208DA03E006480068D6
:1035100000F03EF903480068A842F7D10120BEE759
:1035200000000020040000200C0000202DE9FF4FC7
:1035300083B0109C944801680398A1EB000893485D
:1035400001680498A1EB000903990598461A0499AB
:103550000698471A39463046FFF772FA02904946F4
:103560004046FFF76DFA05460096002E02DBDDF8B7
:1035700000B003E0DDF800B0CBF1000BA4EB0B0BC7
:10358000B7F1000A01DBD64601E0CAF1000EABEB51
:103590000E0BBBF10A0F47DC0196002E02DBDDF8B3
:1035A00004B003E0DDF804B0CBF1000BABEB040B8F
:1035B000BBF10A0F38DCB7F1000C01DBE34601E098
:1035C000CCF1000BABEB040BBBF10A0F2CDCB8F118
:1035D000000301DB9B4601E0C3F1000BA4EB0B0BE6
:1035E000B9F1000201DB964601E0C2F1000EABEB3F
:1035F0000E0BBBF10A0F17DCB8F1000101DB8B46A3
:1036000001E0C1F1000BABEB040BBBF10A0F0BDCCB
:10361000B9F1000001DB834601E0C0F1000BABEB28
:10362000040BBBF10A0F03DD002007B0BDE8F08FEB
:103630001198E8B339E035B1012D0FD0022D18D023
:10364000032D2ED121E00023224649464046009416
:10365000FFF74EF8A0464FF0000922E02346002273
:10366000494640460094FFF784F84FF00008A14611
:1036700017E000236242494640460094FFF7BAF83B
:10368000C4F100084FF000090BE0634200224946F4
:1036900040460094FFF7EFF84FF00008C4F100092E
:1036A00000BF00BF681E00F003050298854200E0DD
:1036B00001E0C0D13DE039E035B1012D0FD0022D40
:1036C00019D0032D2ED122E0234600224946404640
:1036D0000094FFF70DF84FF00008A14622E0002308
:1036E0006242494640460094FFF743F8C4F100089F
:1036F0004FF0000916E0634200224946404600941C
:10370000FFF778F84FF00008C4F100090AE0002341
:103710002246494640460094FFF7ADF8A0464FF0D8
:10372000000900BF00BF681C00F003050298854235
:10373000C2D135B1012D0CD0022D12D0032D20D1D4
:1037400017E03B463246494640460094FEF7D0FF1C
:1037500017E03B463246494640460094FFF709F8D9
:103760000FE03B463246494640460094FFF742F898
:1037700007E03B463246494640460094FFF77BF857
:1037800000BF00BF012050E700000020040000201F
:1037900070B5054601202749086000240EE001208D
:1037A0002449083108602846FFF716F9002022490D
:1037B000C1F8A0012846FFF70FF9641C1F480068F4
:1037C0008442ECDB1E480068401C1D4908601D480F
:1037D0000068012803D01B480068042804D1184859
:1037E000016819A0FCF718FD16480068022804D1EA
:1037F000134801681AA0FCF70FFD1248006803285F
:1038000004D10F4801681CA0FCF706FD0D480068B4
:10381000052804D10A4801681DA0FCF7FDFC0948F1
:103820000068062804D1064801681FA0FCF7F4FCD4
:1038300070BD0000988121420080214208000020D4
:10384000040000206000002070616765332E74332F
:103850002E7478743D22256C6422FFFFFF00000067
:1038600070616765312E74372E7478743D22256C33
:103870006422FFFFFF00000070616765322E74371D
:103880002E7478743D22256C6422FFFFFF00000037
:1038900070616765342E74372E7478743D22256C00
:1038A0006422FFFFFF00000070616765302E7433F3
:1038B0002E7478743D22256C6422FFFFFF00000007
:1038C0002DE9F84F81468A4600240027A3460220AE
:1038D000009028480068A9EB000527480068AAEB7B
:1038E0000008291E01DB0A4600E04A42B8F1000048
:1038F00001DB034600E04342D61834E007FB05F045
:10390000FFF7B9F8024604FB08F0FFF7B4F8A2EBA2
:10391000000BBBF1000F14DBA54205DD0098FFF79B
:1039200073FC641C761E1EE0A54205DA0098FFF7C2
:10393000D3FB641E761E16E0A54214D14FF0FF3B68
:1039400011E0BBF1000F0EDAB84505DD0098FFF776
:103950001FFF7F1C761E06E0B84504DA0098FFF7CB
:10396000EBFC7F1E761E002EC8D10024002701200C
:10397000BDE8F88F000000200400002010B591EA97
:10398000030F48BF83F0004300F19A84841A71EB5F
:10399000030C05D2121943EB0C03001B61EB0C0165
:1039A000DFF824E14FEA1154A4EB135C1EEA430F45
:1039B00018BF9EEA445F73D023EA0E03DCF1200EA9
:1039C00021EA045143F4801332D322FA0CFE10EBA7
:1039D0000E0023FA0CFE41EB0E01CCF1200E03FA8F
:1039E0000EFE10EB0E0051F10001B1F5801FCCF17D
:1039F000200E32D201EB045112FA0EF2BDE8104053
:103A000058BF7047401C38BF5FEA420218BF70477A
:103A1000002814BF20F0010041F100014FEA4103EA
:103A200013F5001F38BF7047A1F1C04100F048BB3B
:103A3000012A43EB0302ACF1200CDCF11F0E32BF74
:103A40004FF0000E23FA0CF310EB030041EB04518E
:103A5000B4EB115FD0D0A1EB045101F580114908FE
:103A60005FEA300001EB04510ED350F1000038BF83
:103A700012FA0EFE08D1BDE81040C9E7401C38BF5D
:103A80005FEA4202CAD1C3E7BDE810404FEA4103F2
:103A900013F5001F38BF7047A1F1C04100F010BB03
:103AA0009EEA445F08D011EA5E0FBDE8104004BFF3
:103AB00001F0004100207047BDE8104070B500F0F3
:103AC000B1FA00BF64FBBE3E0000E0FF02494FF0C8
:103AD000000000F0D7BC00BF0000F87F491058BFBD
:103AE000C1F140415B1058BFC3F140438B42EFF33B
:103AF000008070472DE9C04130B4DFF8A0C23CEA35
:103B0000111418BF3CEA131400F0EC8081EA03059D
:103B10001CEA111444EAD57418BF1CEA131500F00E
:103B2000C780A4EB05044FF0004545EAC12145EAF2
:103B3000C32341EA505143EA525304F17F7499423E
:103B400004F500344FEAC0204FEAC22208BF904279
:103B500000F09C804FEA13650FF24016765D4FEA45
:103B6000134506FB05F7C7F1807706FB07F74FEA19
:103B7000D737A7FB03687642C8F58038A7FB06CE87
:103B800038BFA8F1010807FB08E64FF0000EA6FBBE
:103B9000028CE6FB03CEDCF1000CCEF1004E38BF08
:103BA000AEF1010EA6FB0C584FF000074FF00005D8
:103BB000E6FB0E87A1FB08C6A0FB07CE16EB0E06A0
:103BC00045F10005E1FB076515F1E04E7EBFA4F568
:103BD00080345FEA46066D4116F1800745F1000525
:103BE0004FEA17274FEA066647EA0567A6F1DE4661
:103BF000B6F1805F4FEA15251FD9384624F0010C35
:103C000005EBC471BCF1FE6F01EB0C1102D8F0BCE6
:103C1000BDE8008124425CBF01F5801E9EEAC47F9E
:103C200002D4F0BCBDE80081244238D4F0BCA1F13C
:103C3000C041BDE8004100F043BA4FEAD22242EA57
:103C400043524FEAD323A7FB02864FEAD02040EA33
:103C5000415007FB03661EEA0E0F4FEAD12105FB18
:103C6000026658BFA6EB0056B6EB00564FEA520E5E
:103C70004EEAC37E18EB0E0E56EB530EBDD518EB75
:103C800002085E417F1C55F10005B6E74FF4801530
:103C90004FF000074FF000064FF00008ADE7F0BC12
:103CA0004FF0000001F1C04101F00041BDE800818A
:103CB00011EA0C1F0CEA131500D00CE013EA0C1FDC
:103CC00000F025804FF00000F0BC81EA030101F014
:103CD0000041BDE80081F0BCBDE8004181EA03017C
:103CE00000F0EEB9F0BCBDE8004170B500F09AF903
:103CF000097EFC3E00F007B881EA03014FF00000A6
:103D000001F00041704781EA030100F0D9B9F0BC2D
:103D1000BDE800414FF0000021497047FFFDFBF96D
:103D2000F7F5F4F2F0EEEDEBE9E8E6E4E3E1E0DEEE
:103D3000DDDBDAD8D7D5D4D3D1D0CFCDCCCBCAC860
:103D4000C7C6C5C4C2C1C0BFBEBDBCBBBAB9B8B787
:103D5000B6B5B4B3B2B1B0AFAEADACABAAA9A8A87A
:103D6000A7A6A5A4A3A3A2A1A09F9F9E9D9C9C9B48
:103D70009A999998979796959594939392919190F3
:103D80008F8F8E8E8D8C8C8B8B8A89898888878784
:103D90008685858484838382828181800000FF07F9
:103DA0000000F87F51EA030C17D41CF5801F58BFA0
:103DB000BCF5801F00F10680994218BF704708BF0C
:103DC0009042704707D711F5801F58BF13F5801F29
:103DD00019D499427047894270471CF5801F08D555
:103DE000BCF5801FF7D58B4218BF704708BF8242D1
:103DF00070474FF4001C1CEB410F38BF1CEB430F06
:103E000001D28B42704770B500F00CF99224490042
:103E10004FF000514FF08053FFF760BE4FEA41036F
:103E20004FEA5353A3F58063D3F11E03C8BFD3F108
:103E3000210C0CDD4FF0004242EAC12242EA50520E
:103E400032FA03FC8CEAE17CACEBE1707047102B9A
:103E5000C4BF0020704703F5787CBCF1FF3F04D05D
:103E60006FF0004282EA2100704770B500F0DAF886
:103E70004992248000207047F2E710F0004248BFCA
:103E80004042B0FA80F310FA03F10AD0C3F11D03E7
:103E900003F580634FEA415002EB035202EBD1215C
:103EA00070474FF000007047B0FA80F310FA03F14A
:103EB0000AD0C3F11D0303F580634FEA41504FEA76
:103EC000035202EBD12170474FF000007047000011
:103ED000DFF848C170B51CEA111E1EBF1CEA13159D
:103EE0009EEA0C0F95EA0C0F00F06F8081EA030444
:103EF00023EA4C134EEAD47E21EA4C1141F480119E
:103F000043F48013AE44A1FB024CA0FB0365AEF169
:103F10007F7E361955EB0C05A1FB034C4CF10003D9
:103F2000A0FB021C16EB0C06654153F1000309428D
:103F300018BF46F0010613F4007F0BD14FEA03319E
:103F40004FEA0530340341EA155140EA16506FF04C
:103F500003020AE04FEAC3214FEAC520F40241EA16
:103F6000555140EA56506FF0020202EB2E4201EB2F
:103F7000025585EACE710AD05FEA440C18BF24F0DE
:103F8000004450F1000041F1000120EAD47040F2F9
:103F9000FE7C624500D270BDA84214BF4FF0804441
:103FA0004FF04044002E08BF0024BEF1806FA8BF30
:103FB000A1F1C041BDE8704080F282804FF0000066
:103FC00001F1C04101F0004170479EEA0C0F0CEA7C
:103FD000131518BF95EA0C0F06D04FF0000081EAC8
:103FE000030E0EF0004170BD00F01CF88900013E88
:103FF00000F007B800F009B84FEA430C5FEA5C5CD8
:1040000008D081EA030100F05BB84FEA410C5FEA97
:104010005C5CF6D14FF00000014970470000FF07DB
:104020000000F87F0EF1020E2EF0030E5EF8046B16
:10403000364205D4012A43EB030515F5001F12D8BB
:10404000012841EB010C1CF5001F0CD80ED14FEAE2
:10405000D17C15F5001F0CEB4C0C0CF1020C08BFC9
:104060004CEBD37C04E04FF0080C01E04FEAD37C2A
:104070000CEB4C0526FA05F606F00706B6F1040C23
:1040800006D20EEB860CBDE870404CF0010C604788
:10409000DFE80CF0090B02024FF000414FF0000086
:1040A000A1F5002170BD19461046012851EB01040D
:1040B00018BFD4F5001484BF002001F0004170BD8A
:1040C0000808A0F500114FEA3101704791EA030F8B
:1040D00010B581F000413FF559AC83F0004300F08A
:1040E000EFB800002DE9F04101F5801CBCF5001F80
:1040F000C0F2C3804FEA115C21EA0C510CF1FD0CB7
:1041000041F480115FEA5C0C0CF5C07C01D34000E7
:1041100049413DA4890241EA905187028E0E0A0C62
:10412000A45D04FB04F602FB06F6C6F14046A4FBC0
:104130000662F60D46EA422606FB06F4A4FB0123BE
:104140005242C3F1404338BF5B1EA6FB024200242B
:10415000E6FB0324D20B42EA4446A6FB0623A1FB5E
:1041600002E2A3FB07E4A4184FF0000252F10002A0
:10417000E3FB01426442C2F1404E38BFAEF1010E92
:10418000A6FB04234FF00002E6FB0E32A2FB03461F
:104190004FF00004B61954F10004E2FB0264A1FBE5
:1041A00006E6A4FB07E816EB08064FF0000858F1F6
:1041B0000008E4FB01687642C8F1405838BFA8F116
:1041C0000108A2FB06E4A3FB08E52D194FF000044B
:1041D00054F10004E2FB0854A1FB05E6A7FB04E848
:1041E00018EB06084FF0000656F10006E1FB0486C6
:1041F00018F1200556F10006A809A8F11B08B1091D
:1042000008F03F08B8F10A0F40EA86601CD901EBBC
:104210000C51BDE8F08100BFFCF5EEE8E2DDD8D33B
:10422000CFCBC7C3C0BDB9B6B4B1AEACA9A7A5A327
:10423000A19F9D9B9A9896959392908F8D8C8B8938
:104240008887868584838281A0FB006800FB01F259
:1042500008EB4208B8EB872807D5341858EB01045F
:10426000D5D5401C51F10001D1E7341A78EB010497
:10427000CDD4401E71F10001C9E75FEA4C0C5FEA42
:104280009C5C0DD105D34FF0000001F00041BDE86A
:10429000F081BDE8F04170B5FFF7C4FE6DDBFFBEF5
:1042A000BDE8F0414FF00000004970470000F87F82
:1042B00010B591EA030F48BF83F000433FF566ABAA
:1042C000841A71EB030C07D212198CF0004C43EBEB
:1042D0000C03001B61EB0C01DFF8A4E14FEA115461
:1042E000A4EB135C1EEA430F18BF9EEA445F00F084
:1042F000B08023EA6E03524221EA0451C3EB6E03FD
:1043000038BF5B1EDCF1200E25D322FA0CFE10EB29
:104310000E0043FA0CFE41EB0E01CCF1200E03FA25
:104320000EFE10EB0E0051F10001CCF1200E29D44D
:1043300012FA0EF201EB0451BDE8104058BF70476D
:10434000401C1CBFB2F1004F704700280CBF491C35
:1043500020F00100704712EB020E43EB030218BF7E
:104360004FF0010E4EEA4202ACF1200CDCF11E0EC1
:1043700054D943FA0CFE10EB0E0051F1FF31CCF191
:104380001E0ED5D50EF1010E12FA0EFE404141EB84
:10439000010101EB445C5FEA5C5C10D910EBDE705C
:1043A00001EB045138BFBEF1004FBDE8104018BF0B
:1043B000704700280CBF491C20F00100704730D224
:1043C0004FEAD42C11F5001124F400641BD0B1FA8B
:1043D00081F20B3AA41AA41ED2F12003914030FAC4
:1043E00003F31943904001EBCC71002C01EB045115
:1043F000BDE81040A8BF704701F1C0414FF0000078
:1044000001F000417047B0FA80F310FA03F100D1D7
:1044100010BDE41A173C4805C90AE4E701EB045152
:1044200010BD491001EB0451BDE810404FEA3000C7
:1044300002E04FF0000170474A0008BF0042F8D088
:10444000B2F5001F28BF704701F000414FF0000097
:1044500070479EEA445F07D011EA5E0FBDE8104046
:1044600004BF002100207047BDE8104070B5FFF781
:10447000D9FD00BF40DFF63E83F000411046704793
:104480000000E0FF0CF00F03092B08BF082000F02C
:1044900059800A2B0BD0082B18BF704708BF1CF09F
:1044A000400F0AD04FF000004FF0000170471CF0A1
:1044B000400F18BF4FF0004070471CF0100F08D09D
:1044C00020F0704300F07F4242EAD3014FEA43708C
:1044D000704700F0604021F07F4242EA000201F0A4
:1044E0007F4040EA727070474FF0FF0C4CF4E06C74
:1044F0001CEA11531CBF9CEA030C9445C2BFDA426C
:1045000001EB02517047002B0DD0BCF1000F0FD012
:10451000002A01F00041A4BF41F0E04141F07F6179
:104520004FF00000704701F000414FF0000070476D
:1045300050EA01334FF09B0C18BF4CF0806C7FF4B5
:10454000C5AA70471CF4801F11D01CF4E02F03D0C3
:104550006FEACC31490070474FF04050EFF30082D2
:1045600022F0704242EA000282F3008870474FF066
:104570000000704704000008000000000000000276
:1045800000010000100000004C5555555555A53F41
:104590007751C1166CC156BF9015CB19A001FA3ED8
:1045A000AD529C804F7E92BEC4B1B4BD9EEE213E02
:1045B000D43888BEE9FAA8BD00004054FB21F93F79
:1045C0003163621A61B4D03D0000601A61B4D03D1D
:1045D0007370032E8A19A33B0000002E8A19A33B97
:1045E000C14920259A837B390000000000000000AB
:1045F0006E83F9A22915444ED15727FCC0DD34F54E
:10460000999562DB4190433CAB6351FE61C5BBDED3
:104610003A6E24B7E0D24D42EA2E49061C92D109E7
:104620001CEB1DFE3EA729B1F53582E88444BB2E64
:1046300026709CE9417E5FB439D69139F4395383B1
:104640008B5F849C3B28F9BDFF97F81F0F9805DE10
:104650008B112FEF1F6D0A5ACF7E366DB709CB270E
:10466000663F464F2DEA5F9EC7BA27757BF1E5EBA3
:10467000F739073DEA92528AB15FFB6B085D8D1FE7
:10468000A6F810111111813FD561C119A0012ABFEF
:104690007DFEB157E31DC73EEB9C2B8AE6E55ABE73
:1046A0007CD5CF5A3AD9E53DC84600080000002025
:1046B000E00000006C010008A8470008E0000020AE
:1046C0005007000088010008000000000000000002
:1046D00050000000020000000000000000A24A0498
:1046E00000000000000000000102030406070809A2
:1046F00000000000000000000000000000000000BA
:1047000000000000000000000000000000000000A9
:104710000000000000000000000000000000000099
:104720000000000000000000000000000000000089
:104730000000000000000000000000000000000079
:104740000000000000000000000000000000000069
:104750000000000000000000000000000000000059
:104760000000000000000000000000000000000049
:104770000000000000000000000000000000000039
:104780000000000000000000030000000300000023
:104790000000000000000000010203040102030405
:0847A0000607080902040608DF
:04000005080001D519
:00000001FF
